{
  "_format": "hh-sol-artifact-1",
  "contractName": "Feedback",
  "sourceName": "contracts/Feedback.sol",
  "abi": [
    {
      "inputs": [],
      "stateMutability": "nonpayable",
      "type": "constructor"
    },
    {
      "inputs": [],
      "name": "dislike",
      "outputs": [],
      "stateMutability": "nonpayable",
      "type": "function"
    },
    {
      "inputs": [],
      "name": "dislikes",
      "outputs": [
        {
          "internalType": "uint256",
          "name": "_value",
          "type": "uint256"
        }
      ],
      "stateMutability": "view",
      "type": "function"
    },
    {
      "inputs": [],
      "name": "getFeedBack",
      "outputs": [
        {
          "internalType": "uint256[2]",
          "name": "",
          "type": "uint256[2]"
        }
      ],
      "stateMutability": "view",
      "type": "function"
    },
    {
      "inputs": [],
      "name": "like",
      "outputs": [],
      "stateMutability": "nonpayable",
      "type": "function"
    },
    {
      "inputs": [],
      "name": "likes",
      "outputs": [
        {
          "internalType": "uint256",
          "name": "_value",
          "type": "uint256"
        }
      ],
      "stateMutability": "view",
      "type": "function"
    }
  ],
  "bytecode": "0x608060405234801561001057600080fd5b506102b0806100206000396000f3fe608060405234801561001057600080fd5b50600436106100575760003560e01c80631760da801461005c578063a523b88a1461007a578063d1dc9bd814610084578063d4f094b5146100a2578063df5a11e1146100c0575b600080fd5b6100646100ca565b604051610071919061020d565b60405180910390f35b61008261010a565b005b61008c610116565b6040516100999190610228565b60405180910390f35b6100aa610122565b6040516100b79190610228565b60405180910390f35b6100c861012e565b005b6100d261015e565b60006100de600061013a565b905060006100ec600161013a565b90506040518060400160405280838152602001828152509250505090565b6101146000610148565b565b60008060000154905081565b60018060000154905081565b6101386001610148565b565b600081600001549050919050565b6001816000016000828254019250508190555050565b6040518060400160405280600290602082028036833780820191505090505090565b600061018c83836101ef565b60208301905092915050565b6101a18161024d565b6101ab8184610265565b92506101b682610243565b8060005b838110156101e75781516101ce8782610180565b96506101d983610258565b9250506001810190506101ba565b505050505050565b6101f881610270565b82525050565b61020781610270565b82525050565b60006040820190506102226000830184610198565b92915050565b600060208201905061023d60008301846101fe565b92915050565b6000819050919050565b600060029050919050565b6000602082019050919050565b600081905092915050565b600081905091905056fea2646970667358221220e83c00fd55825948cf4bb327099d2a65ce1330b7cca79af995f5b50fdc63cd6764736f6c63430008040033",
  "linkReferences": {},
  "deployedLinkReferences": {}
}