{
  "_format": "hh-sol-artifact-1",
  "contractName": "Game",
  "sourceName": "contracts/Game.sol",
  "abi": [
    {
      "inputs": [],
      "stateMutability": "nonpayable",
      "type": "constructor"
    },
    {
      "anonymous": false,
      "inputs": [
        {
          "indexed": false,
          "internalType": "uint256",
          "name": "_gameId",
          "type": "uint256"
        },
        {
          "indexed": false,
          "internalType": "int8",
          "name": "winner",
          "type": "int8"
        }
      ],
      "name": "GameDone",
      "type": "event"
    },
    {
      "anonymous": false,
      "inputs": [
        {
          "indexed": false,
          "internalType": "uint256",
          "name": "_gameId",
          "type": "uint256"
        },
        {
          "indexed": false,
          "internalType": "int8[9]",
          "name": "game",
          "type": "int8[9]"
        }
      ],
      "name": "MoveDone",
      "type": "event"
    },
    {
      "inputs": [
        {
          "internalType": "uint256",
          "name": "",
          "type": "uint256"
        }
      ],
      "name": "allGames",
      "outputs": [
        {
          "internalType": "uint256",
          "name": "gameId",
          "type": "uint256"
        },
        {
          "internalType": "address",
          "name": "turn",
          "type": "address"
        },
        {
          "internalType": "int8",
          "name": "state",
          "type": "int8"
        }
      ],
      "stateMutability": "view",
      "type": "function"
    },
    {
      "inputs": [
        {
          "internalType": "uint256",
          "name": "_gameId",
          "type": "uint256"
        }
      ],
      "name": "checkIfBoardIsFilled",
      "outputs": [
        {
          "internalType": "bool",
          "name": "isTie",
          "type": "bool"
        }
      ],
      "stateMutability": "view",
      "type": "function"
    },
    {
      "inputs": [
        {
          "internalType": "uint256",
          "name": "_gameId",
          "type": "uint256"
        },
        {
          "internalType": "int8",
          "name": "_mark",
          "type": "int8"
        }
      ],
      "name": "checkWinner",
      "outputs": [
        {
          "internalType": "int8",
          "name": "state",
          "type": "int8"
        }
      ],
      "stateMutability": "view",
      "type": "function"
    },
    {
      "inputs": [
        {
          "internalType": "uint256",
          "name": "_gameId",
          "type": "uint256"
        },
        {
          "internalType": "int8",
          "name": "_mark",
          "type": "int8"
        }
      ],
      "name": "gameState",
      "outputs": [
        {
          "internalType": "bool",
          "name": "terminated",
          "type": "bool"
        }
      ],
      "stateMutability": "nonpayable",
      "type": "function"
    },
    {
      "inputs": [
        {
          "internalType": "address",
          "name": "",
          "type": "address"
        },
        {
          "internalType": "uint256",
          "name": "",
          "type": "uint256"
        }
      ],
      "name": "gamesByMe",
      "outputs": [
        {
          "internalType": "uint256",
          "name": "",
          "type": "uint256"
        }
      ],
      "stateMutability": "view",
      "type": "function"
    },
    {
      "inputs": [
        {
          "internalType": "address",
          "name": "",
          "type": "address"
        },
        {
          "internalType": "uint256",
          "name": "",
          "type": "uint256"
        }
      ],
      "name": "gamesByOther",
      "outputs": [
        {
          "internalType": "uint256",
          "name": "",
          "type": "uint256"
        }
      ],
      "stateMutability": "view",
      "type": "function"
    },
    {
      "inputs": [
        {
          "internalType": "uint256",
          "name": "_gameId",
          "type": "uint256"
        }
      ],
      "name": "getGame",
      "outputs": [
        {
          "components": [
            {
              "internalType": "uint256",
              "name": "gameId",
              "type": "uint256"
            },
            {
              "internalType": "address[2]",
              "name": "players",
              "type": "address[2]"
            },
            {
              "internalType": "uint256[2]",
              "name": "nonis",
              "type": "uint256[2]"
            },
            {
              "internalType": "bool[2]",
              "name": "verification",
              "type": "bool[2]"
            },
            {
              "internalType": "address",
              "name": "turn",
              "type": "address"
            },
            {
              "internalType": "int8[9]",
              "name": "game",
              "type": "int8[9]"
            },
            {
              "internalType": "int8",
              "name": "state",
              "type": "int8"
            }
          ],
          "internalType": "struct Game.GameComponent",
          "name": "game",
          "type": "tuple"
        }
      ],
      "stateMutability": "view",
      "type": "function"
    },
    {
      "inputs": [],
      "name": "getMyChallenges",
      "outputs": [
        {
          "internalType": "uint256[]",
          "name": "",
          "type": "uint256[]"
        }
      ],
      "stateMutability": "view",
      "type": "function"
    },
    {
      "inputs": [],
      "name": "getMyGames",
      "outputs": [
        {
          "internalType": "uint256[]",
          "name": "",
          "type": "uint256[]"
        }
      ],
      "stateMutability": "view",
      "type": "function"
    },
    {
      "inputs": [
        {
          "internalType": "address",
          "name": "player1",
          "type": "address"
        }
      ],
      "name": "initGame",
      "outputs": [],
      "stateMutability": "nonpayable",
      "type": "function"
    },
    {
      "inputs": [
        {
          "internalType": "uint8",
          "name": "position",
          "type": "uint8"
        },
        {
          "internalType": "uint256",
          "name": "_gameId",
          "type": "uint256"
        },
        {
          "internalType": "uint256[8]",
          "name": "proof",
          "type": "uint256[8]"
        },
        {
          "internalType": "uint256[9]",
          "name": "input",
          "type": "uint256[9]"
        }
      ],
      "name": "makeMove",
      "outputs": [],
      "stateMutability": "nonpayable",
      "type": "function"
    },
    {
      "inputs": [
        {
          "internalType": "uint256",
          "name": "_gameId",
          "type": "uint256"
        },
        {
          "internalType": "uint256",
          "name": "noni",
          "type": "uint256"
        }
      ],
      "name": "verifyGame",
      "outputs": [
        {
          "internalType": "bool",
          "name": "succes",
          "type": "bool"
        }
      ],
      "stateMutability": "nonpayable",
      "type": "function"
    }
  ],
  "bytecode": "0x60806040523480156200001157600080fd5b50604051620000209062000084565b604051809103906000f0801580156200003d573d6000803e3d6000fd5b50600160006101000a81548173ffffffffffffffffffffffffffffffffffffffff021916908373ffffffffffffffffffffffffffffffffffffffff16021790555062000092565b6127b38062003da183390190565b613cff80620000a26000396000f3fe608060405234801561001057600080fd5b50600436106100b45760003560e01c80637a4feb1a116100715780637a4feb1a1461019f578063a0b55095146101cf578063a2f77bcc14610201578063b4a13aa514610231578063b62edb2114610261578063b9ca48fc1461027f576100b4565b80630210d751146100b95780631a7fbd94146100d75780633ef6d891146101075780636a5568be1461012357806371db9a911461013f5780637269deb51461016f575b600080fd5b6100c16102af565b6040516100ce9190613158565b60405180910390f35b6100f160048036038101906100ec9190612327565b610344565b6040516100fe9190613195565b60405180910390f35b610121600480360381019061011c919061239f565b610782565b005b61013d60048036038101906101389190612270565b6112cc565b005b61015960048036038101906101549190612327565b6116cf565b604051610166919061317a565b60405180910390f35b61018960048036038101906101849190612299565b6117fd565b604051610196919061326c565b60405180910390f35b6101b960048036038101906101b49190612363565b61182e565b6040516101c6919061317a565b60405180910390f35b6101e960048036038101906101e491906122fe565b611b1f565b6040516101f893929190613287565b60405180910390f35b61021b600480360381019061021691906122fe565b611b76565b6040516102289190613250565b60405180910390f35b61024b600480360381019061024691906122fe565b611db5565b604051610258919061317a565b60405180910390f35b610269611e59565b6040516102769190613158565b60405180910390f35b61029960048036038101906102949190612299565b611eee565b6040516102a6919061326c565b60405180910390f35b6060600460003373ffffffffffffffffffffffffffffffffffffffff1673ffffffffffffffffffffffffffffffffffffffff16815260200190815260200160002080548060200260200160405190810160405280929190818152602001828054801561033a57602002820191906000526020600020905b815481526020019060010190808311610326575b5050505050905090565b600080600260008581526020019081526020016000206007016009806020026040519081016040528092919082600980156103ba576020028201916000905b82829054906101000a900460000b60000b815260200190600101906020826000010492830192600103820291508084116103835790505b505050505090506103c9611f43565b60005b60098110156104d0578460000b838260098110610412577f4e487b7100000000000000000000000000000000000000000000000000000000600052603260045260246000fd5b602002015160000b1415610470578482826009811061045a577f4e487b7100000000000000000000000000000000000000000000000000000000600052603260045260246000fd5b602002019060000b908160000b815250506104bd565b60008282600981106104ab577f4e487b7100000000000000000000000000000000000000000000000000000000600052603260045260246000fd5b602002019060000b908160000b815250505b80806104c8906138e5565b9150506103cc565b5060006040518061010001604052806040518060600160405280600060ff168152602001600160ff168152602001600260ff1681525081526020016040518060600160405280600360ff168152602001600460ff168152602001600560ff1681525081526020016040518060600160405280600660ff168152602001600760ff168152602001600860ff1681525081526020016040518060600160405280600060ff168152602001600360ff168152602001600660ff1681525081526020016040518060600160405280600160ff168152602001600460ff168152602001600760ff1681525081526020016040518060600160405280600260ff168152602001600560ff168152602001600860ff1681525081526020016040518060600160405280600060ff168152602001600460ff168152602001600860ff1681525081526020016040518060600160405280600260ff168152602001600460ff168152602001600660ff168152508152509050600080600090505b6008811015610772576001915060005b600381101561074457600084836008811061069b577f4e487b7100000000000000000000000000000000000000000000000000000000600052603260045260246000fd5b602002015182600381106106d8577f4e487b7100000000000000000000000000000000000000000000000000000000600052603260045260246000fd5b602002015190506000868260ff166009811061071d577f4e487b7100000000000000000000000000000000000000000000000000000000600052603260045260246000fd5b602002015160000b141561073057600093505b50808061073c906138e5565b915050610657565b5060011515821515141561075f57869550505050505061077c565b808061076a906138e5565b915050610647565b5060039450505050505b92915050565b60006040518060400160405280846000600881106107c9577f4e487b7100000000000000000000000000000000000000000000000000000000600052603260045260246000fd5b602002015181526020018460016008811061080d577f4e487b7100000000000000000000000000000000000000000000000000000000600052603260045260246000fd5b6020020151815250905060006040518060400160405280604051806040016040528087600260088110610869577f4e487b7100000000000000000000000000000000000000000000000000000000600052603260045260246000fd5b60200201518152602001876003600881106108ad577f4e487b7100000000000000000000000000000000000000000000000000000000600052603260045260246000fd5b602002015181525081526020016040518060400160405280876004600881106108ff577f4e487b7100000000000000000000000000000000000000000000000000000000600052603260045260246000fd5b6020020151815260200187600560088110610943577f4e487b7100000000000000000000000000000000000000000000000000000000600052603260045260246000fd5b602002015181525081525090506000604051806040016040528086600660088110610997577f4e487b7100000000000000000000000000000000000000000000000000000000600052603260045260246000fd5b60200201518152602001866007600881106109db577f4e487b7100000000000000000000000000000000000000000000000000000000600052603260045260246000fd5b60200201518152509050600160009054906101000a900473ffffffffffffffffffffffffffffffffffffffff1673ffffffffffffffffffffffffffffffffffffffff1663c542c93b848484886040518563ffffffff1660e01b8152600401610a469493929190613111565b60206040518083038186803b158015610a5e57600080fd5b505afa158015610a72573d6000803e3d6000fd5b505050506040513d601f19601f82011682018060405250810190610a9691906122d5565b610ad5576040517f08c379a0000000000000000000000000000000000000000000000000000000008152600401610acc90613210565b60405180910390fd5b6001151560026000888152602001908152602001600020600501600060028110610b28577f4e487b7100000000000000000000000000000000000000000000000000000000600052603260045260246000fd5b602091828204019190069054906101000a900460ff161515148015610bb557506001151560026000888152602001908152602001600020600501600160028110610b9b577f4e487b7100000000000000000000000000000000000000000000000000000000600052603260045260246000fd5b602091828204019190069054906101000a900460ff161515145b610bf4576040517f08c379a0000000000000000000000000000000000000000000000000000000008152600401610beb906131f0565b60405180910390fd5b60036002600088815260200190815260200160002060080160009054906101000a900460000b60000b14610c5d576040517f08c379a0000000000000000000000000000000000000000000000000000000008152600401610c5490613230565b60405180910390fd5b6002600087815260200190815260200160002060060160009054906101000a900473ffffffffffffffffffffffffffffffffffffffff1673ffffffffffffffffffffffffffffffffffffffff163373ffffffffffffffffffffffffffffffffffffffff1614610d01576040517f08c379a0000000000000000000000000000000000000000000000000000000008152600401610cf8906131d0565b60405180910390fd5b600060026000888152602001908152602001600020600101600060028110610d52577f4e487b7100000000000000000000000000000000000000000000000000000000600052603260045260246000fd5b0160009054906101000a900473ffffffffffffffffffffffffffffffffffffffff1673ffffffffffffffffffffffffffffffffffffffff163373ffffffffffffffffffffffffffffffffffffffff16148015610e1757506000600260008981526020019081526020016000206007018960ff1660098110610dfc577f4e487b7100000000000000000000000000000000000000000000000000000000600052603260045260246000fd5b602091828204019190069054906101000a900460000b60000b145b15610fa7577fffffffffffffffffffffffffffffffffffffffffffffffffffffffffffffffff600260008981526020019081526020016000206007018960ff1660098110610e8e577f4e487b7100000000000000000000000000000000000000000000000000000000600052603260045260246000fd5b602091828204019190066101000a81548160ff021916908360000b60ff160217905550610edb877fffffffffffffffffffffffffffffffffffffffffffffffffffffffffffffffff6116cf565b905060026000888152602001908152602001600020600101600160028110610f2c577f4e487b7100000000000000000000000000000000000000000000000000000000600052603260045260246000fd5b0160009054906101000a900473ffffffffffffffffffffffffffffffffffffffff166002600089815260200190815260200160002060060160006101000a81548173ffffffffffffffffffffffffffffffffffffffff021916908373ffffffffffffffffffffffffffffffffffffffff16021790555061120a565b60026000888152602001908152602001600020600101600160028110610ff6577f4e487b7100000000000000000000000000000000000000000000000000000000600052603260045260246000fd5b0160009054906101000a900473ffffffffffffffffffffffffffffffffffffffff1673ffffffffffffffffffffffffffffffffffffffff163373ffffffffffffffffffffffffffffffffffffffff161480156110bb57506000600260008981526020019081526020016000206007018960ff16600981106110a0577f4e487b7100000000000000000000000000000000000000000000000000000000600052603260045260246000fd5b602091828204019190069054906101000a900460000b60000b145b15611209576001600260008981526020019081526020016000206007018960ff1660098110611113577f4e487b7100000000000000000000000000000000000000000000000000000000600052603260045260246000fd5b602091828204019190066101000a81548160ff021916908360000b60ff1602179055506111418760016116cf565b905060026000888152602001908152602001600020600101600060028110611192577f4e487b7100000000000000000000000000000000000000000000000000000000600052603260045260246000fd5b0160009054906101000a900473ffffffffffffffffffffffffffffffffffffffff166002600089815260200190815260200160002060060160006101000a81548173ffffffffffffffffffffffffffffffffffffffff021916908373ffffffffffffffffffffffffffffffffffffffff1602179055505b5b7fed0b82937c8b0d15be579c2daa56662df7e651fa16d28232a63e2f431e9be8da87600260008a81526020019081526020016000206007016040516112509291906132be565b60405180910390a16001151581151514156112c2577f82bfb6d1aed88e000c2445617df7da548df8e369b1412a6cd5aaf1af6be2221f87600260008a815260200190815260200160002060080160009054906101000a900460000b6040516112b99291906132e8565b60405180910390a15b5050505050505050565b8073ffffffffffffffffffffffffffffffffffffffff163373ffffffffffffffffffffffffffffffffffffffff16141561133b576040517f08c379a0000000000000000000000000000000000000000000000000000000008152600401611332906131b0565b60405180910390fd5b60006113476000611f1f565b9050600060026000838152602001908152602001600020905081816000018190555033816001016000600281106113a7577f4e487b7100000000000000000000000000000000000000000000000000000000600052603260045260246000fd5b0160006101000a81548173ffffffffffffffffffffffffffffffffffffffff021916908373ffffffffffffffffffffffffffffffffffffffff1602179055508281600101600160028110611424577f4e487b7100000000000000000000000000000000000000000000000000000000600052603260045260246000fd5b0160006101000a81548173ffffffffffffffffffffffffffffffffffffffff021916908373ffffffffffffffffffffffffffffffffffffffff1602179055506000816005016000600281106114a2577f4e487b7100000000000000000000000000000000000000000000000000000000600052603260045260246000fd5b602091828204019190066101000a81548160ff021916908315150217905550600081600501600160028110611500577f4e487b7100000000000000000000000000000000000000000000000000000000600052603260045260246000fd5b602091828204019190066101000a81548160ff021916908315150217905550338160060160006101000a81548173ffffffffffffffffffffffffffffffffffffffff021916908373ffffffffffffffffffffffffffffffffffffffff1602179055506040518061012001604052806000800b60000b81526020016000800b81526020016000800b81526020016000800b81526020016000800b81526020016000800b81526020016000800b81526020016000800b81526020016000800b815250816007019060096115d2929190611f66565b5060038160080160006101000a81548160ff021916908360000b60ff1602179055506115fe6000611f2d565b600460003373ffffffffffffffffffffffffffffffffffffffff1673ffffffffffffffffffffffffffffffffffffffff168152602001908152602001600020829080600181540180825580915050600190039060005260206000200160009091909190915055600360008473ffffffffffffffffffffffffffffffffffffffff1673ffffffffffffffffffffffffffffffffffffffff168152602001908152602001600020829080600181540180825580915050600190039060005260206000200160009091909190915055505050565b6000806116dc8484610344565b90507fffffffffffffffffffffffffffffffffffffffffffffffffffffffffffffffff8160000b14156117415760006002600086815260200190815260200160002060080160006101000a81548160ff021916908360000b60ff1602179055506117f1565b60018160000b14156117855760016002600086815260200190815260200160002060080160006101000a81548160ff021916908360000b60ff1602179055506117f0565b60038160000b14156117ef57600061179c85611db5565b90506001151581151514156117e257600280600087815260200190815260200160002060080160006101000a81548160ff021916908360000b60ff1602179055506117ed565b6001925050506117f7565b505b5b5b60009150505b92915050565b6003602052816000526040600020818154811061181957600080fd5b90600052602060002001600091509150505481565b60006002600084815260200190815260200160002060010160006002811061187f577f4e487b7100000000000000000000000000000000000000000000000000000000600052603260045260246000fd5b0160009054906101000a900473ffffffffffffffffffffffffffffffffffffffff1673ffffffffffffffffffffffffffffffffffffffff163373ffffffffffffffffffffffffffffffffffffffff1614156119a257600160026000858152602001908152602001600020600501600060028110611925577f4e487b7100000000000000000000000000000000000000000000000000000000600052603260045260246000fd5b602091828204019190066101000a81548160ff0219169083151502179055508160026000858152602001908152602001600020600301600060028110611994577f4e487b7100000000000000000000000000000000000000000000000000000000600052603260045260246000fd5b018190555060019050611b19565b600260008481526020019081526020016000206001016001600281106119f1577f4e487b7100000000000000000000000000000000000000000000000000000000600052603260045260246000fd5b0160009054906101000a900473ffffffffffffffffffffffffffffffffffffffff1673ffffffffffffffffffffffffffffffffffffffff163373ffffffffffffffffffffffffffffffffffffffff161415611b1457600160026000858152602001908152602001600020600501600160028110611a97577f4e487b7100000000000000000000000000000000000000000000000000000000600052603260045260246000fd5b602091828204019190066101000a81548160ff0219169083151502179055508160026000858152602001908152602001600020600301600160028110611b06577f4e487b7100000000000000000000000000000000000000000000000000000000600052603260045260246000fd5b018190555060019050611b19565b600090505b92915050565b60026020528060005260406000206000915090508060000154908060060160009054906101000a900473ffffffffffffffffffffffffffffffffffffffff16908060080160009054906101000a900460000b905083565b611b7e612003565b600260008381526020019081526020016000206040518060e00160405290816000820154815260200160018201600280602002604051908101604052809291908260028015611c18576020028201915b8160009054906101000a900473ffffffffffffffffffffffffffffffffffffffff1673ffffffffffffffffffffffffffffffffffffffff1681526020019060010190808311611bce575b5050505050815260200160038201600280602002604051908101604052809291908260028015611c5d576020028201915b815481526020019060010190808311611c49575b5050505050815260200160058201600280602002604051908101604052809291908260028015611cc7576020028201916000905b82829054906101000a900460ff16151581526020019060010190602082600001049283019260010382029150808411611c915790505b505050505081526020016006820160009054906101000a900473ffffffffffffffffffffffffffffffffffffffff1673ffffffffffffffffffffffffffffffffffffffff1673ffffffffffffffffffffffffffffffffffffffff16815260200160078201600980602002604051908101604052809291908260098015611d88576020028201916000905b82829054906101000a900460000b60000b81526020019060010190602082600001049283019260010382029150808411611d515790505b505050505081526020016008820160009054906101000a900460000b60000b60000b815250509050919050565b6000806001905060005b6008811015611e4f576000600260008681526020019081526020016000206007018260098110611e18577f4e487b7100000000000000000000000000000000000000000000000000000000600052603260045260246000fd5b602091828204019190069054906101000a900460000b60000b1415611e3c57600091505b8080611e47906138e5565b915050611dbf565b5080915050919050565b6060600360003373ffffffffffffffffffffffffffffffffffffffff1673ffffffffffffffffffffffffffffffffffffffff168152602001908152602001600020805480602002602001604051908101604052809291908181526020018280548015611ee457602002820191906000526020600020905b815481526020019060010190808311611ed0575b5050505050905090565b60046020528160005260406000208181548110611f0a57600080fd5b90600052602060002001600091509150505481565b600081600001549050919050565b6001816000016000828254019250508190555050565b604051806101200160405280600990602082028036833780820191505090505090565b826009601f01602090048101928215611ff25791602002820160005b83821115611fc357835183826101000a81548160ff021916908360000b60ff1602179055509260200192600101602081600001049283019260010302611f82565b8015611ff05782816101000a81549060ff0219169055600101602081600001049283019260010302611fc3565b505b509050611fff9190612070565b5090565b6040518060e001604052806000815260200161201d61208d565b815260200161202a6120af565b81526020016120376120d1565b8152602001600073ffffffffffffffffffffffffffffffffffffffff168152602001612061611f43565b81526020016000800b81525090565b5b80821115612089576000816000905550600101612071565b5090565b6040518060400160405280600290602082028036833780820191505090505090565b6040518060400160405280600290602082028036833780820191505090505090565b6040518060400160405280600290602082028036833780820191505090505090565b600061210661210184613336565b613311565b9050808285602086028201111561211c57600080fd5b60005b8581101561214c57816121328882612246565b84526020840193506020830192505060018101905061211f565b5050509392505050565b60006121696121648461335c565b613311565b9050808285602086028201111561217f57600080fd5b60005b858110156121af57816121958882612246565b845260208401935060208301925050600181019050612182565b5050509392505050565b6000813590506121c881613c56565b92915050565b600082601f8301126121df57600080fd5b60086121ec8482856120f3565b91505092915050565b600082601f83011261220657600080fd5b6009612213848285612156565b91505092915050565b60008151905061222b81613c6d565b92915050565b60008135905061224081613c84565b92915050565b60008135905061225581613c9b565b92915050565b60008135905061226a81613cb2565b92915050565b60006020828403121561228257600080fd5b6000612290848285016121b9565b91505092915050565b600080604083850312156122ac57600080fd5b60006122ba858286016121b9565b92505060206122cb85828601612246565b9150509250929050565b6000602082840312156122e757600080fd5b60006122f58482850161221c565b91505092915050565b60006020828403121561231057600080fd5b600061231e84828501612246565b91505092915050565b6000806040838503121561233a57600080fd5b600061234885828601612246565b925050602061235985828601612231565b9150509250929050565b6000806040838503121561237657600080fd5b600061238485828601612246565b925050602061239585828601612246565b9150509250929050565b60008060008061026085870312156123b657600080fd5b60006123c48782880161225b565b94505060206123d587828801612246565b93505060406123e6878288016121ce565b9250506101406123f8878288016121f5565b91505092959194509250565b6000612410838361247c565b60208301905092915050565b60006124288383612e14565b60408301905092915050565b60006124408383612f77565b60208301905092915050565b60006124588383612f95565b60208301905092915050565b600061247083836130f3565b60208301905092915050565b61248581613512565b82525050565b61249481613512565b82525050565b6124a3816133d8565b6124ad818461348b565b92506124b882613382565b8060005b838110156124e95781516124d08782612404565b96506124db83613430565b9250506001810190506124bc565b505050505050565b6124fa816133e3565b6125048184613496565b925061250f8261338c565b8060005b83811015612540578151612527878261241c565b96506125328361343d565b925050600181019050612513565b505050505050565b612551816133ee565b61255b81846134a1565b925061256682613396565b8060005b8381101561259757815161257e8782612434565b96506125898361344a565b92505060018101905061256a565b505050505050565b6125a8816133f9565b6125b281846134ac565b92506125bd826133a0565b8060005b838110156125ee5781516125d5878261244c565b96506125e083613457565b9250506001810190506125c1565b505050505050565b6125ff81613404565b61260981846134b7565b925082612615836133aa565b60008015612941575b836001602003820110156129405781546126408761263b83613574565b612f95565b6020870196506126588761265383613692565b612f95565b6020870196506126708761266b836137b0565b612f95565b60208701965061268887612683836137fe565b612f95565b6020870196506126a08761269b83613818565b612f95565b6020870196506126b8876126b383613832565b612f95565b6020870196506126d0876126cb8361384c565b612f95565b6020870196506126e8876126e383613866565b612f95565b602087019650612700876126fb83613880565b612f95565b602087019650612718876127138361389a565b612f95565b6020870196506127308761272b8361358e565b612f95565b60208701965061274887612743836135a8565b612f95565b6020870196506127608761275b836135c2565b612f95565b60208701965061277887612773836135dc565b612f95565b6020870196506127908761278b836135f6565b612f95565b6020870196506127a8876127a383613610565b612f95565b6020870196506127c0876127bb8361362a565b612f95565b6020870196506127d8876127d383613644565b612f95565b6020870196506127f0876127eb8361365e565b612f95565b6020870196506128088761280383613678565b612f95565b6020870196506128208761281b836136ac565b612f95565b60208701965061283887612833836136c6565b612f95565b6020870196506128508761284b836136e0565b612f95565b60208701965061286887612863836136fa565b612f95565b6020870196506128808761287b83613714565b612f95565b602087019650612898876128938361372e565b612f95565b6020870196506128b0876128ab83613748565b612f95565b6020870196506128c8876128c383613762565b612f95565b6020870196506128e0876128db8361377c565b612f95565b6020870196506128f8876128f383613796565b612f95565b6020870196506129108761290b836137ca565b612f95565b60208701965061292887612923836137e4565b612f95565b6020870196506001830192505060208101905061261e565b5b600115612e0c578154600115612970576129638761295e83613574565b612f95565b6020870196506001820191505b600115612996576129898761298483613692565b612f95565b6020870196506001820191505b6001156129bc576129af876129aa836137b0565b612f95565b6020870196506001820191505b6001156129e2576129d5876129d0836137fe565b612f95565b6020870196506001820191505b600115612a08576129fb876129f683613818565b612f95565b6020870196506001820191505b600115612a2e57612a2187612a1c83613832565b612f95565b6020870196506001820191505b600115612a5457612a4787612a428361384c565b612f95565b6020870196506001820191505b600115612a7a57612a6d87612a6883613866565b612f95565b6020870196506001820191505b600115612aa057612a9387612a8e83613880565b612f95565b6020870196506001820191505b600015612ac657612ab987612ab48361389a565b612f95565b6020870196506001820191505b600015612aec57612adf87612ada8361358e565b612f95565b6020870196506001820191505b600015612b1257612b0587612b00836135a8565b612f95565b6020870196506001820191505b600015612b3857612b2b87612b26836135c2565b612f95565b6020870196506001820191505b600015612b5e57612b5187612b4c836135dc565b612f95565b6020870196506001820191505b600015612b8457612b7787612b72836135f6565b612f95565b6020870196506001820191505b600015612baa57612b9d87612b9883613610565b612f95565b6020870196506001820191505b600015612bd057612bc387612bbe8361362a565b612f95565b6020870196506001820191505b600015612bf657612be987612be483613644565b612f95565b6020870196506001820191505b600015612c1c57612c0f87612c0a8361365e565b612f95565b6020870196506001820191505b600015612c4257612c3587612c3083613678565b612f95565b6020870196506001820191505b600015612c6857612c5b87612c56836136ac565b612f95565b6020870196506001820191505b600015612c8e57612c8187612c7c836136c6565b612f95565b6020870196506001820191505b600015612cb457612ca787612ca2836136e0565b612f95565b6020870196506001820191505b600015612cda57612ccd87612cc8836136fa565b612f95565b6020870196506001820191505b600015612d0057612cf387612cee83613714565b612f95565b6020870196506001820191505b600015612d2657612d1987612d148361372e565b612f95565b6020870196506001820191505b600015612d4c57612d3f87612d3a83613748565b612f95565b6020870196506001820191505b600015612d7257612d6587612d6083613762565b612f95565b6020870196506001820191505b600015612d9857612d8b87612d868361377c565b612f95565b6020870196506001820191505b600015612dbe57612db187612dac83613796565b612f95565b6020870196506001820191505b600015612de457612dd787612dd2836137ca565b612f95565b6020870196506001820191505b600015612e0a57612dfd87612df8836137e4565b612f95565b6020870196506001820191505b505b505050505050565b612e1d8161340f565b612e2781846134c2565b9250612e32826133b4565b8060005b83811015612e63578151612e4a8782612464565b9650612e5583613464565b925050600181019050612e36565b505050505050565b612e748161340f565b612e7e81846134cd565b9250612e89826133b4565b8060005b83811015612eba578151612ea18782612464565b9650612eac83613464565b925050600181019050612e8d565b505050505050565b612ecb8161341a565b612ed581846134d8565b9250612ee0826133be565b8060005b83811015612f11578151612ef88782612464565b9650612f0383613471565b925050600181019050612ee4565b505050505050565b6000612f2482613425565b612f2e81856134e3565b9350612f39836133c8565b8060005b83811015612f6a578151612f518882612464565b9750612f5c8361347e565b925050600181019050612f3d565b5085935050505092915050565b612f8081613524565b82525050565b612f8f81613524565b82525050565b612f9e81613530565b82525050565b612fad81613530565b82525050565b6000612fc06019836134f4565b9150612fcb82613b3d565b602082019050919050565b6000612fe36013836134f4565b9150612fee82613b66565b602082019050919050565b6000613006602a836134f4565b915061301182613b8f565b604082019050919050565b6000613029600d836134f4565b915061303482613bde565b602082019050919050565b600061304c602b836134f4565b915061305782613c07565b604082019050919050565b6102408201600082015161307960008501826130f3565b50602082015161308c602085018261249a565b50604082015161309f6060850182612e14565b5060608201516130b260a0850182612548565b5060808201516130c560e085018261247c565b5060a08201516130d961010085018261259f565b5060c08201516130ed610220850182612f95565b50505050565b6130fc8161355d565b82525050565b61310b8161355d565b82525050565b6000610220820190506131276000830187612e6b565b61313460408301866124f1565b61314160c0830185612e6b565b61314f610100830184612ec2565b95945050505050565b600060208201905081810360008301526131728184612f19565b905092915050565b600060208201905061318f6000830184612f86565b92915050565b60006020820190506131aa6000830184612fa4565b92915050565b600060208201905081810360008301526131c981612fb3565b9050919050565b600060208201905081810360008301526131e981612fd6565b9050919050565b6000602082019050818103600083015261320981612ff9565b9050919050565b600060208201905081810360008301526132298161301c565b9050919050565b600060208201905081810360008301526132498161303f565b9050919050565b6000610240820190506132666000830184613062565b92915050565b60006020820190506132816000830184613102565b92915050565b600060608201905061329c6000830186613102565b6132a9602083018561248b565b6132b66040830184612fa4565b949350505050565b6000610140820190506132d46000830185613102565b6132e160208301846125f6565b9392505050565b60006040820190506132fd6000830185613102565b61330a6020830184612fa4565b9392505050565b600061331b61332c565b905061332782826138b4565b919050565b6000604051905090565b600067ffffffffffffffff8211156133515761335061395d565b5b602082029050919050565b600067ffffffffffffffff8211156133775761337661395d565b5b602082029050919050565b6000819050919050565b6000819050919050565b6000819050919050565b6000819050919050565b6000819050919050565b6000819050919050565b6000819050919050565b6000819050602082019050919050565b600060029050919050565b600060029050919050565b600060029050919050565b600060099050919050565b600060099050919050565b600060029050919050565b600060099050919050565b600081519050919050565b6000602082019050919050565b6000602082019050919050565b6000602082019050919050565b6000602082019050919050565b6000602082019050919050565b6000602082019050919050565b6000602082019050919050565b600081905092915050565b600081905092915050565b600081905092915050565b600081905092915050565b600081905092915050565b600081905092915050565b600081905092915050565b600081905092915050565b600082825260208201905092915050565b600082825260208201905092915050565b60008160000b9050919050565b600061351d8261353d565b9050919050565b60008115159050919050565b60008160000b9050919050565b600073ffffffffffffffffffffffffffffffffffffffff82169050919050565b6000819050919050565b600060ff82169050919050565b60006135876135828361399d565b613505565b9050919050565b60006135a161359c83613b09565b613505565b9050919050565b60006135bb6135b683613b16565b613505565b9050919050565b60006135d56135d083613b30565b613505565b9050919050565b60006135ef6135ea836139aa565b613505565b9050919050565b6000613609613604836139b7565b613505565b9050919050565b600061362361361e836139c4565b613505565b9050919050565b600061363d613638836139d1565b613505565b9050919050565b6000613657613652836139de565b613505565b9050919050565b600061367161366c836139eb565b613505565b9050919050565b600061368b613686836139f8565b613505565b9050919050565b60006136a56136a083613b23565b613505565b9050919050565b60006136bf6136ba83613a05565b613505565b9050919050565b60006136d96136d483613a12565b613505565b9050919050565b60006136f36136ee83613a2c565b613505565b9050919050565b600061370d61370883613a39565b613505565b9050919050565b600061372761372283613a46565b613505565b9050919050565b600061374161373c83613a53565b613505565b9050919050565b600061375b61375683613a60565b613505565b9050919050565b600061377561377083613a6d565b613505565b9050919050565b600061378f61378a83613a7a565b613505565b9050919050565b60006137a96137a483613a87565b613505565b9050919050565b60006137c36137be83613a1f565b613505565b9050919050565b60006137dd6137d883613a94565b613505565b9050919050565b60006137f76137f283613aa1565b613505565b9050919050565b600061381161380c83613aae565b613505565b9050919050565b600061382b61382683613abb565b613505565b9050919050565b600061384561384083613ac8565b613505565b9050919050565b600061385f61385a83613ad5565b613505565b9050919050565b600061387961387483613ae2565b613505565b9050919050565b600061389361388e83613aef565b613505565b9050919050565b60006138ad6138a883613afc565b613505565b9050919050565b6138bd8261398c565b810181811067ffffffffffffffff821117156138dc576138db61395d565b5b80604052505050565b60006138f08261355d565b91507fffffffffffffffffffffffffffffffffffffffffffffffffffffffffffffffff8214156139235761392261392e565b5b600182019050919050565b7f4e487b7100000000000000000000000000000000000000000000000000000000600052601160045260246000fd5b7f4e487b7100000000000000000000000000000000000000000000000000000000600052604160045260246000fd5b6000601f19601f8301169050919050565b60008160001c9050919050565b60008160681c9050919050565b60008160701c9050919050565b60008160781c9050919050565b60008160801c9050919050565b60008160881c9050919050565b60008160901c9050919050565b60008160981c9050919050565b60008160a01c9050919050565b60008160a81c9050919050565b60008160101c9050919050565b60008160b01c9050919050565b60008160b81c9050919050565b60008160c01c9050919050565b60008160c81c9050919050565b60008160d01c9050919050565b60008160d81c9050919050565b60008160e01c9050919050565b60008160e81c9050919050565b60008160f01c9050919050565b60008160f81c9050919050565b60008160181c9050919050565b60008160201c9050919050565b60008160281c9050919050565b60008160301c9050919050565b60008160381c9050919050565b60008160401c9050919050565b60008160481c9050919050565b60008160501c9050919050565b60008160581c9050919050565b60008160081c9050919050565b60008160601c9050919050565b7f43616e6e6f74206368616c6c656e676520796f757273656c6600000000000000600082015250565b7f49742773206e6f7420796f7572207475726e2100000000000000000000000000600082015250565b7f47616d6520686173206e6f74206265656e20766572696669656420627920626f60008201527f746820706c617965727300000000000000000000000000000000000000000000602082015250565b7f696e76616c69642070726f6f6600000000000000000000000000000000000000600082015250565b7f47616d6520686173206e6f74206265656e20696e69746961746564206f72206960008201527f732066696e6e6973686564000000000000000000000000000000000000000000602082015250565b613c5f81613512565b8114613c6a57600080fd5b50565b613c7681613524565b8114613c8157600080fd5b50565b613c8d81613530565b8114613c9857600080fd5b50565b613ca48161355d565b8114613caf57600080fd5b50565b613cbb81613567565b8114613cc657600080fd5b5056fea264697066735822122096b8ed90cb92901f1883196487d5c24ee42133a7e00384b15d981995ac7b3c8064736f6c63430008040033608060405234801561001057600080fd5b50612793806100206000396000f3fe608060405234801561001057600080fd5b506004361061002b5760003560e01c8063c542c93b14610030575b600080fd5b61004a60048036038101906100459190612144565b610060565b604051610057919061228a565b60405180910390f35b600061006a611e4f565b6040518060400160405280876000600281106100af577f4e487b7100000000000000000000000000000000000000000000000000000000600052603260045260246000fd5b60200201518152602001876001600281106100f3577f4e487b7100000000000000000000000000000000000000000000000000000000600052603260045260246000fd5b602002015181525081600001819052506040518060400160405280604051806040016040528088600060028110610153577f4e487b7100000000000000000000000000000000000000000000000000000000600052603260045260246000fd5b6020020151600060028110610191577f4e487b7100000000000000000000000000000000000000000000000000000000600052603260045260246000fd5b60200201518152602001886000600281106101d5577f4e487b7100000000000000000000000000000000000000000000000000000000600052603260045260246000fd5b6020020151600160028110610213577f4e487b7100000000000000000000000000000000000000000000000000000000600052603260045260246000fd5b60200201518152508152602001604051806040016040528088600160028110610265577f4e487b7100000000000000000000000000000000000000000000000000000000600052603260045260246000fd5b60200201516000600281106102a3577f4e487b7100000000000000000000000000000000000000000000000000000000600052603260045260246000fd5b60200201518152602001886001600281106102e7577f4e487b7100000000000000000000000000000000000000000000000000000000600052603260045260246000fd5b6020020151600160028110610325577f4e487b7100000000000000000000000000000000000000000000000000000000600052603260045260246000fd5b6020020151815250815250816020018190525060405180604001604052808560006002811061037d577f4e487b7100000000000000000000000000000000000000000000000000000000600052603260045260246000fd5b60200201518152602001856001600281106103c1577f4e487b7100000000000000000000000000000000000000000000000000000000600052603260045260246000fd5b602002015181525081604001819052506000600967ffffffffffffffff811115610414577f4e487b7100000000000000000000000000000000000000000000000000000000600052604160045260246000fd5b6040519080825280602002602001820160405280156104425781602001602082028036833780820191505090505b50905060005b60098110156104e75784816009811061048a577f4e487b7100000000000000000000000000000000000000000000000000000000600052603260045260246000fd5b60200201518282815181106104c8577f4e487b7100000000000000000000000000000000000000000000000000000000600052603260045260246000fd5b60200260200101818152505080806104df90612538565b915050610448565b5060006104f48284610514565b14156105055760019250505061050c565b6000925050505b949350505050565b6000807f30644e72e131a029b85045b68181585d2833e84879b9709143e1f593f00000019050600061054461079f565b90508060800151516001865161055a919061240d565b1461059a576040517f08c379a0000000000000000000000000000000000000000000000000000000008152600401610591906122a5565b60405180910390fd5b60006040518060400160405280600081526020016000815250905060005b86518110156106fb57838782815181106105fb577f4e487b7100000000000000000000000000000000000000000000000000000000600052603260045260246000fd5b602002602001015110610643576040517f08c379a000000000000000000000000000000000000000000000000000000000815260040161063a906122e5565b60405180910390fd5b6106e6826106e1856080015160018561065c919061240d565b81518110610693577f4e487b7100000000000000000000000000000000000000000000000000000000600052603260045260246000fd5b60200260200101518a85815181106106d4577f4e487b7100000000000000000000000000000000000000000000000000000000600052603260045260246000fd5b6020026020010151611104565b611253565b915080806106f390612538565b9150506105b8565b5061074b81836080015160008151811061073e577f4e487b7100000000000000000000000000000000000000000000000000000000600052603260045260246000fd5b6020026020010151611253565b905061078161075d86600001516113ee565b8660200151846000015185602001518587604001518b604001518960600151611493565b6107915760019350505050610799565b600093505050505b92915050565b6107a7611e82565b60405180604001604052807f2b6d4650a4a9984dd255a254717ce985d4a2625229fa63ba1268f0c8f97af9eb81526020017f22f3991d50b793a3660fa6ad8ce156ac3eb478b77e8b0b74ffdf4be654c5610d8152508160000181905250604051806040016040528060405180604001604052807f0e27d2438600b41133385b48fc242556e81b44ab4d0ee9a3376da7315876c2ba81526020017f074f8374c9ddae90032fb99308af80e087027dac3ec8f203bd7ee80d8b54bb44815250815260200160405180604001604052807f218374fdb8b41d2b36cdf8b50c9a925631381f50fa6b9ad5d281a172ad21293181526020017f0b04b6269c1b07424f6a6985dfab0cefd704a35cae92e15048f533f4c5da412b8152508152508160200181905250604051806040016040528060405180604001604052807f198e9393920d483a7260bfb731fb5d25f1aa493335a9e71297e485b7aef312c281526020017f1800deef121f1e76426a00665e5c4479674322d4f75edadd46debd5cd992f6ed815250815260200160405180604001604052807f090689d0585ff075ec9e99ad690c3395bc4b313370b38ef355acdadcd122975b81526020017f12c85ea5db8c6deb4aab71808dcb408fe3d1e7690c43d37b4ce6cc0166fa7daa8152508152508160400181905250604051806040016040528060405180604001604052807f2ecfc70875cc3e16e661354a0c7b8d2016d1f4093cb6b30ef164c5d10f91ebfd81526020017f052757557db49bfeda9f535bc3ef8e5a51fd2fbcb97bef2fd74abcd4d3f94dcd815250815260200160405180604001604052807f043f4bb541e209469fdd87ced06abb9a842aabeb5162cdb47368d5e188afe82c81526020017f02206ab59a572fd82aa7c2ce27818d40c1bf15e65907386f6946934487eaf0e68152508152508160600181905250600a67ffffffffffffffff811115610a94577f4e487b7100000000000000000000000000000000000000000000000000000000600052604160045260246000fd5b604051908082528060200260200182016040528015610acd57816020015b610aba611ec9565b815260200190600190039081610ab25790505b50816080018190525060405180604001604052807f142c78c1872f4617d01ec94d85637f756aae5186aa07bf83350ca811e24fab0881526020017f1775e02497018fd1323d4717b3a7c4db0784a2e6b298797b87a333f0ef155fe88152508160800151600081518110610b69577f4e487b7100000000000000000000000000000000000000000000000000000000600052603260045260246000fd5b602002602001018190525060405180604001604052807f18931eb974f2d592a2489a0fdd33834374f43ade0489d6e4932d25cbbd580ff081526020017f10cef7581f7d215b2987facbe6b9032ffb50ddf04b14f76eb1c237fe37333b5a8152508160800151600181518110610c07577f4e487b7100000000000000000000000000000000000000000000000000000000600052603260045260246000fd5b602002602001018190525060405180604001604052807e9cfb84219d0a9d60deac0948acaaa7cd0590f1fbea5d3bc1bbfd1f7b916ec281526020017f04451843d512fc67ff784bf521f9676cee033494748813642a7039e34fbbfbde8152508160800151600281518110610ca4577f4e487b7100000000000000000000000000000000000000000000000000000000600052603260045260246000fd5b602002602001018190525060405180604001604052807f1d5e61e68c3dcb9df373f16a3f108112da11bd1a8ded6648cb084a733d3065e081526020017f182587e862b2ed38da86aa5ad10be4a5dd326dccd0eb9954cdb996d699286b128152508160800151600381518110610d42577f4e487b7100000000000000000000000000000000000000000000000000000000600052603260045260246000fd5b602002602001018190525060405180604001604052807f2887f5bdec83a553e4c31535908609972af9fbeaae139109f458469c1bf953f181526020017f07ea5fe4e6b8fadd1f722fcb8258de8b703852f3a3af5773213ad632a7427c378152508160800151600481518110610de0577f4e487b7100000000000000000000000000000000000000000000000000000000600052603260045260246000fd5b602002602001018190525060405180604001604052807f293ed2b505a4ab11ee3a798b1cf42dfd604edb3adc76ec7e0c44cd45d2fba2a281526020017f0c16f1798ee05daf97977990b4075230b4417dd953c9012214aeaceab34653da8152508160800151600581518110610e7e577f4e487b7100000000000000000000000000000000000000000000000000000000600052603260045260246000fd5b602002602001018190525060405180604001604052807f1a49007a66f6a859f503913ba47bf0b05efc2876fa4216d119735fe16338c94781526020017f291d3213dae6f3bb9e229015c605191d1b519247fbfbeb5139926f35a35265588152508160800151600681518110610f1c577f4e487b7100000000000000000000000000000000000000000000000000000000600052603260045260246000fd5b602002602001018190525060405180604001604052807f2f35430fdf2d5877f3712f38f44c17b16a183dd380b10c125c2b1264fa2ced4781526020017f0eff68e4b30004957e1c0126d69690e1b9be167b0eb59000de36969be5072fd48152508160800151600781518110610fba577f4e487b7100000000000000000000000000000000000000000000000000000000600052603260045260246000fd5b602002602001018190525060405180604001604052807f0c0484c39f47930a384ff089805c17ccb994b87b82f776ccb27afc17dbd9fa5781526020017f13b3536227d4271de936c0ad3c486634b9632da0ffe739ffb6f4e241cb42659b8152508160800151600881518110611058577f4e487b7100000000000000000000000000000000000000000000000000000000600052603260045260246000fd5b602002602001018190525060405180604001604052807f1c29761dbd950b1b6d45c24ef06575c94aebd03b0e50d7c52fb54dcf2775358781526020017f2e1cd4316eda278c095094b8a2773f8558b34f87cdf63c79b4f689c435013a6781525081608001516009815181106110f6577f4e487b7100000000000000000000000000000000000000000000000000000000600052603260045260246000fd5b602002602001018190525090565b61110c611ec9565b611114611ee3565b836000015181600060038110611153577f4e487b7100000000000000000000000000000000000000000000000000000000600052603260045260246000fd5b60200201818152505083602001518160016003811061119b577f4e487b7100000000000000000000000000000000000000000000000000000000600052603260045260246000fd5b60200201818152505082816002600381106111df577f4e487b7100000000000000000000000000000000000000000000000000000000600052603260045260246000fd5b602002018181525050600060608360808460076107d05a03fa905080600081146112085761120a565bfe5b508061124b576040517f08c379a0000000000000000000000000000000000000000000000000000000008152600401611242906122c5565b60405180910390fd5b505092915050565b61125b611ec9565b611263611f05565b8360000151816000600481106112a2577f4e487b7100000000000000000000000000000000000000000000000000000000600052603260045260246000fd5b6020020181815250508360200151816001600481106112ea577f4e487b7100000000000000000000000000000000000000000000000000000000600052603260045260246000fd5b602002018181525050826000015181600260048110611332577f4e487b7100000000000000000000000000000000000000000000000000000000600052603260045260246000fd5b60200201818152505082602001518160036004811061137a577f4e487b7100000000000000000000000000000000000000000000000000000000600052603260045260246000fd5b602002018181525050600060608360c08460066107d05a03fa905080600081146113a3576113a5565bfe5b50806113e6576040517f08c379a00000000000000000000000000000000000000000000000000000000081526004016113dd90612325565b60405180910390fd5b505092915050565b6113f6611ec9565b60007f30644e72e131a029b85045b68181585d97816a916871ca8d3c208c16d87cfd47905060008360000151148015611433575060008360200151145b1561145757604051806040016040528060008152602001600081525091505061148e565b60405180604001604052808460000151815260200182856020015161147c9190612581565b8361148791906124bd565b8152509150505b919050565b600080600467ffffffffffffffff8111156114d7577f4e487b7100000000000000000000000000000000000000000000000000000000600052604160045260246000fd5b60405190808252806020026020018201604052801561151057816020015b6114fd611ec9565b8152602001906001900390816114f55790505b5090506000600467ffffffffffffffff811115611556577f4e487b7100000000000000000000000000000000000000000000000000000000600052604160045260246000fd5b60405190808252806020026020018201604052801561158f57816020015b61157c611f27565b8152602001906001900390816115745790505b5090508a826000815181106115cd577f4e487b7100000000000000000000000000000000000000000000000000000000600052603260045260246000fd5b60200260200101819052508882600181518110611613577f4e487b7100000000000000000000000000000000000000000000000000000000600052603260045260246000fd5b60200260200101819052508682600281518110611659577f4e487b7100000000000000000000000000000000000000000000000000000000600052603260045260246000fd5b6020026020010181905250848260038151811061169f577f4e487b7100000000000000000000000000000000000000000000000000000000600052603260045260246000fd5b602002602001018190525089816000815181106116e5577f4e487b7100000000000000000000000000000000000000000000000000000000600052603260045260246000fd5b6020026020010181905250878160018151811061172b577f4e487b7100000000000000000000000000000000000000000000000000000000600052603260045260246000fd5b60200260200101819052508581600281518110611771577f4e487b7100000000000000000000000000000000000000000000000000000000600052603260045260246000fd5b602002602001018190525083816003815181106117b7577f4e487b7100000000000000000000000000000000000000000000000000000000600052603260045260246000fd5b60200260200101819052506117cc82826117dc565b9250505098975050505050505050565b60008151835114611822576040517f08c379a000000000000000000000000000000000000000000000000000000000815260040161181990612305565b60405180910390fd5b60008351905060006006826118379190612463565b905060008167ffffffffffffffff81111561187b577f4e487b7100000000000000000000000000000000000000000000000000000000600052604160045260246000fd5b6040519080825280602002602001820160405280156118a95781602001602082028036833780820191505090505b50905060005b83811015611d8e578681815181106118f0577f4e487b7100000000000000000000000000000000000000000000000000000000600052603260045260246000fd5b60200260200101516000015182600060068461190c9190612463565b611916919061240d565b8151811061194d577f4e487b7100000000000000000000000000000000000000000000000000000000600052603260045260246000fd5b602002602001018181525050868181518110611992577f4e487b7100000000000000000000000000000000000000000000000000000000600052603260045260246000fd5b6020026020010151602001518260016006846119ae9190612463565b6119b8919061240d565b815181106119ef577f4e487b7100000000000000000000000000000000000000000000000000000000600052603260045260246000fd5b602002602001018181525050858181518110611a34577f4e487b7100000000000000000000000000000000000000000000000000000000600052603260045260246000fd5b602002602001015160000151600060028110611a79577f4e487b7100000000000000000000000000000000000000000000000000000000600052603260045260246000fd5b6020020151826002600684611a8e9190612463565b611a98919061240d565b81518110611acf577f4e487b7100000000000000000000000000000000000000000000000000000000600052603260045260246000fd5b602002602001018181525050858181518110611b14577f4e487b7100000000000000000000000000000000000000000000000000000000600052603260045260246000fd5b602002602001015160000151600160028110611b59577f4e487b7100000000000000000000000000000000000000000000000000000000600052603260045260246000fd5b6020020151826003600684611b6e9190612463565b611b78919061240d565b81518110611baf577f4e487b7100000000000000000000000000000000000000000000000000000000600052603260045260246000fd5b602002602001018181525050858181518110611bf4577f4e487b7100000000000000000000000000000000000000000000000000000000600052603260045260246000fd5b602002602001015160200151600060028110611c39577f4e487b7100000000000000000000000000000000000000000000000000000000600052603260045260246000fd5b6020020151826004600684611c4e9190612463565b611c58919061240d565b81518110611c8f577f4e487b7100000000000000000000000000000000000000000000000000000000600052603260045260246000fd5b602002602001018181525050858181518110611cd4577f4e487b7100000000000000000000000000000000000000000000000000000000600052603260045260246000fd5b602002602001015160200151600160028110611d19577f4e487b7100000000000000000000000000000000000000000000000000000000600052603260045260246000fd5b6020020151826005600684611d2e9190612463565b611d38919061240d565b81518110611d6f577f4e487b7100000000000000000000000000000000000000000000000000000000600052603260045260246000fd5b6020026020010181815250508080611d8690612538565b9150506118af565b50611d97611f4d565b6000602082602086026020860160086107d05a03fa90508060008114611dbc57611dbe565bfe5b5080611dff576040517f08c379a0000000000000000000000000000000000000000000000000000000008152600401611df690612345565b60405180910390fd5b600082600060018110611e3b577f4e487b7100000000000000000000000000000000000000000000000000000000600052603260045260246000fd5b602002015114159550505050505092915050565b6040518060600160405280611e62611ec9565b8152602001611e6f611f27565b8152602001611e7c611ec9565b81525090565b6040518060a00160405280611e95611ec9565b8152602001611ea2611f27565b8152602001611eaf611f27565b8152602001611ebc611f27565b8152602001606081525090565b604051806040016040528060008152602001600081525090565b6040518060600160405280600390602082028036833780820191505090505090565b6040518060800160405280600490602082028036833780820191505090505090565b6040518060400160405280611f3a611f6f565b8152602001611f47611f6f565b81525090565b6040518060200160405280600190602082028036833780820191505090505090565b6040518060400160405280600290602082028036833780820191505090505090565b6000611fa4611f9f8461238a565b612365565b90508082856040860282011115611fba57600080fd5b60005b85811015611fea5781611fd088826120e1565b845260208401935060408301925050600181019050611fbd565b5050509392505050565b6000612007612002846123b0565b612365565b9050808285602086028201111561201d57600080fd5b60005b8581101561204d5781612033888261212f565b845260208401935060208301925050600181019050612020565b5050509392505050565b600061206a612065846123d6565b612365565b9050808285602086028201111561208057600080fd5b60005b858110156120b05781612096888261212f565b845260208401935060208301925050600181019050612083565b5050509392505050565b600082601f8301126120cb57600080fd5b60026120d8848285611f91565b91505092915050565b600082601f8301126120f257600080fd5b60026120ff848285611ff4565b91505092915050565b600082601f83011261211957600080fd5b6009612126848285612057565b91505092915050565b60008135905061213e81612746565b92915050565b600080600080610220858703121561215b57600080fd5b6000612169878288016120e1565b945050604061217a878288016120ba565b93505060c061218b878288016120e1565b92505061010061219d87828801612108565b91505092959194509250565b6121b2816124f1565b82525050565b60006121c56012836123fc565b91506121d082612650565b602082019050919050565b60006121e86012836123fc565b91506121f382612679565b602082019050919050565b600061220b601f836123fc565b9150612216826126a2565b602082019050919050565b600061222e6016836123fc565b9150612239826126cb565b602082019050919050565b60006122516012836123fc565b915061225c826126f4565b602082019050919050565b60006122746015836123fc565b915061227f8261271d565b602082019050919050565b600060208201905061229f60008301846121a9565b92915050565b600060208201905081810360008301526122be816121b8565b9050919050565b600060208201905081810360008301526122de816121db565b9050919050565b600060208201905081810360008301526122fe816121fe565b9050919050565b6000602082019050818103600083015261231e81612221565b9050919050565b6000602082019050818103600083015261233e81612244565b9050919050565b6000602082019050818103600083015261235e81612267565b9050919050565b600061236f612380565b905061237b8282612507565b919050565b6000604051905090565b600067ffffffffffffffff8211156123a5576123a4612610565b5b602082029050919050565b600067ffffffffffffffff8211156123cb576123ca612610565b5b602082029050919050565b600067ffffffffffffffff8211156123f1576123f0612610565b5b602082029050919050565b600082825260208201905092915050565b6000612418826124fd565b9150612423836124fd565b9250827fffffffffffffffffffffffffffffffffffffffffffffffffffffffffffffffff03821115612458576124576125b2565b5b828201905092915050565b600061246e826124fd565b9150612479836124fd565b9250817fffffffffffffffffffffffffffffffffffffffffffffffffffffffffffffffff04831182151516156124b2576124b16125b2565b5b828202905092915050565b60006124c8826124fd565b91506124d3836124fd565b9250828210156124e6576124e56125b2565b5b828203905092915050565b60008115159050919050565b6000819050919050565b6125108261263f565b810181811067ffffffffffffffff8211171561252f5761252e612610565b5b80604052505050565b6000612543826124fd565b91507fffffffffffffffffffffffffffffffffffffffffffffffffffffffffffffffff821415612576576125756125b2565b5b600182019050919050565b600061258c826124fd565b9150612597836124fd565b9250826125a7576125a66125e1565b5b828206905092915050565b7f4e487b7100000000000000000000000000000000000000000000000000000000600052601160045260246000fd5b7f4e487b7100000000000000000000000000000000000000000000000000000000600052601260045260246000fd5b7f4e487b7100000000000000000000000000000000000000000000000000000000600052604160045260246000fd5b6000601f19601f8301169050919050565b7f76657269666965722d6261642d696e7075740000000000000000000000000000600082015250565b7f70616972696e672d6d756c2d6661696c65640000000000000000000000000000600082015250565b7f76657269666965722d6774652d736e61726b2d7363616c61722d6669656c6400600082015250565b7f70616972696e672d6c656e677468732d6661696c656400000000000000000000600082015250565b7f70616972696e672d6164642d6661696c65640000000000000000000000000000600082015250565b7f70616972696e672d6f70636f64652d6661696c65640000000000000000000000600082015250565b61274f816124fd565b811461275a57600080fd5b5056fea26469706673582212200e6e873c7b970a31e1fcc2c2a94db9a56566f1bf17bde2cd9ac67c451b61a15c64736f6c63430008040033",
  "linkReferences": {},
  "deployedLinkReferences": {}
}