{
  "_format": "hh-sol-artifact-1",
  "contractName": "Game",
  "sourceName": "contracts/Game.sol",
  "abi": [
    {
      "inputs": [],
      "stateMutability": "nonpayable",
      "type": "constructor"
    },
    {
      "anonymous": false,
      "inputs": [
        {
          "indexed": false,
          "internalType": "uint256",
          "name": "_gameId",
          "type": "uint256"
        },
        {
          "indexed": false,
          "internalType": "int8",
          "name": "winner",
          "type": "int8"
        }
      ],
      "name": "GameDone",
      "type": "event"
    },
    {
      "inputs": [
        {
          "internalType": "uint256",
          "name": "",
          "type": "uint256"
        }
      ],
      "name": "allGames",
      "outputs": [
        {
          "internalType": "uint256",
          "name": "gameId",
          "type": "uint256"
        },
        {
          "internalType": "address",
          "name": "turn",
          "type": "address"
        },
        {
          "internalType": "int8",
          "name": "state",
          "type": "int8"
        }
      ],
      "stateMutability": "view",
      "type": "function"
    },
    {
      "inputs": [
        {
          "internalType": "uint256",
          "name": "_gameId",
          "type": "uint256"
        }
      ],
      "name": "checkIfBoardIsFilled",
      "outputs": [
        {
          "internalType": "bool",
          "name": "isTie",
          "type": "bool"
        }
      ],
      "stateMutability": "view",
      "type": "function"
    },
    {
      "inputs": [
        {
          "internalType": "uint256",
          "name": "_gameId",
          "type": "uint256"
        },
        {
          "internalType": "int8",
          "name": "_mark",
          "type": "int8"
        }
      ],
      "name": "checkWinner",
      "outputs": [
        {
          "internalType": "int8",
          "name": "state",
          "type": "int8"
        }
      ],
      "stateMutability": "view",
      "type": "function"
    },
    {
      "inputs": [
        {
          "internalType": "uint256",
          "name": "_gameId",
          "type": "uint256"
        },
        {
          "internalType": "int8",
          "name": "_mark",
          "type": "int8"
        }
      ],
      "name": "gameState",
      "outputs": [
        {
          "internalType": "bool",
          "name": "terminated",
          "type": "bool"
        }
      ],
      "stateMutability": "nonpayable",
      "type": "function"
    },
    {
      "inputs": [
        {
          "internalType": "address",
          "name": "",
          "type": "address"
        },
        {
          "internalType": "uint256",
          "name": "",
          "type": "uint256"
        }
      ],
      "name": "gamesByMe",
      "outputs": [
        {
          "internalType": "uint256",
          "name": "",
          "type": "uint256"
        }
      ],
      "stateMutability": "view",
      "type": "function"
    },
    {
      "inputs": [
        {
          "internalType": "address",
          "name": "",
          "type": "address"
        },
        {
          "internalType": "uint256",
          "name": "",
          "type": "uint256"
        }
      ],
      "name": "gamesByOther",
      "outputs": [
        {
          "internalType": "uint256",
          "name": "",
          "type": "uint256"
        }
      ],
      "stateMutability": "view",
      "type": "function"
    },
    {
      "inputs": [
        {
          "internalType": "uint256",
          "name": "_gameId",
          "type": "uint256"
        }
      ],
      "name": "getGame",
      "outputs": [
        {
          "components": [
            {
              "internalType": "uint256",
              "name": "gameId",
              "type": "uint256"
            },
            {
              "internalType": "address[2]",
              "name": "players",
              "type": "address[2]"
            },
            {
              "internalType": "string[2]",
              "name": "nonis",
              "type": "string[2]"
            },
            {
              "internalType": "bool[2]",
              "name": "verification",
              "type": "bool[2]"
            },
            {
              "internalType": "address",
              "name": "turn",
              "type": "address"
            },
            {
              "internalType": "int8[9]",
              "name": "game",
              "type": "int8[9]"
            },
            {
              "internalType": "int8",
              "name": "state",
              "type": "int8"
            }
          ],
          "internalType": "struct Game.GameComponent",
          "name": "game",
          "type": "tuple"
        }
      ],
      "stateMutability": "view",
      "type": "function"
    },
    {
      "inputs": [],
      "name": "getMyChallenges",
      "outputs": [
        {
          "internalType": "uint256[]",
          "name": "",
          "type": "uint256[]"
        }
      ],
      "stateMutability": "view",
      "type": "function"
    },
    {
      "inputs": [],
      "name": "getMyGames",
      "outputs": [
        {
          "internalType": "uint256[]",
          "name": "",
          "type": "uint256[]"
        }
      ],
      "stateMutability": "view",
      "type": "function"
    },
    {
      "inputs": [
        {
          "internalType": "address",
          "name": "player1",
          "type": "address"
        }
      ],
      "name": "initGame",
      "outputs": [],
      "stateMutability": "nonpayable",
      "type": "function"
    },
    {
      "inputs": [
        {
          "internalType": "uint8",
          "name": "position",
          "type": "uint8"
        },
        {
          "internalType": "uint256",
          "name": "_gameId",
          "type": "uint256"
        }
      ],
      "name": "makeMove",
      "outputs": [],
      "stateMutability": "nonpayable",
      "type": "function"
    },
    {
      "inputs": [
        {
          "internalType": "uint256",
          "name": "_gameId",
          "type": "uint256"
        },
        {
          "internalType": "string",
          "name": "noni",
          "type": "string"
        }
      ],
      "name": "verifyGame",
      "outputs": [
        {
          "internalType": "bool",
          "name": "succes",
          "type": "bool"
        }
      ],
      "stateMutability": "nonpayable",
      "type": "function"
    }
  ],
  "bytecode": "0x608060405234801561001057600080fd5b50612b09806100206000396000f3fe608060405234801561001057600080fd5b50600436106100b45760003560e01c80637269deb5116100715780637269deb51461019f578063a0b55095146101cf578063a2f77bcc14610201578063b4a13aa514610231578063b62edb2114610261578063b9ca48fc1461027f576100b4565b80630210d751146100b9578063110e123e146100d75780631a7fbd94146101075780636a5568be146101375780636b0e052d1461015357806371db9a911461016f575b600080fd5b6100c16102af565b6040516100ce91906124b4565b60405180910390f35b6100f160048036038101906100ec9190611ffd565b610344565b6040516100fe91906124d6565b60405180910390f35b610121600480360381019061011c9190611fc1565b610653565b60405161012e91906124f1565b60405180910390f35b610151600480360381019061014c9190611f33565b610a91565b005b61016d60048036038101906101689190612051565b610e94565b005b61018960048036038101906101849190611fc1565b611637565b60405161019691906124d6565b60405180910390f35b6101b960048036038101906101b49190611f5c565b611765565b6040516101c691906125ae565b60405180910390f35b6101e960048036038101906101e49190611f98565b611796565b6040516101f8939291906125c9565b60405180910390f35b61021b60048036038101906102169190611f98565b6117ed565b604051610228919061258c565b60405180910390f35b61024b60048036038101906102469190611f98565b611aae565b60405161025891906124d6565b60405180910390f35b610269611b52565b60405161027691906124b4565b60405180910390f35b61029960048036038101906102949190611f5c565b611be7565b6040516102a691906125ae565b60405180910390f35b6060600360003373ffffffffffffffffffffffffffffffffffffffff1673ffffffffffffffffffffffffffffffffffffffff16815260200190815260200160002080548060200260200160405190810160405280929190818152602001828054801561033a57602002820191906000526020600020905b815481526020019060010190808311610326575b5050505050905090565b600060016000848152602001908152602001600020600101600060028110610395577f4e487b7100000000000000000000000000000000000000000000000000000000600052603260045260246000fd5b0160009054906101000a900473ffffffffffffffffffffffffffffffffffffffff1673ffffffffffffffffffffffffffffffffffffffff163373ffffffffffffffffffffffffffffffffffffffff1614156104c757600180600085815260200190815260200160002060050160006002811061043a577f4e487b7100000000000000000000000000000000000000000000000000000000600052603260045260246000fd5b602091828204019190066101000a81548160ff02191690831515021790555081600160008581526020019081526020016000206003016000600281106104a9577f4e487b7100000000000000000000000000000000000000000000000000000000600052603260045260246000fd5b0190805190602001906104bd929190611c3c565b506001905061064d565b60016000848152602001908152602001600020600101600160028110610516577f4e487b7100000000000000000000000000000000000000000000000000000000600052603260045260246000fd5b0160009054906101000a900473ffffffffffffffffffffffffffffffffffffffff1673ffffffffffffffffffffffffffffffffffffffff163373ffffffffffffffffffffffffffffffffffffffff1614156106485760018060008581526020019081526020016000206005016001600281106105bb577f4e487b7100000000000000000000000000000000000000000000000000000000600052603260045260246000fd5b602091828204019190066101000a81548160ff021916908315150217905550816001600085815260200190815260200160002060030160016002811061062a577f4e487b7100000000000000000000000000000000000000000000000000000000600052603260045260246000fd5b01908051906020019061063e929190611c3c565b506001905061064d565b600090505b92915050565b600080600160008581526020019081526020016000206007016009806020026040519081016040528092919082600980156106c9576020028201916000905b82829054906101000a900460000b60000b815260200190600101906020826000010492830192600103820291508084116106925790505b505050505090506106d8611cc2565b60005b60098110156107df578460000b838260098110610721577f4e487b7100000000000000000000000000000000000000000000000000000000600052603260045260246000fd5b602002015160000b141561077f5784828260098110610769577f4e487b7100000000000000000000000000000000000000000000000000000000600052603260045260246000fd5b602002019060000b908160000b815250506107cc565b60008282600981106107ba577f4e487b7100000000000000000000000000000000000000000000000000000000600052603260045260246000fd5b602002019060000b908160000b815250505b80806107d7906128a0565b9150506106db565b5060006040518061010001604052806040518060600160405280600060ff168152602001600160ff168152602001600260ff1681525081526020016040518060600160405280600360ff168152602001600460ff168152602001600560ff1681525081526020016040518060600160405280600660ff168152602001600760ff168152602001600860ff1681525081526020016040518060600160405280600060ff168152602001600360ff168152602001600660ff1681525081526020016040518060600160405280600160ff168152602001600460ff168152602001600760ff1681525081526020016040518060600160405280600260ff168152602001600560ff168152602001600860ff1681525081526020016040518060600160405280600060ff168152602001600460ff168152602001600860ff1681525081526020016040518060600160405280600260ff168152602001600460ff168152602001600660ff168152508152509050600080600090505b6008811015610a81576001915060005b6003811015610a535760008483600881106109aa577f4e487b7100000000000000000000000000000000000000000000000000000000600052603260045260246000fd5b602002015182600381106109e7577f4e487b7100000000000000000000000000000000000000000000000000000000600052603260045260246000fd5b602002015190506000868260ff1660098110610a2c577f4e487b7100000000000000000000000000000000000000000000000000000000600052603260045260246000fd5b602002015160000b1415610a3f57600093505b508080610a4b906128a0565b915050610966565b50600115158215151415610a6e578695505050505050610a8b565b8080610a79906128a0565b915050610956565b5060039450505050505b92915050565b8073ffffffffffffffffffffffffffffffffffffffff163373ffffffffffffffffffffffffffffffffffffffff161415610b00576040517f08c379a0000000000000000000000000000000000000000000000000000000008152600401610af79061250c565b60405180910390fd5b6000610b0c6000611c18565b905060006001600083815260200190815260200160002090508181600001819055503381600101600060028110610b6c577f4e487b7100000000000000000000000000000000000000000000000000000000600052603260045260246000fd5b0160006101000a81548173ffffffffffffffffffffffffffffffffffffffff021916908373ffffffffffffffffffffffffffffffffffffffff1602179055508281600101600160028110610be9577f4e487b7100000000000000000000000000000000000000000000000000000000600052603260045260246000fd5b0160006101000a81548173ffffffffffffffffffffffffffffffffffffffff021916908373ffffffffffffffffffffffffffffffffffffffff160217905550600081600501600060028110610c67577f4e487b7100000000000000000000000000000000000000000000000000000000600052603260045260246000fd5b602091828204019190066101000a81548160ff021916908315150217905550600081600501600160028110610cc5577f4e487b7100000000000000000000000000000000000000000000000000000000600052603260045260246000fd5b602091828204019190066101000a81548160ff021916908315150217905550338160060160006101000a81548173ffffffffffffffffffffffffffffffffffffffff021916908373ffffffffffffffffffffffffffffffffffffffff1602179055506040518061012001604052806000800b60000b81526020016000800b81526020016000800b81526020016000800b81526020016000800b81526020016000800b81526020016000800b81526020016000800b81526020016000800b81525081600701906009610d97929190611ce5565b5060038160080160006101000a81548160ff021916908360000b60ff160217905550610dc36000611c26565b600360003373ffffffffffffffffffffffffffffffffffffffff1673ffffffffffffffffffffffffffffffffffffffff168152602001908152602001600020829080600181540180825580915050600190039060005260206000200160009091909190915055600260008473ffffffffffffffffffffffffffffffffffffffff1673ffffffffffffffffffffffffffffffffffffffff168152602001908152602001600020829080600181540180825580915050600190039060005260206000200160009091909190915055505050565b6001151560016000838152602001908152602001600020600501600060028110610ee7577f4e487b7100000000000000000000000000000000000000000000000000000000600052603260045260246000fd5b602091828204019190069054906101000a900460ff161515148015610f7457506001151560016000838152602001908152602001600020600501600160028110610f5a577f4e487b7100000000000000000000000000000000000000000000000000000000600052603260045260246000fd5b602091828204019190069054906101000a900460ff161515145b610fb3576040517f08c379a0000000000000000000000000000000000000000000000000000000008152600401610faa9061254c565b60405180910390fd5b60036001600083815260200190815260200160002060080160009054906101000a900460000b60000b1461101c576040517f08c379a00000000000000000000000000000000000000000000000000000000081526004016110139061256c565b60405180910390fd5b6001600082815260200190815260200160002060060160009054906101000a900473ffffffffffffffffffffffffffffffffffffffff1673ffffffffffffffffffffffffffffffffffffffff163373ffffffffffffffffffffffffffffffffffffffff16146110c0576040517f08c379a00000000000000000000000000000000000000000000000000000000081526004016110b79061252c565b60405180910390fd5b600060016000838152602001908152602001600020600101600060028110611111577f4e487b7100000000000000000000000000000000000000000000000000000000600052603260045260246000fd5b0160009054906101000a900473ffffffffffffffffffffffffffffffffffffffff1673ffffffffffffffffffffffffffffffffffffffff163373ffffffffffffffffffffffffffffffffffffffff161480156111d657506000600160008481526020019081526020016000206007018460ff16600981106111bb577f4e487b7100000000000000000000000000000000000000000000000000000000600052603260045260246000fd5b602091828204019190069054906101000a900460000b60000b145b15611366577fffffffffffffffffffffffffffffffffffffffffffffffffffffffffffffffff600160008481526020019081526020016000206007018460ff166009811061124d577f4e487b7100000000000000000000000000000000000000000000000000000000600052603260045260246000fd5b602091828204019190066101000a81548160ff021916908360000b60ff16021790555061129a827fffffffffffffffffffffffffffffffffffffffffffffffffffffffffffffffff611637565b9050600160008381526020019081526020016000206001016001600281106112eb577f4e487b7100000000000000000000000000000000000000000000000000000000600052603260045260246000fd5b0160009054906101000a900473ffffffffffffffffffffffffffffffffffffffff166001600084815260200190815260200160002060060160006101000a81548173ffffffffffffffffffffffffffffffffffffffff021916908373ffffffffffffffffffffffffffffffffffffffff1602179055506115c8565b600160008381526020019081526020016000206001016001600281106113b5577f4e487b7100000000000000000000000000000000000000000000000000000000600052603260045260246000fd5b0160009054906101000a900473ffffffffffffffffffffffffffffffffffffffff1673ffffffffffffffffffffffffffffffffffffffff163373ffffffffffffffffffffffffffffffffffffffff1614801561147a57506000600160008481526020019081526020016000206007018460ff166009811061145f577f4e487b7100000000000000000000000000000000000000000000000000000000600052603260045260246000fd5b602091828204019190069054906101000a900460000b60000b145b156115c75760018060008481526020019081526020016000206007018460ff16600981106114d1577f4e487b7100000000000000000000000000000000000000000000000000000000600052603260045260246000fd5b602091828204019190066101000a81548160ff021916908360000b60ff1602179055506114ff826001611637565b905060016000838152602001908152602001600020600101600060028110611550577f4e487b7100000000000000000000000000000000000000000000000000000000600052603260045260246000fd5b0160009054906101000a900473ffffffffffffffffffffffffffffffffffffffff166001600084815260200190815260200160002060060160006101000a81548173ffffffffffffffffffffffffffffffffffffffff021916908373ffffffffffffffffffffffffffffffffffffffff1602179055505b5b600115158115151415611632577f82bfb6d1aed88e000c2445617df7da548df8e369b1412a6cd5aaf1af6be2221f826001600085815260200190815260200160002060080160009054906101000a900460000b604051611629929190612600565b60405180910390a15b505050565b6000806116448484610653565b90507fffffffffffffffffffffffffffffffffffffffffffffffffffffffffffffffff8160000b14156116a95760006001600086815260200190815260200160002060080160006101000a81548160ff021916908360000b60ff160217905550611759565b60018160000b14156116ec57600180600086815260200190815260200160002060080160006101000a81548160ff021916908360000b60ff160217905550611758565b60038160000b141561175757600061170385611aae565b905060011515811515141561174a5760026001600087815260200190815260200160002060080160006101000a81548160ff021916908360000b60ff160217905550611755565b60019250505061175f565b505b5b5b60009150505b92915050565b6002602052816000526040600020818154811061178157600080fd5b90600052602060002001600091509150505481565b60016020528060005260406000206000915090508060000154908060060160009054906101000a900473ffffffffffffffffffffffffffffffffffffffff16908060080160009054906101000a900460000b905083565b6117f5611d82565b600160008381526020019081526020016000206040518060e0016040529081600082015481526020016001820160028060200260405190810160405280929190826002801561188f576020028201915b8160009054906101000a900473ffffffffffffffffffffffffffffffffffffffff1673ffffffffffffffffffffffffffffffffffffffff1681526020019060010190808311611845575b5050505050815260200160038201600280602002604051908101604052809291906000905b828210156119575783820180546118ca9061283d565b80601f01602080910402602001604051908101604052809291908181526020018280546118f69061283d565b80156119435780601f1061191857610100808354040283529160200191611943565b820191906000526020600020905b81548152906001019060200180831161192657829003601f168201915b5050505050815260200190600101906118b4565b505050508152602001600582016002806020026040519081016040528092919082600280156119c0576020028201916000905b82829054906101000a900460ff1615158152602001906001019060208260000104928301926001038202915080841161198a5790505b505050505081526020016006820160009054906101000a900473ffffffffffffffffffffffffffffffffffffffff1673ffffffffffffffffffffffffffffffffffffffff1673ffffffffffffffffffffffffffffffffffffffff16815260200160078201600980602002604051908101604052809291908260098015611a81576020028201916000905b82829054906101000a900460000b60000b81526020019060010190602082600001049283019260010382029150808411611a4a5790505b505050505081526020016008820160009054906101000a900460000b60000b60000b815250509050919050565b6000806001905060005b6008811015611b48576000600160008681526020019081526020016000206007018260098110611b11577f4e487b7100000000000000000000000000000000000000000000000000000000600052603260045260246000fd5b602091828204019190069054906101000a900460000b60000b1415611b3557600091505b8080611b40906128a0565b915050611ab8565b5080915050919050565b6060600260003373ffffffffffffffffffffffffffffffffffffffff1673ffffffffffffffffffffffffffffffffffffffff168152602001908152602001600020805480602002602001604051908101604052809291908181526020018280548015611bdd57602002820191906000526020600020905b815481526020019060010190808311611bc9575b5050505050905090565b60036020528160005260406000208181548110611c0357600080fd5b90600052602060002001600091509150505481565b600081600001549050919050565b6001816000016000828254019250508190555050565b828054611c489061283d565b90600052602060002090601f016020900481019282611c6a5760008555611cb1565b82601f10611c8357805160ff1916838001178555611cb1565b82800160010185558215611cb1579182015b82811115611cb0578251825591602001919060010190611c95565b5b509050611cbe9190611def565b5090565b604051806101200160405280600990602082028036833780820191505090505090565b826009601f01602090048101928215611d715791602002820160005b83821115611d4257835183826101000a81548160ff021916908360000b60ff1602179055509260200192600101602081600001049283019260010302611d01565b8015611d6f5782816101000a81549060ff0219169055600101602081600001049283019260010302611d42565b505b509050611d7e9190611def565b5090565b6040518060e0016040528060008152602001611d9c611e0c565b8152602001611da9611e2e565b8152602001611db6611e55565b8152602001600073ffffffffffffffffffffffffffffffffffffffff168152602001611de0611cc2565b81526020016000800b81525090565b5b80821115611e08576000816000905550600101611df0565b5090565b6040518060400160405280600290602082028036833780820191505090505090565b60405180604001604052806002905b6060815260200190600190039081611e3d5790505090565b6040518060400160405280600290602082028036833780820191505090505090565b6000611e8a611e858461264e565b612629565b905082815260208101848484011115611ea257600080fd5b611ead8482856127fb565b509392505050565b600081359050611ec481612a77565b92915050565b600081359050611ed981612a8e565b92915050565b600082601f830112611ef057600080fd5b8135611f00848260208601611e77565b91505092915050565b600081359050611f1881612aa5565b92915050565b600081359050611f2d81612abc565b92915050565b600060208284031215611f4557600080fd5b6000611f5384828501611eb5565b91505092915050565b60008060408385031215611f6f57600080fd5b6000611f7d85828601611eb5565b9250506020611f8e85828601611f09565b9150509250929050565b600060208284031215611faa57600080fd5b6000611fb884828501611f09565b91505092915050565b60008060408385031215611fd457600080fd5b6000611fe285828601611f09565b9250506020611ff385828601611eca565b9150509250929050565b6000806040838503121561201057600080fd5b600061201e85828601611f09565b925050602083013567ffffffffffffffff81111561203b57600080fd5b61204785828601611edf565b9150509250929050565b6000806040838503121561206457600080fd5b600061207285828601611f1e565b925050602061208385828601611f09565b9150509250929050565b60006120998383612101565b60208301905092915050565b60006120b183836122f7565b60208301905092915050565b60006120c98383612315565b60208301905092915050565b60006120e18383612333565b905092915050565b60006120f58383612496565b60208301905092915050565b61210a81612799565b82525050565b61211981612799565b82525050565b612128816126b7565b612132818461273a565b925061213d8261267f565b8060005b8381101561216e578151612155878261208d565b9650612160836126f9565b925050600181019050612141565b505050505050565b61217f816126c2565b6121898184612745565b925061219482612689565b8060005b838110156121c55781516121ac87826120a5565b96506121b783612706565b925050600181019050612198565b505050505050565b6121d6816126cd565b6121e08184612750565b92506121eb82612693565b8060005b8381101561221c57815161220387826120bd565b965061220e83612713565b9250506001810190506121ef565b505050505050565b600061222f826126d8565b612239818561275b565b93508360208202850161224b8561269d565b8060005b85811015612287578484038952815161226885826120d5565b945061227383612720565b925060208a0199505060018101905061224f565b50829750879550505050505092915050565b60006122a4826126e3565b6122ae8185612766565b93506122b9836126a7565b8060005b838110156122ea5781516122d188826120e9565b97506122dc8361272d565b9250506001810190506122bd565b5085935050505092915050565b612300816127ab565b82525050565b61230f816127ab565b82525050565b61231e816127b7565b82525050565b61232d816127b7565b82525050565b600061233e826126ee565b6123488185612777565b935061235881856020860161280a565b61236181612976565b840191505092915050565b6000612379601983612788565b915061238482612987565b602082019050919050565b600061239c601383612788565b91506123a7826129b0565b602082019050919050565b60006123bf602a83612788565b91506123ca826129d9565b604082019050919050565b60006123e2602b83612788565b91506123ed82612a28565b604082019050919050565b6000610220830160008301516124116000860182612496565b506020830151612424602086018261211f565b506040830151848203606086015261243c8282612224565b91505060608301516124516080860182612176565b50608083015161246460c0860182612101565b5060a083015161247760e08601826121cd565b5060c083015161248b610200860182612315565b508091505092915050565b61249f816127e4565b82525050565b6124ae816127e4565b82525050565b600060208201905081810360008301526124ce8184612299565b905092915050565b60006020820190506124eb6000830184612306565b92915050565b60006020820190506125066000830184612324565b92915050565b600060208201905081810360008301526125258161236c565b9050919050565b600060208201905081810360008301526125458161238f565b9050919050565b60006020820190508181036000830152612565816123b2565b9050919050565b60006020820190508181036000830152612585816123d5565b9050919050565b600060208201905081810360008301526125a681846123f8565b905092915050565b60006020820190506125c360008301846124a5565b92915050565b60006060820190506125de60008301866124a5565b6125eb6020830185612110565b6125f86040830184612324565b949350505050565b600060408201905061261560008301856124a5565b6126226020830184612324565b9392505050565b6000612633612644565b905061263f828261286f565b919050565b6000604051905090565b600067ffffffffffffffff82111561266957612668612947565b5b61267282612976565b9050602081019050919050565b6000819050919050565b6000819050919050565b6000819050919050565b6000819050919050565b6000819050602082019050919050565b600060029050919050565b600060029050919050565b600060099050919050565b600060029050919050565b600081519050919050565b600081519050919050565b6000602082019050919050565b6000602082019050919050565b6000602082019050919050565b6000602082019050919050565b6000602082019050919050565b600081905092915050565b600081905092915050565b600081905092915050565b600081905092915050565b600082825260208201905092915050565b600082825260208201905092915050565b600082825260208201905092915050565b60006127a4826127c4565b9050919050565b60008115159050919050565b60008160000b9050919050565b600073ffffffffffffffffffffffffffffffffffffffff82169050919050565b6000819050919050565b600060ff82169050919050565b82818337600083830152505050565b60005b8381101561282857808201518184015260208101905061280d565b83811115612837576000848401525b50505050565b6000600282049050600182168061285557607f821691505b6020821081141561286957612868612918565b5b50919050565b61287882612976565b810181811067ffffffffffffffff8211171561289757612896612947565b5b80604052505050565b60006128ab826127e4565b91507fffffffffffffffffffffffffffffffffffffffffffffffffffffffffffffffff8214156128de576128dd6128e9565b5b600182019050919050565b7f4e487b7100000000000000000000000000000000000000000000000000000000600052601160045260246000fd5b7f4e487b7100000000000000000000000000000000000000000000000000000000600052602260045260246000fd5b7f4e487b7100000000000000000000000000000000000000000000000000000000600052604160045260246000fd5b6000601f19601f8301169050919050565b7f43616e6e6f74206368616c6c656e676520796f757273656c6600000000000000600082015250565b7f49742773206e6f7420796f7572207475726e2100000000000000000000000000600082015250565b7f47616d6520686173206e6f74206265656e20766572696669656420627920626f60008201527f746820706c617965727300000000000000000000000000000000000000000000602082015250565b7f47616d6520686173206e6f74206265656e20696e69746961746564206f72206960008201527f732066696e6e6973686564000000000000000000000000000000000000000000602082015250565b612a8081612799565b8114612a8b57600080fd5b50565b612a97816127b7565b8114612aa257600080fd5b50565b612aae816127e4565b8114612ab957600080fd5b50565b612ac5816127ee565b8114612ad057600080fd5b5056fea2646970667358221220e56944e39e11e337a9efe1151f3438ab01985ce68a4b00e3596fc142e5a5b75d64736f6c63430008040033",
  "linkReferences": {},
  "deployedLinkReferences": {}
}