{
  "_format": "hh-sol-artifact-1",
  "contractName": "Game",
  "sourceName": "contracts/Game.sol",
  "abi": [
    {
      "inputs": [],
      "stateMutability": "nonpayable",
      "type": "constructor"
    },
    {
      "anonymous": false,
      "inputs": [
        {
          "indexed": false,
          "internalType": "uint256",
          "name": "_gameId",
          "type": "uint256"
        },
        {
          "indexed": false,
          "internalType": "int8",
          "name": "winner",
          "type": "int8"
        }
      ],
      "name": "GameDone",
      "type": "event"
    },
    {
      "anonymous": false,
      "inputs": [
        {
          "indexed": false,
          "internalType": "uint256",
          "name": "_gameId",
          "type": "uint256"
        },
        {
          "indexed": false,
          "internalType": "int8[9]",
          "name": "game",
          "type": "int8[9]"
        }
      ],
      "name": "MoveDone",
      "type": "event"
    },
    {
      "inputs": [
        {
          "internalType": "uint256",
          "name": "",
          "type": "uint256"
        }
      ],
      "name": "allGames",
      "outputs": [
        {
          "internalType": "uint256",
          "name": "gameId",
          "type": "uint256"
        },
        {
          "internalType": "address",
          "name": "turn",
          "type": "address"
        },
        {
          "internalType": "int8",
          "name": "state",
          "type": "int8"
        }
      ],
      "stateMutability": "view",
      "type": "function"
    },
    {
      "inputs": [
        {
          "internalType": "uint256",
          "name": "_gameId",
          "type": "uint256"
        }
      ],
      "name": "checkIfBoardIsFilled",
      "outputs": [
        {
          "internalType": "bool",
          "name": "isTie",
          "type": "bool"
        }
      ],
      "stateMutability": "view",
      "type": "function"
    },
    {
      "inputs": [
        {
          "internalType": "uint256",
          "name": "_gameId",
          "type": "uint256"
        },
        {
          "internalType": "int8",
          "name": "_mark",
          "type": "int8"
        }
      ],
      "name": "checkWinner",
      "outputs": [
        {
          "internalType": "int8",
          "name": "state",
          "type": "int8"
        }
      ],
      "stateMutability": "view",
      "type": "function"
    },
    {
      "inputs": [
        {
          "internalType": "uint256",
          "name": "_gameId",
          "type": "uint256"
        },
        {
          "internalType": "int8",
          "name": "_mark",
          "type": "int8"
        }
      ],
      "name": "gameState",
      "outputs": [
        {
          "internalType": "bool",
          "name": "terminated",
          "type": "bool"
        }
      ],
      "stateMutability": "nonpayable",
      "type": "function"
    },
    {
      "inputs": [
        {
          "internalType": "address",
          "name": "",
          "type": "address"
        },
        {
          "internalType": "uint256",
          "name": "",
          "type": "uint256"
        }
      ],
      "name": "gamesByMe",
      "outputs": [
        {
          "internalType": "uint256",
          "name": "",
          "type": "uint256"
        }
      ],
      "stateMutability": "view",
      "type": "function"
    },
    {
      "inputs": [
        {
          "internalType": "address",
          "name": "",
          "type": "address"
        },
        {
          "internalType": "uint256",
          "name": "",
          "type": "uint256"
        }
      ],
      "name": "gamesByOther",
      "outputs": [
        {
          "internalType": "uint256",
          "name": "",
          "type": "uint256"
        }
      ],
      "stateMutability": "view",
      "type": "function"
    },
    {
      "inputs": [
        {
          "internalType": "uint256",
          "name": "_gameId",
          "type": "uint256"
        }
      ],
      "name": "getGame",
      "outputs": [
        {
          "components": [
            {
              "internalType": "uint256",
              "name": "gameId",
              "type": "uint256"
            },
            {
              "internalType": "address[2]",
              "name": "players",
              "type": "address[2]"
            },
            {
              "internalType": "uint256[2]",
              "name": "nonis",
              "type": "uint256[2]"
            },
            {
              "internalType": "bool[2]",
              "name": "verification",
              "type": "bool[2]"
            },
            {
              "internalType": "address",
              "name": "turn",
              "type": "address"
            },
            {
              "internalType": "int8[9]",
              "name": "game",
              "type": "int8[9]"
            },
            {
              "internalType": "int8",
              "name": "state",
              "type": "int8"
            }
          ],
          "internalType": "struct Game.GameComponent",
          "name": "game",
          "type": "tuple"
        }
      ],
      "stateMutability": "view",
      "type": "function"
    },
    {
      "inputs": [],
      "name": "getMyChallenges",
      "outputs": [
        {
          "internalType": "uint256[]",
          "name": "",
          "type": "uint256[]"
        }
      ],
      "stateMutability": "view",
      "type": "function"
    },
    {
      "inputs": [],
      "name": "getMyGames",
      "outputs": [
        {
          "internalType": "uint256[]",
          "name": "",
          "type": "uint256[]"
        }
      ],
      "stateMutability": "view",
      "type": "function"
    },
    {
      "inputs": [
        {
          "internalType": "address",
          "name": "player1",
          "type": "address"
        }
      ],
      "name": "initGame",
      "outputs": [],
      "stateMutability": "nonpayable",
      "type": "function"
    },
    {
      "inputs": [
        {
          "internalType": "uint8",
          "name": "position",
          "type": "uint8"
        },
        {
          "internalType": "uint256",
          "name": "_gameId",
          "type": "uint256"
        }
      ],
      "name": "makeMove",
      "outputs": [],
      "stateMutability": "nonpayable",
      "type": "function"
    },
    {
      "inputs": [
        {
          "internalType": "uint256",
          "name": "_gameId",
          "type": "uint256"
        },
        {
          "internalType": "uint256",
          "name": "noni",
          "type": "uint256"
        }
      ],
      "name": "verifyGame",
      "outputs": [
        {
          "internalType": "bool",
          "name": "succes",
          "type": "bool"
        }
      ],
      "stateMutability": "nonpayable",
      "type": "function"
    }
  ],
  "bytecode": "0x608060405234801561001057600080fd5b506134fb806100206000396000f3fe608060405234801561001057600080fd5b50600436106100b45760003560e01c80637a4feb1a116100715780637a4feb1a1461019f578063a0b55095146101cf578063a2f77bcc14610201578063b4a13aa514610231578063b62edb2114610261578063b9ca48fc1461027f576100b4565b80630210d751146100b95780631a7fbd94146100d75780636a5568be146101075780636b0e052d1461012357806371db9a911461013f5780637269deb51461016f575b600080fd5b6100c16102af565b6040516100ce9190612afb565b60405180910390f35b6100f160048036038101906100ec9190611e7a565b610344565b6040516100fe9190612b38565b60405180910390f35b610121600480360381019061011c9190611dec565b610782565b005b61013d60048036038101906101389190611ef2565b610b85565b005b61015960048036038101906101549190611e7a565b611376565b6040516101669190612b1d565b60405180910390f35b61018960048036038101906101849190611e15565b6114a4565b6040516101969190612bef565b60405180910390f35b6101b960048036038101906101b49190611eb6565b6114d5565b6040516101c69190612b1d565b60405180910390f35b6101e960048036038101906101e49190611e51565b6117c4565b6040516101f893929190612c0a565b60405180910390f35b61021b60048036038101906102169190611e51565b61181b565b6040516102289190612bd3565b60405180910390f35b61024b60048036038101906102469190611e51565b611a5a565b6040516102589190612b1d565b60405180910390f35b610269611afe565b6040516102769190612afb565b60405180910390f35b61029960048036038101906102949190611e15565b611b93565b6040516102a69190612bef565b60405180910390f35b6060600360003373ffffffffffffffffffffffffffffffffffffffff1673ffffffffffffffffffffffffffffffffffffffff16815260200190815260200160002080548060200260200160405190810160405280929190818152602001828054801561033a57602002820191906000526020600020905b815481526020019060010190808311610326575b5050505050905090565b600080600160008581526020019081526020016000206007016009806020026040519081016040528092919082600980156103ba576020028201916000905b82829054906101000a900460000b60000b815260200190600101906020826000010492830192600103820291508084116103835790505b505050505090506103c9611be8565b60005b60098110156104d0578460000b838260098110610412577f4e487b7100000000000000000000000000000000000000000000000000000000600052603260045260246000fd5b602002015160000b1415610470578482826009811061045a577f4e487b7100000000000000000000000000000000000000000000000000000000600052603260045260246000fd5b602002019060000b908160000b815250506104bd565b60008282600981106104ab577f4e487b7100000000000000000000000000000000000000000000000000000000600052603260045260246000fd5b602002019060000b908160000b815250505b80806104c890613161565b9150506103cc565b5060006040518061010001604052806040518060600160405280600060ff168152602001600160ff168152602001600260ff1681525081526020016040518060600160405280600360ff168152602001600460ff168152602001600560ff1681525081526020016040518060600160405280600660ff168152602001600760ff168152602001600860ff1681525081526020016040518060600160405280600060ff168152602001600360ff168152602001600660ff1681525081526020016040518060600160405280600160ff168152602001600460ff168152602001600760ff1681525081526020016040518060600160405280600260ff168152602001600560ff168152602001600860ff1681525081526020016040518060600160405280600060ff168152602001600460ff168152602001600860ff1681525081526020016040518060600160405280600260ff168152602001600460ff168152602001600660ff168152508152509050600080600090505b6008811015610772576001915060005b600381101561074457600084836008811061069b577f4e487b7100000000000000000000000000000000000000000000000000000000600052603260045260246000fd5b602002015182600381106106d8577f4e487b7100000000000000000000000000000000000000000000000000000000600052603260045260246000fd5b602002015190506000868260ff166009811061071d577f4e487b7100000000000000000000000000000000000000000000000000000000600052603260045260246000fd5b602002015160000b141561073057600093505b50808061073c90613161565b915050610657565b5060011515821515141561075f57869550505050505061077c565b808061076a90613161565b915050610647565b5060039450505050505b92915050565b8073ffffffffffffffffffffffffffffffffffffffff163373ffffffffffffffffffffffffffffffffffffffff1614156107f1576040517f08c379a00000000000000000000000000000000000000000000000000000000081526004016107e890612b53565b60405180910390fd5b60006107fd6000611bc4565b90506000600160008381526020019081526020016000209050818160000181905550338160010160006002811061085d577f4e487b7100000000000000000000000000000000000000000000000000000000600052603260045260246000fd5b0160006101000a81548173ffffffffffffffffffffffffffffffffffffffff021916908373ffffffffffffffffffffffffffffffffffffffff16021790555082816001016001600281106108da577f4e487b7100000000000000000000000000000000000000000000000000000000600052603260045260246000fd5b0160006101000a81548173ffffffffffffffffffffffffffffffffffffffff021916908373ffffffffffffffffffffffffffffffffffffffff160217905550600081600501600060028110610958577f4e487b7100000000000000000000000000000000000000000000000000000000600052603260045260246000fd5b602091828204019190066101000a81548160ff0219169083151502179055506000816005016001600281106109b6577f4e487b7100000000000000000000000000000000000000000000000000000000600052603260045260246000fd5b602091828204019190066101000a81548160ff021916908315150217905550338160060160006101000a81548173ffffffffffffffffffffffffffffffffffffffff021916908373ffffffffffffffffffffffffffffffffffffffff1602179055506040518061012001604052806000800b60000b81526020016000800b81526020016000800b81526020016000800b81526020016000800b81526020016000800b81526020016000800b81526020016000800b81526020016000800b81525081600701906009610a88929190611c0b565b5060038160080160006101000a81548160ff021916908360000b60ff160217905550610ab46000611bd2565b600360003373ffffffffffffffffffffffffffffffffffffffff1673ffffffffffffffffffffffffffffffffffffffff168152602001908152602001600020829080600181540180825580915050600190039060005260206000200160009091909190915055600260008473ffffffffffffffffffffffffffffffffffffffff1673ffffffffffffffffffffffffffffffffffffffff168152602001908152602001600020829080600181540180825580915050600190039060005260206000200160009091909190915055505050565b6001151560016000838152602001908152602001600020600501600060028110610bd8577f4e487b7100000000000000000000000000000000000000000000000000000000600052603260045260246000fd5b602091828204019190069054906101000a900460ff161515148015610c6557506001151560016000838152602001908152602001600020600501600160028110610c4b577f4e487b7100000000000000000000000000000000000000000000000000000000600052603260045260246000fd5b602091828204019190069054906101000a900460ff161515145b610ca4576040517f08c379a0000000000000000000000000000000000000000000000000000000008152600401610c9b90612b93565b60405180910390fd5b60036001600083815260200190815260200160002060080160009054906101000a900460000b60000b14610d0d576040517f08c379a0000000000000000000000000000000000000000000000000000000008152600401610d0490612bb3565b60405180910390fd5b6001600082815260200190815260200160002060060160009054906101000a900473ffffffffffffffffffffffffffffffffffffffff1673ffffffffffffffffffffffffffffffffffffffff163373ffffffffffffffffffffffffffffffffffffffff1614610db1576040517f08c379a0000000000000000000000000000000000000000000000000000000008152600401610da890612b73565b60405180910390fd5b600060016000838152602001908152602001600020600101600060028110610e02577f4e487b7100000000000000000000000000000000000000000000000000000000600052603260045260246000fd5b0160009054906101000a900473ffffffffffffffffffffffffffffffffffffffff1673ffffffffffffffffffffffffffffffffffffffff163373ffffffffffffffffffffffffffffffffffffffff16148015610ec757506000600160008481526020019081526020016000206007018460ff1660098110610eac577f4e487b7100000000000000000000000000000000000000000000000000000000600052603260045260246000fd5b602091828204019190069054906101000a900460000b60000b145b15611057577fffffffffffffffffffffffffffffffffffffffffffffffffffffffffffffffff600160008481526020019081526020016000206007018460ff1660098110610f3e577f4e487b7100000000000000000000000000000000000000000000000000000000600052603260045260246000fd5b602091828204019190066101000a81548160ff021916908360000b60ff160217905550610f8b827fffffffffffffffffffffffffffffffffffffffffffffffffffffffffffffffff611376565b905060016000838152602001908152602001600020600101600160028110610fdc577f4e487b7100000000000000000000000000000000000000000000000000000000600052603260045260246000fd5b0160009054906101000a900473ffffffffffffffffffffffffffffffffffffffff166001600084815260200190815260200160002060060160006101000a81548173ffffffffffffffffffffffffffffffffffffffff021916908373ffffffffffffffffffffffffffffffffffffffff1602179055506112b9565b600160008381526020019081526020016000206001016001600281106110a6577f4e487b7100000000000000000000000000000000000000000000000000000000600052603260045260246000fd5b0160009054906101000a900473ffffffffffffffffffffffffffffffffffffffff1673ffffffffffffffffffffffffffffffffffffffff163373ffffffffffffffffffffffffffffffffffffffff1614801561116b57506000600160008481526020019081526020016000206007018460ff1660098110611150577f4e487b7100000000000000000000000000000000000000000000000000000000600052603260045260246000fd5b602091828204019190069054906101000a900460000b60000b145b156112b85760018060008481526020019081526020016000206007018460ff16600981106111c2577f4e487b7100000000000000000000000000000000000000000000000000000000600052603260045260246000fd5b602091828204019190066101000a81548160ff021916908360000b60ff1602179055506111f0826001611376565b905060016000838152602001908152602001600020600101600060028110611241577f4e487b7100000000000000000000000000000000000000000000000000000000600052603260045260246000fd5b0160009054906101000a900473ffffffffffffffffffffffffffffffffffffffff166001600084815260200190815260200160002060060160006101000a81548173ffffffffffffffffffffffffffffffffffffffff021916908373ffffffffffffffffffffffffffffffffffffffff1602179055505b5b7fed0b82937c8b0d15be579c2daa56662df7e651fa16d28232a63e2f431e9be8da82600160008581526020019081526020016000206007016040516112ff929190612c41565b60405180910390a1600115158115151415611371577f82bfb6d1aed88e000c2445617df7da548df8e369b1412a6cd5aaf1af6be2221f826001600085815260200190815260200160002060080160009054906101000a900460000b604051611368929190612c6b565b60405180910390a15b505050565b6000806113838484610344565b90507fffffffffffffffffffffffffffffffffffffffffffffffffffffffffffffffff8160000b14156113e85760006001600086815260200190815260200160002060080160006101000a81548160ff021916908360000b60ff160217905550611498565b60018160000b141561142b57600180600086815260200190815260200160002060080160006101000a81548160ff021916908360000b60ff160217905550611497565b60038160000b141561149657600061144285611a5a565b90506001151581151514156114895760026001600087815260200190815260200160002060080160006101000a81548160ff021916908360000b60ff160217905550611494565b60019250505061149e565b505b5b5b60009150505b92915050565b600260205281600052604060002081815481106114c057600080fd5b90600052602060002001600091509150505481565b600060016000848152602001908152602001600020600101600060028110611526577f4e487b7100000000000000000000000000000000000000000000000000000000600052603260045260246000fd5b0160009054906101000a900473ffffffffffffffffffffffffffffffffffffffff1673ffffffffffffffffffffffffffffffffffffffff163373ffffffffffffffffffffffffffffffffffffffff1614156116485760018060008581526020019081526020016000206005016000600281106115cb577f4e487b7100000000000000000000000000000000000000000000000000000000600052603260045260246000fd5b602091828204019190066101000a81548160ff021916908315150217905550816001600085815260200190815260200160002060030160006002811061163a577f4e487b7100000000000000000000000000000000000000000000000000000000600052603260045260246000fd5b0181905550600190506117be565b60016000848152602001908152602001600020600101600160028110611697577f4e487b7100000000000000000000000000000000000000000000000000000000600052603260045260246000fd5b0160009054906101000a900473ffffffffffffffffffffffffffffffffffffffff1673ffffffffffffffffffffffffffffffffffffffff163373ffffffffffffffffffffffffffffffffffffffff1614156117b957600180600085815260200190815260200160002060050160016002811061173c577f4e487b7100000000000000000000000000000000000000000000000000000000600052603260045260246000fd5b602091828204019190066101000a81548160ff02191690831515021790555081600160008581526020019081526020016000206003016001600281106117ab577f4e487b7100000000000000000000000000000000000000000000000000000000600052603260045260246000fd5b0181905550600190506117be565b600090505b92915050565b60016020528060005260406000206000915090508060000154908060060160009054906101000a900473ffffffffffffffffffffffffffffffffffffffff16908060080160009054906101000a900460000b905083565b611823611ca8565b600160008381526020019081526020016000206040518060e001604052908160008201548152602001600182016002806020026040519081016040528092919082600280156118bd576020028201915b8160009054906101000a900473ffffffffffffffffffffffffffffffffffffffff1673ffffffffffffffffffffffffffffffffffffffff1681526020019060010190808311611873575b5050505050815260200160038201600280602002604051908101604052809291908260028015611902576020028201915b8154815260200190600101908083116118ee575b505050505081526020016005820160028060200260405190810160405280929190826002801561196c576020028201916000905b82829054906101000a900460ff161515815260200190600101906020826000010492830192600103820291508084116119365790505b505050505081526020016006820160009054906101000a900473ffffffffffffffffffffffffffffffffffffffff1673ffffffffffffffffffffffffffffffffffffffff1673ffffffffffffffffffffffffffffffffffffffff16815260200160078201600980602002604051908101604052809291908260098015611a2d576020028201916000905b82829054906101000a900460000b60000b815260200190600101906020826000010492830192600103820291508084116119f65790505b505050505081526020016008820160009054906101000a900460000b60000b60000b815250509050919050565b6000806001905060005b6008811015611af4576000600160008681526020019081526020016000206007018260098110611abd577f4e487b7100000000000000000000000000000000000000000000000000000000600052603260045260246000fd5b602091828204019190069054906101000a900460000b60000b1415611ae157600091505b8080611aec90613161565b915050611a64565b5080915050919050565b6060600260003373ffffffffffffffffffffffffffffffffffffffff1673ffffffffffffffffffffffffffffffffffffffff168152602001908152602001600020805480602002602001604051908101604052809291908181526020018280548015611b8957602002820191906000526020600020905b815481526020019060010190808311611b75575b5050505050905090565b60036020528160005260406000208181548110611baf57600080fd5b90600052602060002001600091509150505481565b600081600001549050919050565b6001816000016000828254019250508190555050565b604051806101200160405280600990602082028036833780820191505090505090565b826009601f01602090048101928215611c975791602002820160005b83821115611c6857835183826101000a81548160ff021916908360000b60ff1602179055509260200192600101602081600001049283019260010302611c27565b8015611c955782816101000a81549060ff0219169055600101602081600001049283019260010302611c68565b505b509050611ca49190611d15565b5090565b6040518060e0016040528060008152602001611cc2611d32565b8152602001611ccf611d54565b8152602001611cdc611d76565b8152602001600073ffffffffffffffffffffffffffffffffffffffff168152602001611d06611be8565b81526020016000800b81525090565b5b80821115611d2e576000816000905550600101611d16565b5090565b6040518060400160405280600290602082028036833780820191505090505090565b6040518060400160405280600290602082028036833780820191505090505090565b6040518060400160405280600290602082028036833780820191505090505090565b600081359050611da781613469565b92915050565b600081359050611dbc81613480565b92915050565b600081359050611dd181613497565b92915050565b600081359050611de6816134ae565b92915050565b600060208284031215611dfe57600080fd5b6000611e0c84828501611d98565b91505092915050565b60008060408385031215611e2857600080fd5b6000611e3685828601611d98565b9250506020611e4785828601611dc2565b9150509250929050565b600060208284031215611e6357600080fd5b6000611e7184828501611dc2565b91505092915050565b60008060408385031215611e8d57600080fd5b6000611e9b85828601611dc2565b9250506020611eac85828601611dad565b9150509250929050565b60008060408385031215611ec957600080fd5b6000611ed785828601611dc2565b9250506020611ee885828601611dc2565b9150509250929050565b60008060408385031215611f0557600080fd5b6000611f1385828601611dd7565b9250506020611f2485828601611dc2565b9150509250929050565b6000611f3a8383611f8e565b60208301905092915050565b6000611f528383612984565b60208301905092915050565b6000611f6a83836129a2565b60208301905092915050565b6000611f828383612add565b60208301905092915050565b611f9781612dbf565b82525050565b611fa681612dbf565b82525050565b611fb581612cd6565b611fbf8184612d59565b9250611fca82612c94565b8060005b83811015611ffb578151611fe28782611f2e565b9650611fed83612d18565b925050600181019050611fce565b505050505050565b61200c81612ce1565b6120168184612d64565b925061202182612c9e565b8060005b838110156120525781516120398782611f46565b965061204483612d25565b925050600181019050612025565b505050505050565b61206381612cec565b61206d8184612d6f565b925061207882612ca8565b8060005b838110156120a95781516120908782611f5e565b965061209b83612d32565b92505060018101905061207c565b505050505050565b6120ba81612cf7565b6120c48184612d7a565b9250826120d083612cb2565b600080156123fc575b836001602003820110156123fb5781546120fb876120f683612e21565b6129a2565b6020870196506121138761210e83612f3f565b6129a2565b60208701965061212b876121268361305d565b6129a2565b6020870196506121438761213e836130ab565b6129a2565b60208701965061215b87612156836130c5565b6129a2565b6020870196506121738761216e836130df565b6129a2565b60208701965061218b87612186836130f9565b6129a2565b6020870196506121a38761219e83613113565b6129a2565b6020870196506121bb876121b68361312d565b6129a2565b6020870196506121d3876121ce83613147565b6129a2565b6020870196506121eb876121e683612e3b565b6129a2565b602087019650612203876121fe83612e55565b6129a2565b60208701965061221b8761221683612e6f565b6129a2565b6020870196506122338761222e83612e89565b6129a2565b60208701965061224b8761224683612ea3565b6129a2565b6020870196506122638761225e83612ebd565b6129a2565b60208701965061227b8761227683612ed7565b6129a2565b6020870196506122938761228e83612ef1565b6129a2565b6020870196506122ab876122a683612f0b565b6129a2565b6020870196506122c3876122be83612f25565b6129a2565b6020870196506122db876122d683612f59565b6129a2565b6020870196506122f3876122ee83612f73565b6129a2565b60208701965061230b8761230683612f8d565b6129a2565b6020870196506123238761231e83612fa7565b6129a2565b60208701965061233b8761233683612fc1565b6129a2565b6020870196506123538761234e83612fdb565b6129a2565b60208701965061236b8761236683612ff5565b6129a2565b6020870196506123838761237e8361300f565b6129a2565b60208701965061239b8761239683613029565b6129a2565b6020870196506123b3876123ae83613043565b6129a2565b6020870196506123cb876123c683613077565b6129a2565b6020870196506123e3876123de83613091565b6129a2565b602087019650600183019250506020810190506120d9565b5b6001156128c757815460011561242b5761241e8761241983612e21565b6129a2565b6020870196506001820191505b600115612451576124448761243f83612f3f565b6129a2565b6020870196506001820191505b6001156124775761246a876124658361305d565b6129a2565b6020870196506001820191505b60011561249d576124908761248b836130ab565b6129a2565b6020870196506001820191505b6001156124c3576124b6876124b1836130c5565b6129a2565b6020870196506001820191505b6001156124e9576124dc876124d7836130df565b6129a2565b6020870196506001820191505b60011561250f57612502876124fd836130f9565b6129a2565b6020870196506001820191505b600115612535576125288761252383613113565b6129a2565b6020870196506001820191505b60011561255b5761254e876125498361312d565b6129a2565b6020870196506001820191505b600015612581576125748761256f83613147565b6129a2565b6020870196506001820191505b6000156125a75761259a8761259583612e3b565b6129a2565b6020870196506001820191505b6000156125cd576125c0876125bb83612e55565b6129a2565b6020870196506001820191505b6000156125f3576125e6876125e183612e6f565b6129a2565b6020870196506001820191505b6000156126195761260c8761260783612e89565b6129a2565b6020870196506001820191505b60001561263f576126328761262d83612ea3565b6129a2565b6020870196506001820191505b600015612665576126588761265383612ebd565b6129a2565b6020870196506001820191505b60001561268b5761267e8761267983612ed7565b6129a2565b6020870196506001820191505b6000156126b1576126a48761269f83612ef1565b6129a2565b6020870196506001820191505b6000156126d7576126ca876126c583612f0b565b6129a2565b6020870196506001820191505b6000156126fd576126f0876126eb83612f25565b6129a2565b6020870196506001820191505b600015612723576127168761271183612f59565b6129a2565b6020870196506001820191505b6000156127495761273c8761273783612f73565b6129a2565b6020870196506001820191505b60001561276f576127628761275d83612f8d565b6129a2565b6020870196506001820191505b600015612795576127888761278383612fa7565b6129a2565b6020870196506001820191505b6000156127bb576127ae876127a983612fc1565b6129a2565b6020870196506001820191505b6000156127e1576127d4876127cf83612fdb565b6129a2565b6020870196506001820191505b600015612807576127fa876127f583612ff5565b6129a2565b6020870196506001820191505b60001561282d576128208761281b8361300f565b6129a2565b6020870196506001820191505b600015612853576128468761284183613029565b6129a2565b6020870196506001820191505b6000156128795761286c8761286783613043565b6129a2565b6020870196506001820191505b60001561289f576128928761288d83613077565b6129a2565b6020870196506001820191505b6000156128c5576128b8876128b383613091565b6129a2565b6020870196506001820191505b505b505050505050565b6128d881612d02565b6128e28184612d85565b92506128ed82612cbc565b8060005b8381101561291e5781516129058782611f76565b965061291083612d3f565b9250506001810190506128f1565b505050505050565b600061293182612d0d565b61293b8185612d90565b935061294683612cc6565b8060005b8381101561297757815161295e8882611f76565b975061296983612d4c565b92505060018101905061294a565b5085935050505092915050565b61298d81612dd1565b82525050565b61299c81612dd1565b82525050565b6129ab81612ddd565b82525050565b6129ba81612ddd565b82525050565b60006129cd601983612da1565b91506129d882613379565b602082019050919050565b60006129f0601383612da1565b91506129fb826133a2565b602082019050919050565b6000612a13602a83612da1565b9150612a1e826133cb565b604082019050919050565b6000612a36602b83612da1565b9150612a418261341a565b604082019050919050565b61024082016000820151612a636000850182612add565b506020820151612a766020850182611fac565b506040820151612a8960608501826128cf565b506060820151612a9c60a0850182612003565b506080820151612aaf60e0850182611f8e565b5060a0820151612ac361010085018261205a565b5060c0820151612ad76102208501826129a2565b50505050565b612ae681612e0a565b82525050565b612af581612e0a565b82525050565b60006020820190508181036000830152612b158184612926565b905092915050565b6000602082019050612b326000830184612993565b92915050565b6000602082019050612b4d60008301846129b1565b92915050565b60006020820190508181036000830152612b6c816129c0565b9050919050565b60006020820190508181036000830152612b8c816129e3565b9050919050565b60006020820190508181036000830152612bac81612a06565b9050919050565b60006020820190508181036000830152612bcc81612a29565b9050919050565b600061024082019050612be96000830184612a4c565b92915050565b6000602082019050612c046000830184612aec565b92915050565b6000606082019050612c1f6000830186612aec565b612c2c6020830185611f9d565b612c3960408301846129b1565b949350505050565b600061014082019050612c576000830185612aec565b612c6460208301846120b1565b9392505050565b6000604082019050612c806000830185612aec565b612c8d60208301846129b1565b9392505050565b6000819050919050565b6000819050919050565b6000819050919050565b6000819050919050565b6000819050919050565b6000819050602082019050919050565b600060029050919050565b600060029050919050565b600060099050919050565b600060099050919050565b600060029050919050565b600081519050919050565b6000602082019050919050565b6000602082019050919050565b6000602082019050919050565b6000602082019050919050565b6000602082019050919050565b600081905092915050565b600081905092915050565b600081905092915050565b600081905092915050565b600081905092915050565b600082825260208201905092915050565b600082825260208201905092915050565b60008160000b9050919050565b6000612dca82612dea565b9050919050565b60008115159050919050565b60008160000b9050919050565b600073ffffffffffffffffffffffffffffffffffffffff82169050919050565b6000819050919050565b600060ff82169050919050565b6000612e34612e2f836131d9565b612db2565b9050919050565b6000612e4e612e4983613345565b612db2565b9050919050565b6000612e68612e6383613352565b612db2565b9050919050565b6000612e82612e7d8361336c565b612db2565b9050919050565b6000612e9c612e97836131e6565b612db2565b9050919050565b6000612eb6612eb1836131f3565b612db2565b9050919050565b6000612ed0612ecb83613200565b612db2565b9050919050565b6000612eea612ee58361320d565b612db2565b9050919050565b6000612f04612eff8361321a565b612db2565b9050919050565b6000612f1e612f1983613227565b612db2565b9050919050565b6000612f38612f3383613234565b612db2565b9050919050565b6000612f52612f4d8361335f565b612db2565b9050919050565b6000612f6c612f6783613241565b612db2565b9050919050565b6000612f86612f818361324e565b612db2565b9050919050565b6000612fa0612f9b83613268565b612db2565b9050919050565b6000612fba612fb583613275565b612db2565b9050919050565b6000612fd4612fcf83613282565b612db2565b9050919050565b6000612fee612fe98361328f565b612db2565b9050919050565b60006130086130038361329c565b612db2565b9050919050565b600061302261301d836132a9565b612db2565b9050919050565b600061303c613037836132b6565b612db2565b9050919050565b6000613056613051836132c3565b612db2565b9050919050565b600061307061306b8361325b565b612db2565b9050919050565b600061308a613085836132d0565b612db2565b9050919050565b60006130a461309f836132dd565b612db2565b9050919050565b60006130be6130b9836132ea565b612db2565b9050919050565b60006130d86130d3836132f7565b612db2565b9050919050565b60006130f26130ed83613304565b612db2565b9050919050565b600061310c61310783613311565b612db2565b9050919050565b60006131266131218361331e565b612db2565b9050919050565b600061314061313b8361332b565b612db2565b9050919050565b600061315a61315583613338565b612db2565b9050919050565b600061316c82612e0a565b91507fffffffffffffffffffffffffffffffffffffffffffffffffffffffffffffffff82141561319f5761319e6131aa565b5b600182019050919050565b7f4e487b7100000000000000000000000000000000000000000000000000000000600052601160045260246000fd5b60008160001c9050919050565b60008160681c9050919050565b60008160701c9050919050565b60008160781c9050919050565b60008160801c9050919050565b60008160881c9050919050565b60008160901c9050919050565b60008160981c9050919050565b60008160a01c9050919050565b60008160a81c9050919050565b60008160101c9050919050565b60008160b01c9050919050565b60008160b81c9050919050565b60008160c01c9050919050565b60008160c81c9050919050565b60008160d01c9050919050565b60008160d81c9050919050565b60008160e01c9050919050565b60008160e81c9050919050565b60008160f01c9050919050565b60008160f81c9050919050565b60008160181c9050919050565b60008160201c9050919050565b60008160281c9050919050565b60008160301c9050919050565b60008160381c9050919050565b60008160401c9050919050565b60008160481c9050919050565b60008160501c9050919050565b60008160581c9050919050565b60008160081c9050919050565b60008160601c9050919050565b7f43616e6e6f74206368616c6c656e676520796f757273656c6600000000000000600082015250565b7f49742773206e6f7420796f7572207475726e2100000000000000000000000000600082015250565b7f47616d6520686173206e6f74206265656e20766572696669656420627920626f60008201527f746820706c617965727300000000000000000000000000000000000000000000602082015250565b7f47616d6520686173206e6f74206265656e20696e69746961746564206f72206960008201527f732066696e6e6973686564000000000000000000000000000000000000000000602082015250565b61347281612dbf565b811461347d57600080fd5b50565b61348981612ddd565b811461349457600080fd5b50565b6134a081612e0a565b81146134ab57600080fd5b50565b6134b781612e14565b81146134c257600080fd5b5056fea26469706673582212204274791c739d39a7a46e2ccecfe89ace9aaddd289fc1704a4ca3367c65146bc864736f6c63430008040033",
  "linkReferences": {},
  "deployedLinkReferences": {}
}