{
  "_format": "hh-sol-artifact-1",
  "contractName": "Game",
  "sourceName": "contracts/Game.sol",
  "abi": [
    {
      "inputs": [],
      "stateMutability": "nonpayable",
      "type": "constructor"
    },
    {
      "anonymous": false,
      "inputs": [
        {
          "indexed": false,
          "internalType": "uint256",
          "name": "_gameId",
          "type": "uint256"
        },
        {
          "indexed": false,
          "internalType": "int8",
          "name": "winner",
          "type": "int8"
        }
      ],
      "name": "GameDone",
      "type": "event"
    },
    {
      "inputs": [
        {
          "internalType": "uint256",
          "name": "",
          "type": "uint256"
        }
      ],
      "name": "allGames",
      "outputs": [
        {
          "internalType": "uint256",
          "name": "gameId",
          "type": "uint256"
        },
        {
          "internalType": "address",
          "name": "turn",
          "type": "address"
        },
        {
          "internalType": "int8",
          "name": "state",
          "type": "int8"
        }
      ],
      "stateMutability": "view",
      "type": "function"
    },
    {
      "inputs": [
        {
          "internalType": "uint256",
          "name": "_gameId",
          "type": "uint256"
        }
      ],
      "name": "checkIfBoardIsFilled",
      "outputs": [
        {
          "internalType": "bool",
          "name": "isTie",
          "type": "bool"
        }
      ],
      "stateMutability": "view",
      "type": "function"
    },
    {
      "inputs": [
        {
          "internalType": "uint256",
          "name": "_gameId",
          "type": "uint256"
        },
        {
          "internalType": "int8",
          "name": "_mark",
          "type": "int8"
        }
      ],
      "name": "checkWinner",
      "outputs": [
        {
          "internalType": "int8",
          "name": "state",
          "type": "int8"
        }
      ],
      "stateMutability": "view",
      "type": "function"
    },
    {
      "inputs": [
        {
          "internalType": "uint256",
          "name": "_gameId",
          "type": "uint256"
        },
        {
          "internalType": "int8",
          "name": "_mark",
          "type": "int8"
        }
      ],
      "name": "gameState",
      "outputs": [
        {
          "internalType": "bool",
          "name": "terminated",
          "type": "bool"
        }
      ],
      "stateMutability": "nonpayable",
      "type": "function"
    },
    {
      "inputs": [
        {
          "internalType": "address",
          "name": "",
          "type": "address"
        },
        {
          "internalType": "uint256",
          "name": "",
          "type": "uint256"
        }
      ],
      "name": "gamesByMe",
      "outputs": [
        {
          "internalType": "uint256",
          "name": "",
          "type": "uint256"
        }
      ],
      "stateMutability": "view",
      "type": "function"
    },
    {
      "inputs": [
        {
          "internalType": "address",
          "name": "",
          "type": "address"
        },
        {
          "internalType": "uint256",
          "name": "",
          "type": "uint256"
        }
      ],
      "name": "gamesByOther",
      "outputs": [
        {
          "internalType": "uint256",
          "name": "",
          "type": "uint256"
        }
      ],
      "stateMutability": "view",
      "type": "function"
    },
    {
      "inputs": [
        {
          "internalType": "uint256",
          "name": "_gameId",
          "type": "uint256"
        }
      ],
      "name": "getGame",
      "outputs": [
        {
          "components": [
            {
              "internalType": "uint256",
              "name": "gameId",
              "type": "uint256"
            },
            {
              "internalType": "address[2]",
              "name": "players",
              "type": "address[2]"
            },
            {
              "internalType": "bool[2]",
              "name": "verification",
              "type": "bool[2]"
            },
            {
              "internalType": "address",
              "name": "turn",
              "type": "address"
            },
            {
              "internalType": "int8[9]",
              "name": "game",
              "type": "int8[9]"
            },
            {
              "internalType": "int8",
              "name": "state",
              "type": "int8"
            }
          ],
          "internalType": "struct Game.GameComponent",
          "name": "game",
          "type": "tuple"
        }
      ],
      "stateMutability": "view",
      "type": "function"
    },
    {
      "inputs": [],
      "name": "getMyChallenges",
      "outputs": [
        {
          "internalType": "uint256[]",
          "name": "",
          "type": "uint256[]"
        }
      ],
      "stateMutability": "view",
      "type": "function"
    },
    {
      "inputs": [],
      "name": "getMyGames",
      "outputs": [
        {
          "internalType": "uint256[]",
          "name": "",
          "type": "uint256[]"
        }
      ],
      "stateMutability": "view",
      "type": "function"
    },
    {
      "inputs": [
        {
          "internalType": "address",
          "name": "player1",
          "type": "address"
        }
      ],
      "name": "initGame",
      "outputs": [],
      "stateMutability": "nonpayable",
      "type": "function"
    },
    {
      "inputs": [
        {
          "internalType": "uint8",
          "name": "position",
          "type": "uint8"
        },
        {
          "internalType": "uint256",
          "name": "_gameId",
          "type": "uint256"
        }
      ],
      "name": "makeMove",
      "outputs": [],
      "stateMutability": "nonpayable",
      "type": "function"
    },
    {
      "inputs": [
        {
          "internalType": "uint256",
          "name": "_gameId",
          "type": "uint256"
        }
      ],
      "name": "verifyGame",
      "outputs": [
        {
          "internalType": "bool",
          "name": "succes",
          "type": "bool"
        }
      ],
      "stateMutability": "nonpayable",
      "type": "function"
    }
  ],
  "bytecode": "0x608060405234801561001057600080fd5b5061248a806100206000396000f3fe608060405234801561001057600080fd5b50600436106100b45760003560e01c80637269deb5116100715780637269deb51461019f578063a0b55095146101cf578063a2f77bcc14610201578063b4a13aa514610231578063b62edb2114610261578063b9ca48fc1461027f576100b4565b80630210d751146100b95780631a7fbd94146100d7578063524d7daf146101075780636a5568be146101375780636b0e052d1461015357806371db9a911461016f575b600080fd5b6100c16102af565b6040516100ce9190612037565b60405180910390f35b6100f160048036038101906100ec9190611c9e565b610344565b6040516100fe9190612074565b60405180910390f35b610121600480360381019061011c9190611c75565b610782565b60405161012e9190612059565b60405180910390f35b610151600480360381019061014c9190611c10565b6109c6565b005b61016d60048036038101906101689190611cda565b610d5a565b005b61018960048036038101906101849190611c9e565b6114fd565b6040516101969190612059565b60405180910390f35b6101b960048036038101906101b49190611c39565b61162b565b6040516101c6919061210b565b60405180910390f35b6101e960048036038101906101e49190611c75565b61165c565b6040516101f893929190612126565b60405180910390f35b61021b60048036038101906102169190611c75565b6116b3565b60405161022891906120ef565b60405180910390f35b61024b60048036038101906102469190611c75565b6118ad565b6040516102589190612059565b60405180910390f35b610269611951565b6040516102769190612037565b60405180910390f35b61029960048036038101906102949190611c39565b6119e6565b6040516102a6919061210b565b60405180910390f35b6060600360003373ffffffffffffffffffffffffffffffffffffffff1673ffffffffffffffffffffffffffffffffffffffff16815260200190815260200160002080548060200260200160405190810160405280929190818152602001828054801561033a57602002820191906000526020600020905b815481526020019060010190808311610326575b5050505050905090565b600080600160008581526020019081526020016000206005016009806020026040519081016040528092919082600980156103ba576020028201916000905b82829054906101000a900460000b60000b815260200190600101906020826000010492830192600103820291508084116103835790505b505050505090506103c9611a3b565b60005b60098110156104d0578460000b838260098110610412577f4e487b7100000000000000000000000000000000000000000000000000000000600052603260045260246000fd5b602002015160000b1415610470578482826009811061045a577f4e487b7100000000000000000000000000000000000000000000000000000000600052603260045260246000fd5b602002019060000b908160000b815250506104bd565b60008282600981106104ab577f4e487b7100000000000000000000000000000000000000000000000000000000600052603260045260246000fd5b602002019060000b908160000b815250505b80806104c8906122b9565b9150506103cc565b5060006040518061010001604052806040518060600160405280600060ff168152602001600160ff168152602001600260ff1681525081526020016040518060600160405280600360ff168152602001600460ff168152602001600560ff1681525081526020016040518060600160405280600660ff168152602001600760ff168152602001600860ff1681525081526020016040518060600160405280600060ff168152602001600360ff168152602001600660ff1681525081526020016040518060600160405280600160ff168152602001600460ff168152602001600760ff1681525081526020016040518060600160405280600260ff168152602001600560ff168152602001600860ff1681525081526020016040518060600160405280600060ff168152602001600460ff168152602001600860ff1681525081526020016040518060600160405280600260ff168152602001600460ff168152602001600660ff168152508152509050600080600090505b6008811015610772576001915060005b600381101561074457600084836008811061069b577f4e487b7100000000000000000000000000000000000000000000000000000000600052603260045260246000fd5b602002015182600381106106d8577f4e487b7100000000000000000000000000000000000000000000000000000000600052603260045260246000fd5b602002015190506000868260ff166009811061071d577f4e487b7100000000000000000000000000000000000000000000000000000000600052603260045260246000fd5b602002015160000b141561073057600093505b50808061073c906122b9565b915050610657565b5060011515821515141561075f57869550505050505061077c565b808061076a906122b9565b915050610647565b5060039450505050505b92915050565b6000600160008381526020019081526020016000206001016000600281106107d3577f4e487b7100000000000000000000000000000000000000000000000000000000600052603260045260246000fd5b0160009054906101000a900473ffffffffffffffffffffffffffffffffffffffff1673ffffffffffffffffffffffffffffffffffffffff163373ffffffffffffffffffffffffffffffffffffffff1614156108a0576001806000848152602001908152602001600020600301600060028110610878577f4e487b7100000000000000000000000000000000000000000000000000000000600052603260045260246000fd5b602091828204019190066101000a81548160ff021916908315150217905550600190506109c1565b600160008381526020019081526020016000206001016001600281106108ef577f4e487b7100000000000000000000000000000000000000000000000000000000600052603260045260246000fd5b0160009054906101000a900473ffffffffffffffffffffffffffffffffffffffff1673ffffffffffffffffffffffffffffffffffffffff163373ffffffffffffffffffffffffffffffffffffffff1614156109bc576001806000848152602001908152602001600020600301600160028110610994577f4e487b7100000000000000000000000000000000000000000000000000000000600052603260045260246000fd5b602091828204019190066101000a81548160ff021916908315150217905550600190506109c1565b600090505b919050565b60006109d26000611a17565b905060006001600083815260200190815260200160002090508181600001819055503381600101600060028110610a32577f4e487b7100000000000000000000000000000000000000000000000000000000600052603260045260246000fd5b0160006101000a81548173ffffffffffffffffffffffffffffffffffffffff021916908373ffffffffffffffffffffffffffffffffffffffff1602179055508281600101600160028110610aaf577f4e487b7100000000000000000000000000000000000000000000000000000000600052603260045260246000fd5b0160006101000a81548173ffffffffffffffffffffffffffffffffffffffff021916908373ffffffffffffffffffffffffffffffffffffffff160217905550600081600301600060028110610b2d577f4e487b7100000000000000000000000000000000000000000000000000000000600052603260045260246000fd5b602091828204019190066101000a81548160ff021916908315150217905550600081600301600160028110610b8b577f4e487b7100000000000000000000000000000000000000000000000000000000600052603260045260246000fd5b602091828204019190066101000a81548160ff021916908315150217905550338160040160006101000a81548173ffffffffffffffffffffffffffffffffffffffff021916908373ffffffffffffffffffffffffffffffffffffffff1602179055506040518061012001604052806000800b60000b81526020016000800b81526020016000800b81526020016000800b81526020016000800b81526020016000800b81526020016000800b81526020016000800b81526020016000800b81525081600501906009610c5d929190611a5e565b5060038160060160006101000a81548160ff021916908360000b60ff160217905550610c896000611a25565b600360003373ffffffffffffffffffffffffffffffffffffffff1673ffffffffffffffffffffffffffffffffffffffff168152602001908152602001600020829080600181540180825580915050600190039060005260206000200160009091909190915055600260008473ffffffffffffffffffffffffffffffffffffffff1673ffffffffffffffffffffffffffffffffffffffff168152602001908152602001600020829080600181540180825580915050600190039060005260206000200160009091909190915055505050565b6001151560016000838152602001908152602001600020600301600060028110610dad577f4e487b7100000000000000000000000000000000000000000000000000000000600052603260045260246000fd5b602091828204019190069054906101000a900460ff161515148015610e3a57506001151560016000838152602001908152602001600020600301600160028110610e20577f4e487b7100000000000000000000000000000000000000000000000000000000600052603260045260246000fd5b602091828204019190069054906101000a900460ff161515145b610e79576040517f08c379a0000000000000000000000000000000000000000000000000000000008152600401610e70906120af565b60405180910390fd5b60036001600083815260200190815260200160002060060160009054906101000a900460000b60000b14610ee2576040517f08c379a0000000000000000000000000000000000000000000000000000000008152600401610ed9906120cf565b60405180910390fd5b6001600082815260200190815260200160002060040160009054906101000a900473ffffffffffffffffffffffffffffffffffffffff1673ffffffffffffffffffffffffffffffffffffffff163373ffffffffffffffffffffffffffffffffffffffff1614610f86576040517f08c379a0000000000000000000000000000000000000000000000000000000008152600401610f7d9061208f565b60405180910390fd5b600060016000838152602001908152602001600020600101600060028110610fd7577f4e487b7100000000000000000000000000000000000000000000000000000000600052603260045260246000fd5b0160009054906101000a900473ffffffffffffffffffffffffffffffffffffffff1673ffffffffffffffffffffffffffffffffffffffff163373ffffffffffffffffffffffffffffffffffffffff1614801561109c57506000600160008481526020019081526020016000206005018460ff1660098110611081577f4e487b7100000000000000000000000000000000000000000000000000000000600052603260045260246000fd5b602091828204019190069054906101000a900460000b60000b145b1561122c577fffffffffffffffffffffffffffffffffffffffffffffffffffffffffffffffff600160008481526020019081526020016000206005018460ff1660098110611113577f4e487b7100000000000000000000000000000000000000000000000000000000600052603260045260246000fd5b602091828204019190066101000a81548160ff021916908360000b60ff160217905550611160827fffffffffffffffffffffffffffffffffffffffffffffffffffffffffffffffff6114fd565b9050600160008381526020019081526020016000206001016001600281106111b1577f4e487b7100000000000000000000000000000000000000000000000000000000600052603260045260246000fd5b0160009054906101000a900473ffffffffffffffffffffffffffffffffffffffff166001600084815260200190815260200160002060040160006101000a81548173ffffffffffffffffffffffffffffffffffffffff021916908373ffffffffffffffffffffffffffffffffffffffff16021790555061148e565b6001600083815260200190815260200160002060010160016002811061127b577f4e487b7100000000000000000000000000000000000000000000000000000000600052603260045260246000fd5b0160009054906101000a900473ffffffffffffffffffffffffffffffffffffffff1673ffffffffffffffffffffffffffffffffffffffff163373ffffffffffffffffffffffffffffffffffffffff1614801561134057506000600160008481526020019081526020016000206005018460ff1660098110611325577f4e487b7100000000000000000000000000000000000000000000000000000000600052603260045260246000fd5b602091828204019190069054906101000a900460000b60000b145b1561148d5760018060008481526020019081526020016000206005018460ff1660098110611397577f4e487b7100000000000000000000000000000000000000000000000000000000600052603260045260246000fd5b602091828204019190066101000a81548160ff021916908360000b60ff1602179055506113c58260016114fd565b905060016000838152602001908152602001600020600101600060028110611416577f4e487b7100000000000000000000000000000000000000000000000000000000600052603260045260246000fd5b0160009054906101000a900473ffffffffffffffffffffffffffffffffffffffff166001600084815260200190815260200160002060040160006101000a81548173ffffffffffffffffffffffffffffffffffffffff021916908373ffffffffffffffffffffffffffffffffffffffff1602179055505b5b6001151581151514156114f8577f82bfb6d1aed88e000c2445617df7da548df8e369b1412a6cd5aaf1af6be2221f826001600085815260200190815260200160002060060160009054906101000a900460000b6040516114ef92919061215d565b60405180910390a15b505050565b60008061150a8484610344565b90507fffffffffffffffffffffffffffffffffffffffffffffffffffffffffffffffff8160000b141561156f5760006001600086815260200190815260200160002060060160006101000a81548160ff021916908360000b60ff16021790555061161f565b60018160000b14156115b257600180600086815260200190815260200160002060060160006101000a81548160ff021916908360000b60ff16021790555061161e565b60038160000b141561161d5760006115c9856118ad565b90506001151581151514156116105760026001600087815260200190815260200160002060060160006101000a81548160ff021916908360000b60ff16021790555061161b565b600192505050611625565b505b5b5b60009150505b92915050565b6002602052816000526040600020818154811061164757600080fd5b90600052602060002001600091509150505481565b60016020528060005260406000206000915090508060000154908060040160009054906101000a900473ffffffffffffffffffffffffffffffffffffffff16908060060160009054906101000a900460000b905083565b6116bb611afb565b600160008381526020019081526020016000206040518060c00160405290816000820154815260200160018201600280602002604051908101604052809291908260028015611755576020028201915b8160009054906101000a900473ffffffffffffffffffffffffffffffffffffffff1673ffffffffffffffffffffffffffffffffffffffff168152602001906001019080831161170b575b50505050508152602001600382016002806020026040519081016040528092919082600280156117bf576020028201916000905b82829054906101000a900460ff161515815260200190600101906020826000010492830192600103820291508084116117895790505b505050505081526020016004820160009054906101000a900473ffffffffffffffffffffffffffffffffffffffff1673ffffffffffffffffffffffffffffffffffffffff1673ffffffffffffffffffffffffffffffffffffffff16815260200160058201600980602002604051908101604052809291908260098015611880576020028201916000905b82829054906101000a900460000b60000b815260200190600101906020826000010492830192600103820291508084116118495790505b505050505081526020016006820160009054906101000a900460000b60000b60000b815250509050919050565b6000806001905060005b6008811015611947576000600160008681526020019081526020016000206005018260098110611910577f4e487b7100000000000000000000000000000000000000000000000000000000600052603260045260246000fd5b602091828204019190069054906101000a900460000b60000b141561193457600091505b808061193f906122b9565b9150506118b7565b5080915050919050565b6060600260003373ffffffffffffffffffffffffffffffffffffffff1673ffffffffffffffffffffffffffffffffffffffff1681526020019081526020016000208054806020026020016040519081016040528092919081815260200182805480156119dc57602002820191906000526020600020905b8154815260200190600101908083116119c8575b5050505050905090565b60036020528160005260406000208181548110611a0257600080fd5b90600052602060002001600091509150505481565b600081600001549050919050565b6001816000016000828254019250508190555050565b604051806101200160405280600990602082028036833780820191505090505090565b826009601f01602090048101928215611aea5791602002820160005b83821115611abb57835183826101000a81548160ff021916908360000b60ff1602179055509260200192600101602081600001049283019260010302611a7a565b8015611ae85782816101000a81549060ff0219169055600101602081600001049283019260010302611abb565b505b509050611af79190611b5b565b5090565b6040518060c0016040528060008152602001611b15611b78565b8152602001611b22611b9a565b8152602001600073ffffffffffffffffffffffffffffffffffffffff168152602001611b4c611a3b565b81526020016000800b81525090565b5b80821115611b74576000816000905550600101611b5c565b5090565b6040518060400160405280600290602082028036833780820191505090505090565b6040518060400160405280600290602082028036833780820191505090505090565b600081359050611bcb816123f8565b92915050565b600081359050611be08161240f565b92915050565b600081359050611bf581612426565b92915050565b600081359050611c0a8161243d565b92915050565b600060208284031215611c2257600080fd5b6000611c3084828501611bbc565b91505092915050565b60008060408385031215611c4c57600080fd5b6000611c5a85828601611bbc565b9250506020611c6b85828601611be6565b9150509250929050565b600060208284031215611c8757600080fd5b6000611c9584828501611be6565b91505092915050565b60008060408385031215611cb157600080fd5b6000611cbf85828601611be6565b9250506020611cd085828601611bd1565b9150509250929050565b60008060408385031215611ced57600080fd5b6000611cfb85828601611bfb565b9250506020611d0c85828601611be6565b9150509250929050565b6000611d228383611d76565b60208301905092915050565b6000611d3a8383611ef7565b60208301905092915050565b6000611d528383611f15565b60208301905092915050565b6000611d6a8383612019565b60208301905092915050565b611d7f81612257565b82525050565b611d8e81612257565b82525050565b611d9d816121b4565b611da78184612214565b9250611db282612186565b8060005b83811015611de3578151611dca8782611d16565b9650611dd5836121e0565b925050600181019050611db6565b505050505050565b611df4816121bf565b611dfe818461221f565b9250611e0982612190565b8060005b83811015611e3a578151611e218782611d2e565b9650611e2c836121ed565b925050600181019050611e0d565b505050505050565b611e4b816121ca565b611e55818461222a565b9250611e608261219a565b8060005b83811015611e91578151611e788782611d46565b9650611e83836121fa565b925050600181019050611e64565b505050505050565b6000611ea4826121d5565b611eae8185612235565b9350611eb9836121a4565b8060005b83811015611eea578151611ed18882611d5e565b9750611edc83612207565b925050600181019050611ebd565b5085935050505092915050565b611f0081612269565b82525050565b611f0f81612269565b82525050565b611f1e81612275565b82525050565b611f2d81612275565b82525050565b6000611f40601383612246565b9150611f4b82612331565b602082019050919050565b6000611f63602a83612246565b9150611f6e8261235a565b604082019050919050565b6000611f86602b83612246565b9150611f91826123a9565b604082019050919050565b61020082016000820151611fb36000850182612019565b506020820151611fc66020850182611d94565b506040820151611fd96060850182611deb565b506060820151611fec60a0850182611d76565b506080820151611fff60c0850182611e42565b5060a08201516120136101e0850182611f15565b50505050565b612022816122a2565b82525050565b612031816122a2565b82525050565b600060208201905081810360008301526120518184611e99565b905092915050565b600060208201905061206e6000830184611f06565b92915050565b60006020820190506120896000830184611f24565b92915050565b600060208201905081810360008301526120a881611f33565b9050919050565b600060208201905081810360008301526120c881611f56565b9050919050565b600060208201905081810360008301526120e881611f79565b9050919050565b6000610200820190506121056000830184611f9c565b92915050565b60006020820190506121206000830184612028565b92915050565b600060608201905061213b6000830186612028565b6121486020830185611d85565b6121556040830184611f24565b949350505050565b60006040820190506121726000830185612028565b61217f6020830184611f24565b9392505050565b6000819050919050565b6000819050919050565b6000819050919050565b6000819050602082019050919050565b600060029050919050565b600060029050919050565b600060099050919050565b600081519050919050565b6000602082019050919050565b6000602082019050919050565b6000602082019050919050565b6000602082019050919050565b600081905092915050565b600081905092915050565b600081905092915050565b600082825260208201905092915050565b600082825260208201905092915050565b600061226282612282565b9050919050565b60008115159050919050565b60008160000b9050919050565b600073ffffffffffffffffffffffffffffffffffffffff82169050919050565b6000819050919050565b600060ff82169050919050565b60006122c4826122a2565b91507fffffffffffffffffffffffffffffffffffffffffffffffffffffffffffffffff8214156122f7576122f6612302565b5b600182019050919050565b7f4e487b7100000000000000000000000000000000000000000000000000000000600052601160045260246000fd5b7f49742773206e6f7420796f7572207475726e2100000000000000000000000000600082015250565b7f47616d6520686173206e6f74206265656e20766572696669656420627920626f60008201527f746820706c617965727300000000000000000000000000000000000000000000602082015250565b7f47616d6520686173206e6f74206265656e20696e69746961746564206f72206960008201527f732066696e6e6973686564000000000000000000000000000000000000000000602082015250565b61240181612257565b811461240c57600080fd5b50565b61241881612275565b811461242357600080fd5b50565b61242f816122a2565b811461243a57600080fd5b50565b612446816122ac565b811461245157600080fd5b5056fea2646970667358221220e5be6452e6320708077062f2bcf664fd01ae7f86e3a9d438f10e48636d9b694964736f6c63430008040033",
  "linkReferences": {},
  "deployedLinkReferences": {}
}