{
  "_format": "hh-sol-artifact-1",
  "contractName": "Noni",
  "sourceName": "contracts/Noni.sol",
  "abi": [
    {
      "inputs": [],
      "stateMutability": "nonpayable",
      "type": "constructor"
    },
    {
      "anonymous": false,
      "inputs": [
        {
          "indexed": true,
          "internalType": "address",
          "name": "owner",
          "type": "address"
        },
        {
          "indexed": true,
          "internalType": "address",
          "name": "approved",
          "type": "address"
        },
        {
          "indexed": true,
          "internalType": "uint256",
          "name": "tokenId",
          "type": "uint256"
        }
      ],
      "name": "Approval",
      "type": "event"
    },
    {
      "anonymous": false,
      "inputs": [
        {
          "indexed": true,
          "internalType": "address",
          "name": "owner",
          "type": "address"
        },
        {
          "indexed": true,
          "internalType": "address",
          "name": "operator",
          "type": "address"
        },
        {
          "indexed": false,
          "internalType": "bool",
          "name": "approved",
          "type": "bool"
        }
      ],
      "name": "ApprovalForAll",
      "type": "event"
    },
    {
      "anonymous": false,
      "inputs": [
        {
          "indexed": false,
          "internalType": "address",
          "name": "owner",
          "type": "address"
        },
        {
          "indexed": false,
          "internalType": "uint256",
          "name": "tokenId",
          "type": "uint256"
        }
      ],
      "name": "Minted",
      "type": "event"
    },
    {
      "anonymous": false,
      "inputs": [
        {
          "indexed": false,
          "internalType": "address",
          "name": "owner",
          "type": "address"
        }
      ],
      "name": "NewCID",
      "type": "event"
    },
    {
      "anonymous": false,
      "inputs": [
        {
          "indexed": true,
          "internalType": "address",
          "name": "previousOwner",
          "type": "address"
        },
        {
          "indexed": true,
          "internalType": "address",
          "name": "newOwner",
          "type": "address"
        }
      ],
      "name": "OwnershipTransferred",
      "type": "event"
    },
    {
      "anonymous": false,
      "inputs": [
        {
          "indexed": true,
          "internalType": "address",
          "name": "from",
          "type": "address"
        },
        {
          "indexed": true,
          "internalType": "address",
          "name": "to",
          "type": "address"
        },
        {
          "indexed": true,
          "internalType": "uint256",
          "name": "tokenId",
          "type": "uint256"
        }
      ],
      "name": "Transfer",
      "type": "event"
    },
    {
      "inputs": [
        {
          "internalType": "address",
          "name": "to",
          "type": "address"
        },
        {
          "internalType": "uint256",
          "name": "tokenId",
          "type": "uint256"
        }
      ],
      "name": "approve",
      "outputs": [],
      "stateMutability": "nonpayable",
      "type": "function"
    },
    {
      "inputs": [
        {
          "internalType": "address",
          "name": "owner",
          "type": "address"
        }
      ],
      "name": "balanceOf",
      "outputs": [
        {
          "internalType": "uint256",
          "name": "",
          "type": "uint256"
        }
      ],
      "stateMutability": "view",
      "type": "function"
    },
    {
      "inputs": [
        {
          "internalType": "uint256",
          "name": "tokenId",
          "type": "uint256"
        }
      ],
      "name": "getApproved",
      "outputs": [
        {
          "internalType": "address",
          "name": "",
          "type": "address"
        }
      ],
      "stateMutability": "view",
      "type": "function"
    },
    {
      "inputs": [
        {
          "internalType": "uint256",
          "name": "tokenId",
          "type": "uint256"
        }
      ],
      "name": "getBids",
      "outputs": [
        {
          "components": [
            {
              "internalType": "uint256",
              "name": "bid",
              "type": "uint256"
            },
            {
              "internalType": "address",
              "name": "bidder",
              "type": "address"
            },
            {
              "internalType": "bytes32",
              "name": "pubkey",
              "type": "bytes32"
            }
          ],
          "internalType": "struct Noni.Bid[]",
          "name": "",
          "type": "tuple[]"
        }
      ],
      "stateMutability": "view",
      "type": "function"
    },
    {
      "inputs": [],
      "name": "getNumberOfNonis",
      "outputs": [
        {
          "internalType": "uint256",
          "name": "",
          "type": "uint256"
        }
      ],
      "stateMutability": "view",
      "type": "function"
    },
    {
      "inputs": [
        {
          "internalType": "address",
          "name": "owner",
          "type": "address"
        },
        {
          "internalType": "address",
          "name": "operator",
          "type": "address"
        }
      ],
      "name": "isApprovedForAll",
      "outputs": [
        {
          "internalType": "bool",
          "name": "",
          "type": "bool"
        }
      ],
      "stateMutability": "view",
      "type": "function"
    },
    {
      "inputs": [],
      "name": "name",
      "outputs": [
        {
          "internalType": "string",
          "name": "",
          "type": "string"
        }
      ],
      "stateMutability": "view",
      "type": "function"
    },
    {
      "inputs": [
        {
          "internalType": "uint256",
          "name": "",
          "type": "uint256"
        }
      ],
      "name": "noniInfos",
      "outputs": [
        {
          "internalType": "string",
          "name": "name",
          "type": "string"
        },
        {
          "internalType": "string",
          "name": "imageURI",
          "type": "string"
        },
        {
          "internalType": "uint256",
          "name": "elo",
          "type": "uint256"
        },
        {
          "internalType": "string",
          "name": "modelID",
          "type": "string"
        },
        {
          "internalType": "string",
          "name": "weightsID",
          "type": "string"
        },
        {
          "internalType": "bool",
          "name": "forSale",
          "type": "bool"
        }
      ],
      "stateMutability": "view",
      "type": "function"
    },
    {
      "inputs": [],
      "name": "owner",
      "outputs": [
        {
          "internalType": "address",
          "name": "",
          "type": "address"
        }
      ],
      "stateMutability": "view",
      "type": "function"
    },
    {
      "inputs": [
        {
          "internalType": "uint256",
          "name": "tokenId",
          "type": "uint256"
        }
      ],
      "name": "ownerOf",
      "outputs": [
        {
          "internalType": "address",
          "name": "",
          "type": "address"
        }
      ],
      "stateMutability": "view",
      "type": "function"
    },
    {
      "inputs": [
        {
          "internalType": "uint256",
          "name": "tokenId",
          "type": "uint256"
        },
        {
          "internalType": "uint256",
          "name": "amount",
          "type": "uint256"
        },
        {
          "internalType": "bytes32",
          "name": "pubKey",
          "type": "bytes32"
        }
      ],
      "name": "placeBid",
      "outputs": [],
      "stateMutability": "nonpayable",
      "type": "function"
    },
    {
      "inputs": [],
      "name": "renounceOwnership",
      "outputs": [],
      "stateMutability": "nonpayable",
      "type": "function"
    },
    {
      "inputs": [
        {
          "internalType": "string",
          "name": "modelCID",
          "type": "string"
        },
        {
          "internalType": "string",
          "name": "weightsCID",
          "type": "string"
        }
      ],
      "name": "safeMint",
      "outputs": [],
      "stateMutability": "nonpayable",
      "type": "function"
    },
    {
      "inputs": [
        {
          "internalType": "address",
          "name": "from",
          "type": "address"
        },
        {
          "internalType": "address",
          "name": "to",
          "type": "address"
        },
        {
          "internalType": "uint256",
          "name": "tokenId",
          "type": "uint256"
        }
      ],
      "name": "safeTransferFrom",
      "outputs": [],
      "stateMutability": "nonpayable",
      "type": "function"
    },
    {
      "inputs": [
        {
          "internalType": "address",
          "name": "from",
          "type": "address"
        },
        {
          "internalType": "address",
          "name": "to",
          "type": "address"
        },
        {
          "internalType": "uint256",
          "name": "tokenId",
          "type": "uint256"
        },
        {
          "internalType": "bytes",
          "name": "_data",
          "type": "bytes"
        }
      ],
      "name": "safeTransferFrom",
      "outputs": [],
      "stateMutability": "nonpayable",
      "type": "function"
    },
    {
      "inputs": [
        {
          "internalType": "address",
          "name": "operator",
          "type": "address"
        },
        {
          "internalType": "bool",
          "name": "approved",
          "type": "bool"
        }
      ],
      "name": "setApprovalForAll",
      "outputs": [],
      "stateMutability": "nonpayable",
      "type": "function"
    },
    {
      "inputs": [
        {
          "internalType": "uint256",
          "name": "tokenId",
          "type": "uint256"
        },
        {
          "internalType": "bool",
          "name": "state",
          "type": "bool"
        }
      ],
      "name": "setSaleState",
      "outputs": [],
      "stateMutability": "nonpayable",
      "type": "function"
    },
    {
      "inputs": [
        {
          "internalType": "bytes4",
          "name": "interfaceId",
          "type": "bytes4"
        }
      ],
      "name": "supportsInterface",
      "outputs": [
        {
          "internalType": "bool",
          "name": "",
          "type": "bool"
        }
      ],
      "stateMutability": "view",
      "type": "function"
    },
    {
      "inputs": [],
      "name": "symbol",
      "outputs": [
        {
          "internalType": "string",
          "name": "",
          "type": "string"
        }
      ],
      "stateMutability": "view",
      "type": "function"
    },
    {
      "inputs": [
        {
          "internalType": "uint256",
          "name": "index",
          "type": "uint256"
        }
      ],
      "name": "tokenByIndex",
      "outputs": [
        {
          "internalType": "uint256",
          "name": "",
          "type": "uint256"
        }
      ],
      "stateMutability": "view",
      "type": "function"
    },
    {
      "inputs": [
        {
          "internalType": "address",
          "name": "owner",
          "type": "address"
        },
        {
          "internalType": "uint256",
          "name": "index",
          "type": "uint256"
        }
      ],
      "name": "tokenOfOwnerByIndex",
      "outputs": [
        {
          "internalType": "uint256",
          "name": "",
          "type": "uint256"
        }
      ],
      "stateMutability": "view",
      "type": "function"
    },
    {
      "inputs": [
        {
          "internalType": "uint256",
          "name": "tokenId",
          "type": "uint256"
        }
      ],
      "name": "tokenURI",
      "outputs": [
        {
          "internalType": "string",
          "name": "",
          "type": "string"
        }
      ],
      "stateMutability": "view",
      "type": "function"
    },
    {
      "inputs": [],
      "name": "totalSupply",
      "outputs": [
        {
          "internalType": "uint256",
          "name": "",
          "type": "uint256"
        }
      ],
      "stateMutability": "view",
      "type": "function"
    },
    {
      "inputs": [
        {
          "internalType": "address",
          "name": "_from",
          "type": "address"
        },
        {
          "internalType": "address",
          "name": "_to",
          "type": "address"
        },
        {
          "internalType": "uint256",
          "name": "tokenId",
          "type": "uint256"
        },
        {
          "internalType": "string",
          "name": "newModelCID",
          "type": "string"
        },
        {
          "internalType": "string",
          "name": "newWeightsCID",
          "type": "string"
        }
      ],
      "name": "transfer",
      "outputs": [],
      "stateMutability": "nonpayable",
      "type": "function"
    },
    {
      "inputs": [
        {
          "internalType": "address",
          "name": "from",
          "type": "address"
        },
        {
          "internalType": "address",
          "name": "to",
          "type": "address"
        },
        {
          "internalType": "uint256",
          "name": "tokenId",
          "type": "uint256"
        }
      ],
      "name": "transferFrom",
      "outputs": [],
      "stateMutability": "nonpayable",
      "type": "function"
    },
    {
      "inputs": [
        {
          "internalType": "address",
          "name": "newOwner",
          "type": "address"
        }
      ],
      "name": "transferOwnership",
      "outputs": [],
      "stateMutability": "nonpayable",
      "type": "function"
    },
    {
      "inputs": [
        {
          "internalType": "uint256",
          "name": "tokenId",
          "type": "uint256"
        },
        {
          "internalType": "string",
          "name": "modelID",
          "type": "string"
        },
        {
          "internalType": "string",
          "name": "weightsID",
          "type": "string"
        }
      ],
      "name": "updateCID",
      "outputs": [],
      "stateMutability": "nonpayable",
      "type": "function"
    },
    {
      "inputs": [
        {
          "internalType": "uint256",
          "name": "tokenId",
          "type": "uint256"
        },
        {
          "internalType": "uint256",
          "name": "newElo",
          "type": "uint256"
        }
      ],
      "name": "updateElo",
      "outputs": [],
      "stateMutability": "nonpayable",
      "type": "function"
    }
  ],
  "bytecode": "0x608060405260405180610160016040528061013181526020016200513f6101319139600d908051906020019062000038929190620001db565b503480156200004657600080fd5b506040518060400160405280600481526020017f4e6f6e69000000000000000000000000000000000000000000000000000000008152506040518060400160405280600481526020017f4e4f4e49000000000000000000000000000000000000000000000000000000008152508160009080519060200190620000cb929190620001db565b508060019080519060200190620000e4929190620001db565b50505062000107620000fb6200010d60201b60201c565b6200011560201b60201c565b620002f0565b600033905090565b6000600b60009054906101000a900473ffffffffffffffffffffffffffffffffffffffff16905081600b60006101000a81548173ffffffffffffffffffffffffffffffffffffffff021916908373ffffffffffffffffffffffffffffffffffffffff1602179055508173ffffffffffffffffffffffffffffffffffffffff168173ffffffffffffffffffffffffffffffffffffffff167f8be0079c531659141344cd1fd0a4f28419497f9722a3daafe3b4186f6b6457e060405160405180910390a35050565b828054620001e9906200028b565b90600052602060002090601f0160209004810192826200020d576000855562000259565b82601f106200022857805160ff191683800117855562000259565b8280016001018555821562000259579182015b82811115620002585782518255916020019190600101906200023b565b5b5090506200026891906200026c565b5090565b5b80821115620002875760008160009055506001016200026d565b5090565b60006002820490506001821680620002a457607f821691505b60208210811415620002bb57620002ba620002c1565b5b50919050565b7f4e487b7100000000000000000000000000000000000000000000000000000000600052602260045260246000fd5b614e3f80620003006000396000f3fe608060405234801561001057600080fd5b50600436106101c45760003560e01c8063715018a6116100f9578063c87b56dd11610097578063e985e9c511610071578063e985e9c514610501578063f2fde38b14610531578063fac200a11461054d578063fe29e60f14610569576101c4565b8063c87b56dd14610499578063d01de57b146104c9578063e9307356146104e5576101c4565b80638f1b7886116100d35780638f1b78861461042757806395d89b4114610443578063a22cb46514610461578063b88d4fde1461047d576101c4565b8063715018a6146103e357806385a222ae146103ed5780638da5cb5b14610409576101c4565b80632f745c59116101665780634fa1f7ae116101405780634fa1f7ae1461034957806357017b56146103655780636352211e1461038357806370a08231146103b3576101c4565b80632f745c59146102cd57806342842e0e146102fd5780634f6ccce714610319576101c4565b8063095ea7b3116101a2578063095ea7b314610247578063131d9a271461026357806318160ddd1461029357806323b872dd146102b1576101c4565b806301ffc9a7146101c957806306fdde03146101f9578063081812fc14610217575b600080fd5b6101e360048036038101906101de9190613379565b61059e565b6040516101f09190613e73565b60405180910390f35b6102016105b0565b60405161020e9190613e8e565b60405180910390f35b610231600480360381019061022c9190613437565b610642565b60405161023e9190613dc1565b60405180910390f35b610261600480360381019061025c919061333d565b6106c7565b005b61027d60048036038101906102789190613437565b6107df565b60405161028a9190613e51565b60405180910390f35b61029b6108cf565b6040516102a8919061414d565b60405180910390f35b6102cb60048036038101906102c69190613190565b6108dc565b005b6102e760048036038101906102e2919061333d565b61093c565b6040516102f4919061414d565b60405180910390f35b61031760048036038101906103129190613190565b6109e1565b005b610333600480360381019061032e9190613437565b610a01565b604051610340919061414d565b60405180910390f35b610363600480360381019061035e91906133cb565b610a98565b005b61036d610c1a565b60405161037a919061414d565b60405180910390f35b61039d60048036038101906103989190613437565b610c2b565b6040516103aa9190613dc1565b60405180910390f35b6103cd60048036038101906103c8919061312b565b610cdd565b6040516103da919061414d565b60405180910390f35b6103eb610d95565b005b61040760048036038101906104029190613460565b610e1d565b005b610411610ed0565b60405161041e9190613dc1565b60405180910390f35b610441600480360381019061043c919061325a565b610efa565b005b61044b610f79565b6040516104589190613e8e565b60405180910390f35b61047b60048036038101906104769190613301565b61100b565b005b610497600480360381019061049291906131df565b611021565b005b6104b360048036038101906104ae9190613437565b611083565b6040516104c09190613e8e565b60405180910390f35b6104e360048036038101906104de9190613557565b6113e0565b005b6104ff60048036038101906104fa919061351b565b6114c3565b005b61051b60048036038101906105169190613154565b611522565b6040516105289190613e73565b60405180910390f35b61054b6004803603810190610546919061312b565b6115b6565b005b6105676004803603810190610562919061349c565b6116ae565b005b610583600480360381019061057e9190613437565b611780565b60405161059596959493929190613eb0565b60405180910390f35b60006105a9826119e9565b9050919050565b6060600080546105bf90614455565b80601f01602080910402602001604051908101604052809291908181526020018280546105eb90614455565b80156106385780601f1061060d57610100808354040283529160200191610638565b820191906000526020600020905b81548152906001019060200180831161061b57829003601f168201915b5050505050905090565b600061064d82611a63565b61068c576040517f08c379a0000000000000000000000000000000000000000000000000000000008152600401610683906140ad565b60405180910390fd5b6004600083815260200190815260200160002060009054906101000a900473ffffffffffffffffffffffffffffffffffffffff169050919050565b60006106d282610c2b565b90508073ffffffffffffffffffffffffffffffffffffffff168373ffffffffffffffffffffffffffffffffffffffff161415610743576040517f08c379a000000000000000000000000000000000000000000000000000000000815260040161073a906140ed565b60405180910390fd5b8073ffffffffffffffffffffffffffffffffffffffff16610762611acf565b73ffffffffffffffffffffffffffffffffffffffff16148061079157506107908161078b611acf565b611522565b5b6107d0576040517f08c379a00000000000000000000000000000000000000000000000000000000081526004016107c79061402d565b60405180910390fd5b6107da8383611ad7565b505050565b6060600e60008381526020019081526020016000206006016000838152602001908152602001600020805480602002602001604051908101604052809291908181526020016000905b828210156108c45783829060005260206000209060030201604051806060016040529081600082015481526020016001820160009054906101000a900473ffffffffffffffffffffffffffffffffffffffff1673ffffffffffffffffffffffffffffffffffffffff1673ffffffffffffffffffffffffffffffffffffffff16815260200160028201548152505081526020019060010190610828565b505050509050919050565b6000600980549050905090565b6108ed6108e7611acf565b82611b90565b61092c576040517f08c379a00000000000000000000000000000000000000000000000000000000081526004016109239061410d565b60405180910390fd5b610937838383611c6e565b505050565b600061094783610cdd565b8210610988576040517f08c379a000000000000000000000000000000000000000000000000000000000815260040161097f90613f2d565b60405180910390fd5b600760008473ffffffffffffffffffffffffffffffffffffffff1673ffffffffffffffffffffffffffffffffffffffff168152602001908152602001600020600083815260200190815260200160002054905092915050565b6109fc83838360405180602001604052806000815250611021565b505050565b6000610a0b6108cf565b8210610a4c576040517f08c379a0000000000000000000000000000000000000000000000000000000008152600401610a439061412d565b60405180910390fd5b60098281548110610a86577f4e487b7100000000000000000000000000000000000000000000000000000000600052603260045260246000fd5b90600052602060002001549050919050565b6000610aa4600c611ed5565b9050610ab0600c611ee3565b6000600d610abd83611ef9565b604051602001610ace929190613c2e565b60405160208183030381529060405290506000600e60008481526020019081526020016000209050610aff83611ef9565b604051602001610b0f9190613c5d565b604051602081830303815290604052816000019080519060200190610b35929190612ec8565b50610b5e82604051602001610b4a9190613c17565b6040516020818303038152906040526120a6565b816001019080519060200190610b75929190612ec8565b50610190816002018190555084816003019080519060200190610b99929190612ec8565b5083816004019080519060200190610bb2929190612ec8565b5060008160050160006101000a81548160ff021916908315150217905550610bda3384612230565b7f30385c845b448a36257a6a1716e6ad2e1bc2cbe333cde1e69fe849ad6511adfe3384604051610c0b929190613e28565b60405180910390a15050505050565b6000610c26600c611ed5565b905090565b6000806002600084815260200190815260200160002060009054906101000a900473ffffffffffffffffffffffffffffffffffffffff169050600073ffffffffffffffffffffffffffffffffffffffff168173ffffffffffffffffffffffffffffffffffffffff161415610cd4576040517f08c379a0000000000000000000000000000000000000000000000000000000008152600401610ccb9061406d565b60405180910390fd5b80915050919050565b60008073ffffffffffffffffffffffffffffffffffffffff168273ffffffffffffffffffffffffffffffffffffffff161415610d4e576040517f08c379a0000000000000000000000000000000000000000000000000000000008152600401610d459061404d565b60405180910390fd5b600360008373ffffffffffffffffffffffffffffffffffffffff1673ffffffffffffffffffffffffffffffffffffffff168152602001908152602001600020549050919050565b610d9d611acf565b73ffffffffffffffffffffffffffffffffffffffff16610dbb610ed0565b73ffffffffffffffffffffffffffffffffffffffff1614610e11576040517f08c379a0000000000000000000000000000000000000000000000000000000008152600401610e08906140cd565b60405180910390fd5b610e1b600061224e565b565b3373ffffffffffffffffffffffffffffffffffffffff16610e3d83610c2b565b73ffffffffffffffffffffffffffffffffffffffff1614610e5d57600080fd5b80600e600084815260200190815260200160002060050160006101000a81548160ff021916908315150217905550600015158115151415610ecc57600e600083815260200190815260200160002060060160008381526020019081526020016000206000610ecb9190612f4e565b5b5050565b6000600b60009054906101000a900473ffffffffffffffffffffffffffffffffffffffff16905090565b600e600084815260200190815260200160002060060160008481526020019081526020016000206000610f2d9190612f4e565b6000600e600085815260200190815260200160002060050160006101000a81548160ff021916908315150217905550610f678383836116ae565b610f728585856109e1565b5050505050565b606060018054610f8890614455565b80601f0160208091040260200160405190810160405280929190818152602001828054610fb490614455565b80156110015780601f10610fd657610100808354040283529160200191611001565b820191906000526020600020905b815481529060010190602001808311610fe457829003601f168201915b5050505050905090565b61101d611016611acf565b8383612314565b5050565b61103261102c611acf565b83611b90565b611071576040517f08c379a00000000000000000000000000000000000000000000000000000000081526004016110689061410d565b60405180910390fd5b61107d84848484612481565b50505050565b60606000600e600084815260200190815260200160002060000180546110a890614455565b80601f01602080910402602001604051908101604052809291908181526020018280546110d490614455565b80156111215780601f106110f657610100808354040283529160200191611121565b820191906000526020600020905b81548152906001019060200180831161110457829003601f168201915b505050505090506000600e6000858152602001908152602001600020600101805461114b90614455565b80601f016020809104026020016040519081016040528092919081815260200182805461117790614455565b80156111c45780601f10611199576101008083540402835291602001916111c4565b820191906000526020600020905b8154815290600101906020018083116111a757829003601f168201915b505050505090506000600e60008681526020019081526020016000206002015490506000600e6000878152602001908152602001600020600301805461120990614455565b80601f016020809104026020016040519081016040528092919081815260200182805461123590614455565b80156112825780601f1061125757610100808354040283529160200191611282565b820191906000526020600020905b81548152906001019060200180831161126557829003601f168201915b505050505090506000600e600088815260200190815260200160002060040180546112ac90614455565b80601f01602080910402602001604051908101604052809291908181526020018280546112d890614455565b80156113255780601f106112fa57610100808354040283529160200191611325565b820191906000526020600020905b81548152906001019060200180831161130857829003601f168201915b505050505090506000600e600089815260200190815260200160002060050160009054906101000a900460ff169050600061135f826124dd565b90506000878761136e88611ef9565b878761137987611ef9565b6113828c611ef9565b6040516020016113989796959493929190613c7f565b60405160208183030381529060405290506113b2816120a6565b6040516020016113c29190613d9f565b60405160208183030381529060405298505050505050505050919050565b600e6000848152602001908152602001600020600601600084815260200190815260200160002060405180606001604052808481526020013373ffffffffffffffffffffffffffffffffffffffff1681526020018381525090806001815401808255809150506001900390600052602060002090600302016000909190919091506000820151816000015560208201518160010160006101000a81548173ffffffffffffffffffffffffffffffffffffffff021916908373ffffffffffffffffffffffffffffffffffffffff160217905550604082015181600201555050505050565b3373ffffffffffffffffffffffffffffffffffffffff166114e383610c2b565b73ffffffffffffffffffffffffffffffffffffffff161461150357600080fd5b80600e6000848152602001908152602001600020600201819055505050565b6000600560008473ffffffffffffffffffffffffffffffffffffffff1673ffffffffffffffffffffffffffffffffffffffff16815260200190815260200160002060008373ffffffffffffffffffffffffffffffffffffffff1673ffffffffffffffffffffffffffffffffffffffff16815260200190815260200160002060009054906101000a900460ff16905092915050565b6115be611acf565b73ffffffffffffffffffffffffffffffffffffffff166115dc610ed0565b73ffffffffffffffffffffffffffffffffffffffff1614611632576040517f08c379a0000000000000000000000000000000000000000000000000000000008152600401611629906140cd565b60405180910390fd5b600073ffffffffffffffffffffffffffffffffffffffff168173ffffffffffffffffffffffffffffffffffffffff1614156116a2576040517f08c379a000000000000000000000000000000000000000000000000000000000815260040161169990613f6d565b60405180910390fd5b6116ab8161224e565b50565b3373ffffffffffffffffffffffffffffffffffffffff166116ce84610c2b565b73ffffffffffffffffffffffffffffffffffffffff16146116ee57600080fd5b81600e60008581526020019081526020016000206003019080519060200190611718929190612ec8565b5080600e60008581526020019081526020016000206004019080519060200190611743929190612ec8565b507fe8dad524c0fade117cd3b23d3c627e85d9c07c3e0e0e7c226ea97902fadcd336336040516117739190613dc1565b60405180910390a1505050565b600e6020528060005260406000206000915090508060000180546117a390614455565b80601f01602080910402602001604051908101604052809291908181526020018280546117cf90614455565b801561181c5780601f106117f15761010080835404028352916020019161181c565b820191906000526020600020905b8154815290600101906020018083116117ff57829003601f168201915b50505050509080600101805461183190614455565b80601f016020809104026020016040519081016040528092919081815260200182805461185d90614455565b80156118aa5780601f1061187f576101008083540402835291602001916118aa565b820191906000526020600020905b81548152906001019060200180831161188d57829003601f168201915b5050505050908060020154908060030180546118c590614455565b80601f01602080910402602001604051908101604052809291908181526020018280546118f190614455565b801561193e5780601f106119135761010080835404028352916020019161193e565b820191906000526020600020905b81548152906001019060200180831161192157829003601f168201915b50505050509080600401805461195390614455565b80601f016020809104026020016040519081016040528092919081815260200182805461197f90614455565b80156119cc5780601f106119a1576101008083540402835291602001916119cc565b820191906000526020600020905b8154815290600101906020018083116119af57829003601f168201915b5050505050908060050160009054906101000a900460ff16905086565b60007f780e9d63000000000000000000000000000000000000000000000000000000007bffffffffffffffffffffffffffffffffffffffffffffffffffffffff1916827bffffffffffffffffffffffffffffffffffffffffffffffffffffffff19161480611a5c5750611a5b826124e7565b5b9050919050565b60008073ffffffffffffffffffffffffffffffffffffffff166002600084815260200190815260200160002060009054906101000a900473ffffffffffffffffffffffffffffffffffffffff1673ffffffffffffffffffffffffffffffffffffffff1614159050919050565b600033905090565b816004600083815260200190815260200160002060006101000a81548173ffffffffffffffffffffffffffffffffffffffff021916908373ffffffffffffffffffffffffffffffffffffffff160217905550808273ffffffffffffffffffffffffffffffffffffffff16611b4a83610c2b565b73ffffffffffffffffffffffffffffffffffffffff167f8c5be1e5ebec7d5bd14f71427d1e84f3dd0314c0f7b2291e5b200ac8c7c3b92560405160405180910390a45050565b6000611b9b82611a63565b611bda576040517f08c379a0000000000000000000000000000000000000000000000000000000008152600401611bd19061400d565b60405180910390fd5b6000611be583610c2b565b90508073ffffffffffffffffffffffffffffffffffffffff168473ffffffffffffffffffffffffffffffffffffffff161480611c275750611c268185611522565b5b80611c6557508373ffffffffffffffffffffffffffffffffffffffff16611c4d84610642565b73ffffffffffffffffffffffffffffffffffffffff16145b91505092915050565b8273ffffffffffffffffffffffffffffffffffffffff16611c8e82610c2b565b73ffffffffffffffffffffffffffffffffffffffff1614611ce4576040517f08c379a0000000000000000000000000000000000000000000000000000000008152600401611cdb90613f8d565b60405180910390fd5b600073ffffffffffffffffffffffffffffffffffffffff168273ffffffffffffffffffffffffffffffffffffffff161415611d54576040517f08c379a0000000000000000000000000000000000000000000000000000000008152600401611d4b90613fcd565b60405180910390fd5b611d5f8383836125c9565b611d6a600082611ad7565b6001600360008573ffffffffffffffffffffffffffffffffffffffff1673ffffffffffffffffffffffffffffffffffffffff1681526020019081526020016000206000828254611dba9190614361565b925050819055506001600360008473ffffffffffffffffffffffffffffffffffffffff1673ffffffffffffffffffffffffffffffffffffffff1681526020019081526020016000206000828254611e119190614280565b92505081905550816002600083815260200190815260200160002060006101000a81548173ffffffffffffffffffffffffffffffffffffffff021916908373ffffffffffffffffffffffffffffffffffffffff160217905550808273ffffffffffffffffffffffffffffffffffffffff168473ffffffffffffffffffffffffffffffffffffffff167fddf252ad1be2c89b69c2b068fc378daa952ba7f163c4a11628f55a4df523b3ef60405160405180910390a4611ed08383836125d9565b505050565b600081600001549050919050565b6001816000016000828254019250508190555050565b60606000821415611f41576040518060400160405280600181526020017f300000000000000000000000000000000000000000000000000000000000000081525090506120a1565b600082905060005b60008214611f73578080611f5c906144b8565b915050600a82611f6c91906142d6565b9150611f49565b60008167ffffffffffffffff811115611fb5577f4e487b7100000000000000000000000000000000000000000000000000000000600052604160045260246000fd5b6040519080825280601f01601f191660200182016040528015611fe75781602001600182028036833780820191505090505b5090505b6000851461209a576001826120009190614361565b9150600a8561200f9190614501565b603061201b9190614280565b60f81b818381518110612057577f4e487b7100000000000000000000000000000000000000000000000000000000600052603260045260246000fd5b60200101907effffffffffffffffffffffffffffffffffffffffffffffffffffffffffffff1916908160001a905350600a8561209391906142d6565b9450611feb565b8093505050505b919050565b60606000825114156120c95760405180602001604052806000815250905061222b565b6000604051806060016040528060408152602001614dca60409139905060006003600285516120f89190614280565b61210291906142d6565b600461210e9190614307565b67ffffffffffffffff81111561214d577f4e487b7100000000000000000000000000000000000000000000000000000000600052604160045260246000fd5b6040519080825280601f01601f19166020018201604052801561217f5781602001600182028036833780820191505090505b509050600182016020820185865187015b808210156121eb576003820191508151603f8160121c168501518453600184019350603f81600c1c168501518453600184019350603f8160061c168501518453600184019350603f8116850151845360018401935050612190565b5050600386510660018114612207576002811461221a57612222565b603d6001830353603d6002830353612222565b603d60018303535b50505080925050505b919050565b61224a8282604051806020016040528060008152506125de565b5050565b6000600b60009054906101000a900473ffffffffffffffffffffffffffffffffffffffff16905081600b60006101000a81548173ffffffffffffffffffffffffffffffffffffffff021916908373ffffffffffffffffffffffffffffffffffffffff1602179055508173ffffffffffffffffffffffffffffffffffffffff168173ffffffffffffffffffffffffffffffffffffffff167f8be0079c531659141344cd1fd0a4f28419497f9722a3daafe3b4186f6b6457e060405160405180910390a35050565b8173ffffffffffffffffffffffffffffffffffffffff168373ffffffffffffffffffffffffffffffffffffffff161415612383576040517f08c379a000000000000000000000000000000000000000000000000000000000815260040161237a90613fed565b60405180910390fd5b80600560008573ffffffffffffffffffffffffffffffffffffffff1673ffffffffffffffffffffffffffffffffffffffff16815260200190815260200160002060008473ffffffffffffffffffffffffffffffffffffffff1673ffffffffffffffffffffffffffffffffffffffff16815260200190815260200160002060006101000a81548160ff0219169083151502179055508173ffffffffffffffffffffffffffffffffffffffff168373ffffffffffffffffffffffffffffffffffffffff167f17307eab39ab6107e8899845ad3d59bd9653f200f220920489ca2b5937696c31836040516124749190613e73565b60405180910390a3505050565b61248c848484611c6e565b61249884848484612639565b6124d7576040517f08c379a00000000000000000000000000000000000000000000000000000000081526004016124ce90613f4d565b60405180910390fd5b50505050565b6000819050919050565b60007f80ac58cd000000000000000000000000000000000000000000000000000000007bffffffffffffffffffffffffffffffffffffffffffffffffffffffff1916827bffffffffffffffffffffffffffffffffffffffffffffffffffffffff191614806125b257507f5b5e139f000000000000000000000000000000000000000000000000000000007bffffffffffffffffffffffffffffffffffffffffffffffffffffffff1916827bffffffffffffffffffffffffffffffffffffffffffffffffffffffff1916145b806125c257506125c1826127d0565b5b9050919050565b6125d483838361283a565b505050565b505050565b6125e8838361294e565b6125f56000848484612639565b612634576040517f08c379a000000000000000000000000000000000000000000000000000000000815260040161262b90613f4d565b60405180910390fd5b505050565b600061265a8473ffffffffffffffffffffffffffffffffffffffff16612b28565b156127c3578373ffffffffffffffffffffffffffffffffffffffff1663150b7a02612683611acf565b8786866040518563ffffffff1660e01b81526004016126a59493929190613ddc565b602060405180830381600087803b1580156126bf57600080fd5b505af19250505080156126f057506040513d601f19601f820116820180604052508101906126ed91906133a2565b60015b612773573d8060008114612720576040519150601f19603f3d011682016040523d82523d6000602084013e612725565b606091505b5060008151141561276b576040517f08c379a000000000000000000000000000000000000000000000000000000000815260040161276290613f4d565b60405180910390fd5b805181602001fd5b63150b7a0260e01b7bffffffffffffffffffffffffffffffffffffffffffffffffffffffff1916817bffffffffffffffffffffffffffffffffffffffffffffffffffffffff1916149150506127c8565b600190505b949350505050565b60007f01ffc9a7000000000000000000000000000000000000000000000000000000007bffffffffffffffffffffffffffffffffffffffffffffffffffffffff1916827bffffffffffffffffffffffffffffffffffffffffffffffffffffffff1916149050919050565b612845838383612b4b565b600073ffffffffffffffffffffffffffffffffffffffff168373ffffffffffffffffffffffffffffffffffffffff1614156128885761288381612b50565b6128c7565b8173ffffffffffffffffffffffffffffffffffffffff168373ffffffffffffffffffffffffffffffffffffffff16146128c6576128c58382612b99565b5b5b600073ffffffffffffffffffffffffffffffffffffffff168273ffffffffffffffffffffffffffffffffffffffff16141561290a5761290581612d06565b612949565b8273ffffffffffffffffffffffffffffffffffffffff168273ffffffffffffffffffffffffffffffffffffffff1614612948576129478282612e49565b5b5b505050565b600073ffffffffffffffffffffffffffffffffffffffff168273ffffffffffffffffffffffffffffffffffffffff1614156129be576040517f08c379a00000000000000000000000000000000000000000000000000000000081526004016129b59061408d565b60405180910390fd5b6129c781611a63565b15612a07576040517f08c379a00000000000000000000000000000000000000000000000000000000081526004016129fe90613fad565b60405180910390fd5b612a13600083836125c9565b6001600360008473ffffffffffffffffffffffffffffffffffffffff1673ffffffffffffffffffffffffffffffffffffffff1681526020019081526020016000206000828254612a639190614280565b92505081905550816002600083815260200190815260200160002060006101000a81548173ffffffffffffffffffffffffffffffffffffffff021916908373ffffffffffffffffffffffffffffffffffffffff160217905550808273ffffffffffffffffffffffffffffffffffffffff16600073ffffffffffffffffffffffffffffffffffffffff167fddf252ad1be2c89b69c2b068fc378daa952ba7f163c4a11628f55a4df523b3ef60405160405180910390a4612b24600083836125d9565b5050565b6000808273ffffffffffffffffffffffffffffffffffffffff163b119050919050565b505050565b600980549050600a600083815260200190815260200160002081905550600981908060018154018082558091505060019003906000526020600020016000909190919091505550565b60006001612ba684610cdd565b612bb09190614361565b9050600060086000848152602001908152602001600020549050818114612c95576000600760008673ffffffffffffffffffffffffffffffffffffffff1673ffffffffffffffffffffffffffffffffffffffff168152602001908152602001600020600084815260200190815260200160002054905080600760008773ffffffffffffffffffffffffffffffffffffffff1673ffffffffffffffffffffffffffffffffffffffff168152602001908152602001600020600084815260200190815260200160002081905550816008600083815260200190815260200160002081905550505b6008600084815260200190815260200160002060009055600760008573ffffffffffffffffffffffffffffffffffffffff1673ffffffffffffffffffffffffffffffffffffffff16815260200190815260200160002060008381526020019081526020016000206000905550505050565b60006001600980549050612d1a9190614361565b90506000600a6000848152602001908152602001600020549050600060098381548110612d70577f4e487b7100000000000000000000000000000000000000000000000000000000600052603260045260246000fd5b906000526020600020015490508060098381548110612db8577f4e487b7100000000000000000000000000000000000000000000000000000000600052603260045260246000fd5b906000526020600020018190555081600a600083815260200190815260200160002081905550600a6000858152602001908152602001600020600090556009805480612e2d577f4e487b7100000000000000000000000000000000000000000000000000000000600052603160045260246000fd5b6001900381819060005260206000200160009055905550505050565b6000612e5483610cdd565b905081600760008573ffffffffffffffffffffffffffffffffffffffff1673ffffffffffffffffffffffffffffffffffffffff168152602001908152602001600020600083815260200190815260200160002081905550806008600084815260200190815260200160002081905550505050565b828054612ed490614455565b90600052602060002090601f016020900481019282612ef65760008555612f3d565b82601f10612f0f57805160ff1916838001178555612f3d565b82800160010185558215612f3d579182015b82811115612f3c578251825591602001919060010190612f21565b5b509050612f4a9190612f72565b5090565b5080546000825560030290600052602060002090810190612f6f9190612f8f565b50565b5b80821115612f8b576000816000905550600101612f73565b5090565b5b80821115612fd9576000808201600090556001820160006101000a81549073ffffffffffffffffffffffffffffffffffffffff0219169055600282016000905550600301612f90565b5090565b6000612ff0612feb8461418d565b614168565b90508281526020810184848401111561300857600080fd5b613013848285614413565b509392505050565b600061302e613029846141be565b614168565b90508281526020810184848401111561304657600080fd5b613051848285614413565b509392505050565b60008135905061306881614d56565b92915050565b60008135905061307d81614d6d565b92915050565b60008135905061309281614d84565b92915050565b6000813590506130a781614d9b565b92915050565b6000815190506130bc81614d9b565b92915050565b600082601f8301126130d357600080fd5b81356130e3848260208601612fdd565b91505092915050565b600082601f8301126130fd57600080fd5b813561310d84826020860161301b565b91505092915050565b60008135905061312581614db2565b92915050565b60006020828403121561313d57600080fd5b600061314b84828501613059565b91505092915050565b6000806040838503121561316757600080fd5b600061317585828601613059565b925050602061318685828601613059565b9150509250929050565b6000806000606084860312156131a557600080fd5b60006131b386828701613059565b93505060206131c486828701613059565b92505060406131d586828701613116565b9150509250925092565b600080600080608085870312156131f557600080fd5b600061320387828801613059565b945050602061321487828801613059565b935050604061322587828801613116565b925050606085013567ffffffffffffffff81111561324257600080fd5b61324e878288016130c2565b91505092959194509250565b600080600080600060a0868803121561327257600080fd5b600061328088828901613059565b955050602061329188828901613059565b94505060406132a288828901613116565b935050606086013567ffffffffffffffff8111156132bf57600080fd5b6132cb888289016130ec565b925050608086013567ffffffffffffffff8111156132e857600080fd5b6132f4888289016130ec565b9150509295509295909350565b6000806040838503121561331457600080fd5b600061332285828601613059565b92505060206133338582860161306e565b9150509250929050565b6000806040838503121561335057600080fd5b600061335e85828601613059565b925050602061336f85828601613116565b9150509250929050565b60006020828403121561338b57600080fd5b600061339984828501613098565b91505092915050565b6000602082840312156133b457600080fd5b60006133c2848285016130ad565b91505092915050565b600080604083850312156133de57600080fd5b600083013567ffffffffffffffff8111156133f857600080fd5b613404858286016130ec565b925050602083013567ffffffffffffffff81111561342157600080fd5b61342d858286016130ec565b9150509250929050565b60006020828403121561344957600080fd5b600061345784828501613116565b91505092915050565b6000806040838503121561347357600080fd5b600061348185828601613116565b92505060206134928582860161306e565b9150509250929050565b6000806000606084860312156134b157600080fd5b60006134bf86828701613116565b935050602084013567ffffffffffffffff8111156134dc57600080fd5b6134e8868287016130ec565b925050604084013567ffffffffffffffff81111561350557600080fd5b613511868287016130ec565b9150509250925092565b6000806040838503121561352e57600080fd5b600061353c85828601613116565b925050602061354d85828601613116565b9150509250929050565b60008060006060848603121561356c57600080fd5b600061357a86828701613116565b935050602061358b86828701613116565b925050604061359c86828701613083565b9150509250925092565b60006135b28383613bb7565b60608301905092915050565b6135c781614395565b82525050565b6135d681614395565b82525050565b60006135e782614214565b6135f18185614242565b93506135fc836141ef565b8060005b8381101561362d57815161361488826135a6565b975061361f83614235565b925050600181019050613600565b5085935050505092915050565b613643816143a7565b82525050565b613652816143b3565b82525050565b60006136638261421f565b61366d8185614253565b935061367d818560208601614422565b613686816145ee565b840191505092915050565b600061369c8261422a565b6136a68185614264565b93506136b6818560208601614422565b6136bf816145ee565b840191505092915050565b60006136d58261422a565b6136df8185614275565b93506136ef818560208601614422565b80840191505092915050565b6000815461370881614455565b6137128186614275565b9450600182166000811461372d576001811461373e57613771565b60ff19831686528186019350613771565b613747856141ff565b60005b838110156137695781548189015260018201915060208101905061374a565b838801955050505b50505092915050565b6000613787600c83614275565b9150613792826145ff565b600c82019050919050565b60006137aa602b83614264565b91506137b582614628565b604082019050919050565b60006137cd603283614264565b91506137d882614677565b604082019050919050565b60006137f0602683614264565b91506137fb826146c6565b604082019050919050565b6000613813600283614275565b915061381e82614715565b600282019050919050565b6000613836602583614264565b91506138418261473e565b604082019050919050565b6000613859601c83614264565b91506138648261478d565b602082019050919050565b600061387c602783614275565b9150613887826147b6565b602782019050919050565b600061389f600883614275565b91506138aa82614805565b600882019050919050565b60006138c2603883614275565b91506138cd8261482e565b603882019050919050565b60006138e5600683614275565b91506138f08261487d565b600682019050919050565b6000613908602483614264565b9150613913826148a6565b604082019050919050565b600061392b601983614264565b9150613936826148f5565b602082019050919050565b600061394e602c83614264565b91506139598261491e565b604082019050919050565b6000613971600d83614275565b915061397c8261496d565b600d82019050919050565b6000613994603883614264565b915061399f82614996565b604082019050919050565b60006139b7602a83614264565b91506139c2826149e5565b604082019050919050565b60006139da602983614264565b91506139e582614a34565b604082019050919050565b60006139fd602083614264565b9150613a0882614a83565b602082019050919050565b6000613a20602c83614264565b9150613a2b82614aac565b604082019050919050565b6000613a43600983614275565b9150613a4e82614afb565b600982019050919050565b6000613a66602083614264565b9150613a7182614b24565b602082019050919050565b6000613a89600c83614275565b9150613a9482614b4d565b600c82019050919050565b6000613aac602f83614275565b9150613ab782614b76565b602f82019050919050565b6000613acf600183614275565b9150613ada82614bc5565b600182019050919050565b6000613af2602183614264565b9150613afd82614bee565b604082019050919050565b6000613b15600583614275565b9150613b2082614c3d565b600582019050919050565b6000613b38601d83614275565b9150613b4382614c66565b601d82019050919050565b6000613b5b603183614264565b9150613b6682614c8f565b604082019050919050565b6000613b7e602c83614264565b9150613b8982614cde565b604082019050919050565b6000613ba1600e83614275565b9150613bac82614d2d565b600e82019050919050565b606082016000820151613bcd6000850182613bf9565b506020820151613be060208501826135be565b506040820151613bf36040850182613649565b50505050565b613c0281614409565b82525050565b613c1181614409565b82525050565b6000613c2382846136ca565b915081905092915050565b6000613c3a82856136fb565b9150613c4682846136ca565b9150613c5182613964565b91508190509392505050565b6000613c68826138d8565b9150613c7482846136ca565b915081905092915050565b6000613c8a82613ac2565b9150613c9582613a36565b9150613ca1828a6136ca565b9150613cac82613806565b9150613cb78261386f565b9150613cc382896136ca565b9150613cce82613806565b9150613cd982613892565b9150613ce582886136ca565b9150613cf082613806565b9150613cfb82613a7c565b9150613d0782876136ca565b9150613d1282613806565b9150613d1d82613b94565b9150613d2982866136ca565b9150613d3482613806565b9150613d3f8261377a565b9150613d4b82856136ca565b9150613d5682613806565b9150613d61826138b5565b9150613d6c82613806565b9150613d7782613a9f565b9150613d8382846136ca565b9150613d8e82613b08565b915081905098975050505050505050565b6000613daa82613b2b565b9150613db682846136ca565b915081905092915050565b6000602082019050613dd660008301846135cd565b92915050565b6000608082019050613df160008301876135cd565b613dfe60208301866135cd565b613e0b6040830185613c08565b8181036060830152613e1d8184613658565b905095945050505050565b6000604082019050613e3d60008301856135cd565b613e4a6020830184613c08565b9392505050565b60006020820190508181036000830152613e6b81846135dc565b905092915050565b6000602082019050613e88600083018461363a565b92915050565b60006020820190508181036000830152613ea88184613691565b905092915050565b600060c0820190508181036000830152613eca8189613691565b90508181036020830152613ede8188613691565b9050613eed6040830187613c08565b8181036060830152613eff8186613691565b90508181036080830152613f138185613691565b9050613f2260a083018461363a565b979650505050505050565b60006020820190508181036000830152613f468161379d565b9050919050565b60006020820190508181036000830152613f66816137c0565b9050919050565b60006020820190508181036000830152613f86816137e3565b9050919050565b60006020820190508181036000830152613fa681613829565b9050919050565b60006020820190508181036000830152613fc68161384c565b9050919050565b60006020820190508181036000830152613fe6816138fb565b9050919050565b600060208201905081810360008301526140068161391e565b9050919050565b6000602082019050818103600083015261402681613941565b9050919050565b6000602082019050818103600083015261404681613987565b9050919050565b60006020820190508181036000830152614066816139aa565b9050919050565b60006020820190508181036000830152614086816139cd565b9050919050565b600060208201905081810360008301526140a6816139f0565b9050919050565b600060208201905081810360008301526140c681613a13565b9050919050565b600060208201905081810360008301526140e681613a59565b9050919050565b6000602082019050818103600083015261410681613ae5565b9050919050565b6000602082019050818103600083015261412681613b4e565b9050919050565b6000602082019050818103600083015261414681613b71565b9050919050565b60006020820190506141626000830184613c08565b92915050565b6000614172614183565b905061417e8282614487565b919050565b6000604051905090565b600067ffffffffffffffff8211156141a8576141a76145bf565b5b6141b1826145ee565b9050602081019050919050565b600067ffffffffffffffff8211156141d9576141d86145bf565b5b6141e2826145ee565b9050602081019050919050565b6000819050602082019050919050565b60008190508160005260206000209050919050565b600081519050919050565b600081519050919050565b600081519050919050565b6000602082019050919050565b600082825260208201905092915050565b600082825260208201905092915050565b600082825260208201905092915050565b600081905092915050565b600061428b82614409565b915061429683614409565b9250827fffffffffffffffffffffffffffffffffffffffffffffffffffffffffffffffff038211156142cb576142ca614532565b5b828201905092915050565b60006142e182614409565b91506142ec83614409565b9250826142fc576142fb614561565b5b828204905092915050565b600061431282614409565b915061431d83614409565b9250817fffffffffffffffffffffffffffffffffffffffffffffffffffffffffffffffff048311821515161561435657614355614532565b5b828202905092915050565b600061436c82614409565b915061437783614409565b92508282101561438a57614389614532565b5b828203905092915050565b60006143a0826143e9565b9050919050565b60008115159050919050565b6000819050919050565b60007fffffffff0000000000000000000000000000000000000000000000000000000082169050919050565b600073ffffffffffffffffffffffffffffffffffffffff82169050919050565b6000819050919050565b82818337600083830152505050565b60005b83811015614440578082015181840152602081019050614425565b8381111561444f576000848401525b50505050565b6000600282049050600182168061446d57607f821691505b6020821081141561448157614480614590565b5b50919050565b614490826145ee565b810181811067ffffffffffffffff821117156144af576144ae6145bf565b5b80604052505050565b60006144c382614409565b91507fffffffffffffffffffffffffffffffffffffffffffffffffffffffffffffffff8214156144f6576144f5614532565b5b600182019050919050565b600061450c82614409565b915061451783614409565b92508261452757614526614561565b5b828206905092915050565b7f4e487b7100000000000000000000000000000000000000000000000000000000600052601160045260246000fd5b7f4e487b7100000000000000000000000000000000000000000000000000000000600052601260045260246000fd5b7f4e487b7100000000000000000000000000000000000000000000000000000000600052602260045260246000fd5b7f4e487b7100000000000000000000000000000000000000000000000000000000600052604160045260246000fd5b6000601f19601f8301169050919050565b7f22666f7253616c65223a20220000000000000000000000000000000000000000600082015250565b7f455243373231456e756d657261626c653a206f776e657220696e646578206f7560008201527f74206f6620626f756e6473000000000000000000000000000000000000000000602082015250565b7f4552433732313a207472616e7366657220746f206e6f6e20455243373231526560008201527f63656976657220696d706c656d656e7465720000000000000000000000000000602082015250565b7f4f776e61626c653a206e6577206f776e657220697320746865207a65726f206160008201527f6464726573730000000000000000000000000000000000000000000000000000602082015250565b7f222c000000000000000000000000000000000000000000000000000000000000600082015250565b7f4552433732313a207472616e736665722066726f6d20696e636f72726563742060008201527f6f776e6572000000000000000000000000000000000000000000000000000000602082015250565b7f4552433732313a20746f6b656e20616c7265616479206d696e74656400000000600082015250565b7f22696d616765555249223a2022646174613a696d6167652f7376672b786d6c3b60008201527f6261736536342c00000000000000000000000000000000000000000000000000602082015250565b7f22656c6f223a2022000000000000000000000000000000000000000000000000600082015250565b7f226465736372697074696f6e223a2022547261696e20796f757220414920616e60008201527f6420626174746c6520616761696e7374206f7468657273210000000000000000602082015250565b7f30784e6f6e690000000000000000000000000000000000000000000000000000600082015250565b7f4552433732313a207472616e7366657220746f20746865207a65726f2061646460008201527f7265737300000000000000000000000000000000000000000000000000000000602082015250565b7f4552433732313a20617070726f766520746f2063616c6c657200000000000000600082015250565b7f4552433732313a206f70657261746f7220717565727920666f72206e6f6e657860008201527f697374656e7420746f6b656e0000000000000000000000000000000000000000602082015250565b7f3c2f746578743e3c2f7376673e00000000000000000000000000000000000000600082015250565b7f4552433732313a20617070726f76652063616c6c6572206973206e6f74206f7760008201527f6e6572206e6f7220617070726f76656420666f7220616c6c0000000000000000602082015250565b7f4552433732313a2062616c616e636520717565727920666f7220746865207a6560008201527f726f206164647265737300000000000000000000000000000000000000000000602082015250565b7f4552433732313a206f776e657220717565727920666f72206e6f6e657869737460008201527f656e7420746f6b656e0000000000000000000000000000000000000000000000602082015250565b7f4552433732313a206d696e7420746f20746865207a65726f2061646472657373600082015250565b7f4552433732313a20617070726f76656420717565727920666f72206e6f6e657860008201527f697374656e7420746f6b656e0000000000000000000000000000000000000000602082015250565b7f226e616d65223a20220000000000000000000000000000000000000000000000600082015250565b7f4f776e61626c653a2063616c6c6572206973206e6f7420746865206f776e6572600082015250565b7f226d6f64656c4944223a20220000000000000000000000000000000000000000600082015250565b7f2261747472696275746573223a205b7b202274726169745f74797065223a202260008201527f656c6f222c202276616c7565223a200000000000000000000000000000000000602082015250565b7f7b00000000000000000000000000000000000000000000000000000000000000600082015250565b7f4552433732313a20617070726f76616c20746f2063757272656e74206f776e6560008201527f7200000000000000000000000000000000000000000000000000000000000000602082015250565b7f207d205d7d000000000000000000000000000000000000000000000000000000600082015250565b7f646174613a6170706c69636174696f6e2f6a736f6e3b6261736536342c000000600082015250565b7f4552433732313a207472616e736665722063616c6c6572206973206e6f74206f60008201527f776e6572206e6f7220617070726f766564000000000000000000000000000000602082015250565b7f455243373231456e756d657261626c653a20676c6f62616c20696e646578206f60008201527f7574206f6620626f756e64730000000000000000000000000000000000000000602082015250565b7f22776569676874734944223a2022000000000000000000000000000000000000600082015250565b614d5f81614395565b8114614d6a57600080fd5b50565b614d76816143a7565b8114614d8157600080fd5b50565b614d8d816143b3565b8114614d9857600080fd5b50565b614da4816143bd565b8114614daf57600080fd5b50565b614dbb81614409565b8114614dc657600080fd5b5056fe4142434445464748494a4b4c4d4e4f505152535455565758595a6162636465666768696a6b6c6d6e6f707172737475767778797a303132333435363738392b2fa2646970667358221220debdc8627e8784047160aa1bc8243b86262e9aba4400e18d4f914f8c71ab958064736f6c634300080400333c73766720786d6c6e733d27687474703a2f2f7777772e77332e6f72672f323030302f73766727207072657365727665417370656374526174696f3d27784d696e594d696e206d656574272076696577426f783d273020302033353020333530273e3c7374796c653e2e62617365207b2066696c6c3a20626c61636b3b20666f6e742d66616d696c793a2073657269663b20666f6e742d73697a653a20323470783b207d3c2f7374796c653e3c726563742077696474683d273130302527206865696768743d2731303025272066696c6c3d272346314639463527202f3e3c7465787420783d273530252720793d273530252720636c6173733d27626173652720646f6d696e616e742d626173656c696e653d276d6964646c652720746578742d616e63686f723d276d6964646c65273e",
  "linkReferences": {},
  "deployedLinkReferences": {}
}