{
  "_format": "hh-sol-artifact-1",
  "contractName": "Noni",
  "sourceName": "contracts/Noni.sol",
  "abi": [
    {
      "inputs": [],
      "stateMutability": "nonpayable",
      "type": "constructor"
    },
    {
      "anonymous": false,
      "inputs": [
        {
          "indexed": true,
          "internalType": "address",
          "name": "owner",
          "type": "address"
        },
        {
          "indexed": true,
          "internalType": "address",
          "name": "approved",
          "type": "address"
        },
        {
          "indexed": true,
          "internalType": "uint256",
          "name": "tokenId",
          "type": "uint256"
        }
      ],
      "name": "Approval",
      "type": "event"
    },
    {
      "anonymous": false,
      "inputs": [
        {
          "indexed": true,
          "internalType": "address",
          "name": "owner",
          "type": "address"
        },
        {
          "indexed": true,
          "internalType": "address",
          "name": "operator",
          "type": "address"
        },
        {
          "indexed": false,
          "internalType": "bool",
          "name": "approved",
          "type": "bool"
        }
      ],
      "name": "ApprovalForAll",
      "type": "event"
    },
    {
      "anonymous": false,
      "inputs": [
        {
          "indexed": false,
          "internalType": "address",
          "name": "owner",
          "type": "address"
        },
        {
          "indexed": false,
          "internalType": "uint256",
          "name": "tokenId",
          "type": "uint256"
        }
      ],
      "name": "Minted",
      "type": "event"
    },
    {
      "anonymous": false,
      "inputs": [
        {
          "indexed": false,
          "internalType": "address",
          "name": "owner",
          "type": "address"
        }
      ],
      "name": "NewCID",
      "type": "event"
    },
    {
      "anonymous": false,
      "inputs": [
        {
          "indexed": true,
          "internalType": "address",
          "name": "previousOwner",
          "type": "address"
        },
        {
          "indexed": true,
          "internalType": "address",
          "name": "newOwner",
          "type": "address"
        }
      ],
      "name": "OwnershipTransferred",
      "type": "event"
    },
    {
      "anonymous": false,
      "inputs": [
        {
          "indexed": true,
          "internalType": "address",
          "name": "from",
          "type": "address"
        },
        {
          "indexed": true,
          "internalType": "address",
          "name": "to",
          "type": "address"
        },
        {
          "indexed": true,
          "internalType": "uint256",
          "name": "tokenId",
          "type": "uint256"
        }
      ],
      "name": "Transfer",
      "type": "event"
    },
    {
      "inputs": [
        {
          "internalType": "address",
          "name": "to",
          "type": "address"
        },
        {
          "internalType": "uint256",
          "name": "tokenId",
          "type": "uint256"
        }
      ],
      "name": "approve",
      "outputs": [],
      "stateMutability": "nonpayable",
      "type": "function"
    },
    {
      "inputs": [
        {
          "internalType": "address",
          "name": "owner",
          "type": "address"
        }
      ],
      "name": "balanceOf",
      "outputs": [
        {
          "internalType": "uint256",
          "name": "",
          "type": "uint256"
        }
      ],
      "stateMutability": "view",
      "type": "function"
    },
    {
      "inputs": [
        {
          "internalType": "uint256",
          "name": "tokenId",
          "type": "uint256"
        }
      ],
      "name": "getApproved",
      "outputs": [
        {
          "internalType": "address",
          "name": "",
          "type": "address"
        }
      ],
      "stateMutability": "view",
      "type": "function"
    },
    {
      "inputs": [
        {
          "internalType": "uint256",
          "name": "tokenId",
          "type": "uint256"
        }
      ],
      "name": "getBids",
      "outputs": [
        {
          "components": [
            {
              "internalType": "uint256",
              "name": "bid",
              "type": "uint256"
            },
            {
              "internalType": "address",
              "name": "bidder",
              "type": "address"
            },
            {
              "internalType": "bytes32",
              "name": "pubkey",
              "type": "bytes32"
            }
          ],
          "internalType": "struct Noni.Bid[]",
          "name": "",
          "type": "tuple[]"
        }
      ],
      "stateMutability": "view",
      "type": "function"
    },
    {
      "inputs": [],
      "name": "getNumberOfNonis",
      "outputs": [
        {
          "internalType": "uint256",
          "name": "",
          "type": "uint256"
        }
      ],
      "stateMutability": "view",
      "type": "function"
    },
    {
      "inputs": [
        {
          "internalType": "address",
          "name": "owner",
          "type": "address"
        },
        {
          "internalType": "address",
          "name": "operator",
          "type": "address"
        }
      ],
      "name": "isApprovedForAll",
      "outputs": [
        {
          "internalType": "bool",
          "name": "",
          "type": "bool"
        }
      ],
      "stateMutability": "view",
      "type": "function"
    },
    {
      "inputs": [],
      "name": "name",
      "outputs": [
        {
          "internalType": "string",
          "name": "",
          "type": "string"
        }
      ],
      "stateMutability": "view",
      "type": "function"
    },
    {
      "inputs": [
        {
          "internalType": "uint256",
          "name": "",
          "type": "uint256"
        }
      ],
      "name": "noniInfos",
      "outputs": [
        {
          "internalType": "string",
          "name": "name",
          "type": "string"
        },
        {
          "internalType": "string",
          "name": "imageURI",
          "type": "string"
        },
        {
          "internalType": "uint256",
          "name": "elo",
          "type": "uint256"
        },
        {
          "internalType": "string",
          "name": "contentID",
          "type": "string"
        },
        {
          "internalType": "bool",
          "name": "forSale",
          "type": "bool"
        }
      ],
      "stateMutability": "view",
      "type": "function"
    },
    {
      "inputs": [],
      "name": "owner",
      "outputs": [
        {
          "internalType": "address",
          "name": "",
          "type": "address"
        }
      ],
      "stateMutability": "view",
      "type": "function"
    },
    {
      "inputs": [
        {
          "internalType": "uint256",
          "name": "tokenId",
          "type": "uint256"
        }
      ],
      "name": "ownerOf",
      "outputs": [
        {
          "internalType": "address",
          "name": "",
          "type": "address"
        }
      ],
      "stateMutability": "view",
      "type": "function"
    },
    {
      "inputs": [
        {
          "internalType": "uint256",
          "name": "tokenId",
          "type": "uint256"
        },
        {
          "internalType": "uint256",
          "name": "amount",
          "type": "uint256"
        },
        {
          "internalType": "bytes32",
          "name": "pubKey",
          "type": "bytes32"
        }
      ],
      "name": "placeBid",
      "outputs": [],
      "stateMutability": "nonpayable",
      "type": "function"
    },
    {
      "inputs": [],
      "name": "renounceOwnership",
      "outputs": [],
      "stateMutability": "nonpayable",
      "type": "function"
    },
    {
      "inputs": [
        {
          "internalType": "string",
          "name": "cid",
          "type": "string"
        }
      ],
      "name": "safeMint",
      "outputs": [],
      "stateMutability": "nonpayable",
      "type": "function"
    },
    {
      "inputs": [
        {
          "internalType": "address",
          "name": "from",
          "type": "address"
        },
        {
          "internalType": "address",
          "name": "to",
          "type": "address"
        },
        {
          "internalType": "uint256",
          "name": "tokenId",
          "type": "uint256"
        }
      ],
      "name": "safeTransferFrom",
      "outputs": [],
      "stateMutability": "nonpayable",
      "type": "function"
    },
    {
      "inputs": [
        {
          "internalType": "address",
          "name": "from",
          "type": "address"
        },
        {
          "internalType": "address",
          "name": "to",
          "type": "address"
        },
        {
          "internalType": "uint256",
          "name": "tokenId",
          "type": "uint256"
        },
        {
          "internalType": "bytes",
          "name": "_data",
          "type": "bytes"
        }
      ],
      "name": "safeTransferFrom",
      "outputs": [],
      "stateMutability": "nonpayable",
      "type": "function"
    },
    {
      "inputs": [
        {
          "internalType": "address",
          "name": "operator",
          "type": "address"
        },
        {
          "internalType": "bool",
          "name": "approved",
          "type": "bool"
        }
      ],
      "name": "setApprovalForAll",
      "outputs": [],
      "stateMutability": "nonpayable",
      "type": "function"
    },
    {
      "inputs": [
        {
          "internalType": "uint256",
          "name": "tokenId",
          "type": "uint256"
        },
        {
          "internalType": "bool",
          "name": "state",
          "type": "bool"
        }
      ],
      "name": "setSaleState",
      "outputs": [],
      "stateMutability": "nonpayable",
      "type": "function"
    },
    {
      "inputs": [
        {
          "internalType": "bytes4",
          "name": "interfaceId",
          "type": "bytes4"
        }
      ],
      "name": "supportsInterface",
      "outputs": [
        {
          "internalType": "bool",
          "name": "",
          "type": "bool"
        }
      ],
      "stateMutability": "view",
      "type": "function"
    },
    {
      "inputs": [],
      "name": "symbol",
      "outputs": [
        {
          "internalType": "string",
          "name": "",
          "type": "string"
        }
      ],
      "stateMutability": "view",
      "type": "function"
    },
    {
      "inputs": [
        {
          "internalType": "uint256",
          "name": "index",
          "type": "uint256"
        }
      ],
      "name": "tokenByIndex",
      "outputs": [
        {
          "internalType": "uint256",
          "name": "",
          "type": "uint256"
        }
      ],
      "stateMutability": "view",
      "type": "function"
    },
    {
      "inputs": [
        {
          "internalType": "address",
          "name": "owner",
          "type": "address"
        },
        {
          "internalType": "uint256",
          "name": "index",
          "type": "uint256"
        }
      ],
      "name": "tokenOfOwnerByIndex",
      "outputs": [
        {
          "internalType": "uint256",
          "name": "",
          "type": "uint256"
        }
      ],
      "stateMutability": "view",
      "type": "function"
    },
    {
      "inputs": [
        {
          "internalType": "uint256",
          "name": "tokenId",
          "type": "uint256"
        }
      ],
      "name": "tokenURI",
      "outputs": [
        {
          "internalType": "string",
          "name": "",
          "type": "string"
        }
      ],
      "stateMutability": "view",
      "type": "function"
    },
    {
      "inputs": [],
      "name": "totalSupply",
      "outputs": [
        {
          "internalType": "uint256",
          "name": "",
          "type": "uint256"
        }
      ],
      "stateMutability": "view",
      "type": "function"
    },
    {
      "inputs": [
        {
          "internalType": "address",
          "name": "_from",
          "type": "address"
        },
        {
          "internalType": "address",
          "name": "_to",
          "type": "address"
        },
        {
          "internalType": "uint256",
          "name": "tokenId",
          "type": "uint256"
        },
        {
          "internalType": "string",
          "name": "newContentID",
          "type": "string"
        }
      ],
      "name": "transfer",
      "outputs": [],
      "stateMutability": "nonpayable",
      "type": "function"
    },
    {
      "inputs": [
        {
          "internalType": "address",
          "name": "from",
          "type": "address"
        },
        {
          "internalType": "address",
          "name": "to",
          "type": "address"
        },
        {
          "internalType": "uint256",
          "name": "tokenId",
          "type": "uint256"
        }
      ],
      "name": "transferFrom",
      "outputs": [],
      "stateMutability": "nonpayable",
      "type": "function"
    },
    {
      "inputs": [
        {
          "internalType": "address",
          "name": "newOwner",
          "type": "address"
        }
      ],
      "name": "transferOwnership",
      "outputs": [],
      "stateMutability": "nonpayable",
      "type": "function"
    },
    {
      "inputs": [
        {
          "internalType": "uint256",
          "name": "tokenId",
          "type": "uint256"
        },
        {
          "internalType": "string",
          "name": "newContentID",
          "type": "string"
        }
      ],
      "name": "updateCID",
      "outputs": [],
      "stateMutability": "nonpayable",
      "type": "function"
    },
    {
      "inputs": [
        {
          "internalType": "uint256",
          "name": "tokenId",
          "type": "uint256"
        },
        {
          "internalType": "uint256",
          "name": "newElo",
          "type": "uint256"
        }
      ],
      "name": "updateElo",
      "outputs": [],
      "stateMutability": "nonpayable",
      "type": "function"
    }
  ],
  "bytecode": "0x6080604052604051806101600160405280610131815260200162004e4c6101319139600d908051906020019062000038929190620001db565b503480156200004657600080fd5b506040518060400160405280600481526020017f4e6f6e69000000000000000000000000000000000000000000000000000000008152506040518060400160405280600481526020017f4e4f4e49000000000000000000000000000000000000000000000000000000008152508160009080519060200190620000cb929190620001db565b508060019080519060200190620000e4929190620001db565b50505062000107620000fb6200010d60201b60201c565b6200011560201b60201c565b620002f0565b600033905090565b6000600b60009054906101000a900473ffffffffffffffffffffffffffffffffffffffff16905081600b60006101000a81548173ffffffffffffffffffffffffffffffffffffffff021916908373ffffffffffffffffffffffffffffffffffffffff1602179055508173ffffffffffffffffffffffffffffffffffffffff168173ffffffffffffffffffffffffffffffffffffffff167f8be0079c531659141344cd1fd0a4f28419497f9722a3daafe3b4186f6b6457e060405160405180910390a35050565b828054620001e9906200028b565b90600052602060002090601f0160209004810192826200020d576000855562000259565b82601f106200022857805160ff191683800117855562000259565b8280016001018555821562000259579182015b82811115620002585782518255916020019190600101906200023b565b5b5090506200026891906200026c565b5090565b5b80821115620002875760008160009055506001016200026d565b5090565b60006002820490506001821680620002a457607f821691505b60208210811415620002bb57620002ba620002c1565b5b50919050565b7f4e487b7100000000000000000000000000000000000000000000000000000000600052602260045260246000fd5b614b4c80620003006000396000f3fe608060405234801561001057600080fd5b50600436106101c45760003560e01c8063715018a6116100f9578063d01de57b11610097578063e985e9c511610071578063e985e9c514610501578063f2fde38b14610531578063fe29e60f1461054d578063feaeaf6214610581576101c4565b8063d01de57b146104ad578063d57b2826146104c9578063e9307356146104e5576101c4565b806395d89b41116100d357806395d89b4114610427578063a22cb46514610445578063b88d4fde14610461578063c87b56dd1461047d576101c4565b8063715018a6146103e357806385a222ae146103ed5780638da5cb5b14610409576101c4565b80632f745c591161016657806357017b561161014057806357017b56146103495780636352211e14610367578063695850fb1461039757806370a08231146103b3576101c4565b80632f745c59146102cd57806342842e0e146102fd5780634f6ccce714610319576101c4565b8063095ea7b3116101a2578063095ea7b314610247578063131d9a271461026357806318160ddd1461029357806323b872dd146102b1576101c4565b806301ffc9a7146101c957806306fdde03146101f9578063081812fc14610217575b600080fd5b6101e360048036038101906101de9190613160565b61059d565b6040516101f09190613bbe565b60405180910390f35b6102016105af565b60405161020e9190613bd9565b60405180910390f35b610231600480360381019061022c91906131f3565b610641565b60405161023e9190613b0c565b60405180910390f35b610261600480360381019061025c9190613124565b6106c6565b005b61027d600480360381019061027891906131f3565b6107de565b60405161028a9190613b9c565b60405180910390f35b61029b6108ce565b6040516102a89190613e83565b60405180910390f35b6102cb60048036038101906102c69190612fa3565b6108db565b005b6102e760048036038101906102e29190613124565b61093b565b6040516102f49190613e83565b60405180910390f35b61031760048036038101906103129190612fa3565b6109e0565b005b610333600480360381019061032e91906131f3565b610a00565b6040516103409190613e83565b60405180910390f35b610351610a97565b60405161035e9190613e83565b60405180910390f35b610381600480360381019061037c91906131f3565b610aa8565b60405161038e9190613b0c565b60405180910390f35b6103b160048036038101906103ac91906131b2565b610b5a565b005b6103cd60048036038101906103c89190612f3e565b610cc2565b6040516103da9190613e83565b60405180910390f35b6103eb610d7a565b005b6104076004803603810190610402919061321c565b610e02565b005b610411610e74565b60405161041e9190613b0c565b60405180910390f35b61042f610e9e565b60405161043c9190613bd9565b60405180910390f35b61045f600480360381019061045a91906130e8565b610f30565b005b61047b60048036038101906104769190612ff2565b610f46565b005b610497600480360381019061049291906131f3565b610fa8565b6040516104a49190613bd9565b60405180910390f35b6104c760048036038101906104c291906132e8565b61125f565b005b6104e360048036038101906104de919061306d565b611342565b005b6104ff60048036038101906104fa91906132ac565b611390565b005b61051b60048036038101906105169190612f67565b6113ef565b6040516105289190613bbe565b60405180910390f35b61054b60048036038101906105469190612f3e565b611483565b005b610567600480360381019061056291906131f3565b61157b565b604051610578959493929190613bfb565b60405180910390f35b61059b60048036038101906105969190613258565b611756565b005b60006105a8826117fc565b9050919050565b6060600080546105be9061418b565b80601f01602080910402602001604051908101604052809291908181526020018280546105ea9061418b565b80156106375780601f1061060c57610100808354040283529160200191610637565b820191906000526020600020905b81548152906001019060200180831161061a57829003601f168201915b5050505050905090565b600061064c82611876565b61068b576040517f08c379a000000000000000000000000000000000000000000000000000000000815260040161068290613de3565b60405180910390fd5b6004600083815260200190815260200160002060009054906101000a900473ffffffffffffffffffffffffffffffffffffffff169050919050565b60006106d182610aa8565b90508073ffffffffffffffffffffffffffffffffffffffff168373ffffffffffffffffffffffffffffffffffffffff161415610742576040517f08c379a000000000000000000000000000000000000000000000000000000000815260040161073990613e23565b60405180910390fd5b8073ffffffffffffffffffffffffffffffffffffffff166107616118e2565b73ffffffffffffffffffffffffffffffffffffffff161480610790575061078f8161078a6118e2565b6113ef565b5b6107cf576040517f08c379a00000000000000000000000000000000000000000000000000000000081526004016107c690613d63565b60405180910390fd5b6107d983836118ea565b505050565b6060600e60008381526020019081526020016000206005016000838152602001908152602001600020805480602002602001604051908101604052809291908181526020016000905b828210156108c35783829060005260206000209060030201604051806060016040529081600082015481526020016001820160009054906101000a900473ffffffffffffffffffffffffffffffffffffffff1673ffffffffffffffffffffffffffffffffffffffff1673ffffffffffffffffffffffffffffffffffffffff16815260200160028201548152505081526020019060010190610827565b505050509050919050565b6000600980549050905090565b6108ec6108e66118e2565b826119a3565b61092b576040517f08c379a000000000000000000000000000000000000000000000000000000000815260040161092290613e43565b60405180910390fd5b610936838383611a81565b505050565b600061094683610cc2565b8210610987576040517f08c379a000000000000000000000000000000000000000000000000000000000815260040161097e90613c63565b60405180910390fd5b600760008473ffffffffffffffffffffffffffffffffffffffff1673ffffffffffffffffffffffffffffffffffffffff168152602001908152602001600020600083815260200190815260200160002054905092915050565b6109fb83838360405180602001604052806000815250610f46565b505050565b6000610a0a6108ce565b8210610a4b576040517f08c379a0000000000000000000000000000000000000000000000000000000008152600401610a4290613e63565b60405180910390fd5b60098281548110610a85577f4e487b7100000000000000000000000000000000000000000000000000000000600052603260045260246000fd5b90600052602060002001549050919050565b6000610aa3600c611ce8565b905090565b6000806002600084815260200190815260200160002060009054906101000a900473ffffffffffffffffffffffffffffffffffffffff169050600073ffffffffffffffffffffffffffffffffffffffff168173ffffffffffffffffffffffffffffffffffffffff161415610b51576040517f08c379a0000000000000000000000000000000000000000000000000000000008152600401610b4890613da3565b60405180910390fd5b80915050919050565b6000610b66600c611ce8565b9050610b72600c611cf6565b6000600d610b7f83611d0c565b604051602001610b9092919061399c565b60405160208183030381529060405290506000600e60008481526020019081526020016000209050610bc183611d0c565b604051602001610bd191906139cb565b604051602081830303815290604052816000019080519060200190610bf7929190612cdb565b50610c2082604051602001610c0c9190613985565b604051602081830303815290604052611eb9565b816001019080519060200190610c37929190612cdb565b50610190816002018190555083816003019080519060200190610c5b929190612cdb565b5060008160040160006101000a81548160ff021916908315150217905550610c833384612043565b7f30385c845b448a36257a6a1716e6ad2e1bc2cbe333cde1e69fe849ad6511adfe3384604051610cb4929190613b73565b60405180910390a150505050565b60008073ffffffffffffffffffffffffffffffffffffffff168273ffffffffffffffffffffffffffffffffffffffff161415610d33576040517f08c379a0000000000000000000000000000000000000000000000000000000008152600401610d2a90613d83565b60405180910390fd5b600360008373ffffffffffffffffffffffffffffffffffffffff1673ffffffffffffffffffffffffffffffffffffffff168152602001908152602001600020549050919050565b610d826118e2565b73ffffffffffffffffffffffffffffffffffffffff16610da0610e74565b73ffffffffffffffffffffffffffffffffffffffff1614610df6576040517f08c379a0000000000000000000000000000000000000000000000000000000008152600401610ded90613e03565b60405180910390fd5b610e006000612061565b565b3373ffffffffffffffffffffffffffffffffffffffff16610e2283610aa8565b73ffffffffffffffffffffffffffffffffffffffff1614610e4257600080fd5b80600e600084815260200190815260200160002060040160006101000a81548160ff0219169083151502179055505050565b6000600b60009054906101000a900473ffffffffffffffffffffffffffffffffffffffff16905090565b606060018054610ead9061418b565b80601f0160208091040260200160405190810160405280929190818152602001828054610ed99061418b565b8015610f265780601f10610efb57610100808354040283529160200191610f26565b820191906000526020600020905b815481529060010190602001808311610f0957829003601f168201915b5050505050905090565b610f42610f3b6118e2565b8383612127565b5050565b610f57610f516118e2565b836119a3565b610f96576040517f08c379a0000000000000000000000000000000000000000000000000000000008152600401610f8d90613e43565b60405180910390fd5b610fa284848484612294565b50505050565b60606000600e60008481526020019081526020016000206000018054610fcd9061418b565b80601f0160208091040260200160405190810160405280929190818152602001828054610ff99061418b565b80156110465780601f1061101b57610100808354040283529160200191611046565b820191906000526020600020905b81548152906001019060200180831161102957829003601f168201915b505050505090506000600e600085815260200190815260200160002060010180546110709061418b565b80601f016020809104026020016040519081016040528092919081815260200182805461109c9061418b565b80156110e95780601f106110be576101008083540402835291602001916110e9565b820191906000526020600020905b8154815290600101906020018083116110cc57829003601f168201915b505050505090506000600e60008681526020019081526020016000206002015490506000600e6000878152602001908152602001600020600301805461112e9061418b565b80601f016020809104026020016040519081016040528092919081815260200182805461115a9061418b565b80156111a75780601f1061117c576101008083540402835291602001916111a7565b820191906000526020600020905b81548152906001019060200180831161118a57829003601f168201915b505050505090506000600e600088815260200190815260200160002060040160009054906101000a900460ff16905060006111e1826122f0565b9050600086866111f087611d0c565b866111fa86611d0c565b6112038a611d0c565b604051602001611218969594939291906139ed565b604051602081830303815290604052905061123281611eb9565b6040516020016112429190613aea565b604051602081830303815290604052975050505050505050919050565b600e6000848152602001908152602001600020600501600084815260200190815260200160002060405180606001604052808481526020013373ffffffffffffffffffffffffffffffffffffffff1681526020018381525090806001815401808255809150506001900390600052602060002090600302016000909190919091506000820151816000015560208201518160010160006101000a81548173ffffffffffffffffffffffffffffffffffffffff021916908373ffffffffffffffffffffffffffffffffffffffff160217905550604082015181600201555050505050565b600e6000838152602001908152602001600020600501600083815260200190815260200160002060006113759190612d61565b61137f8282611756565b61138a8484846109e0565b50505050565b3373ffffffffffffffffffffffffffffffffffffffff166113b083610aa8565b73ffffffffffffffffffffffffffffffffffffffff16146113d057600080fd5b80600e6000848152602001908152602001600020600201819055505050565b6000600560008473ffffffffffffffffffffffffffffffffffffffff1673ffffffffffffffffffffffffffffffffffffffff16815260200190815260200160002060008373ffffffffffffffffffffffffffffffffffffffff1673ffffffffffffffffffffffffffffffffffffffff16815260200190815260200160002060009054906101000a900460ff16905092915050565b61148b6118e2565b73ffffffffffffffffffffffffffffffffffffffff166114a9610e74565b73ffffffffffffffffffffffffffffffffffffffff16146114ff576040517f08c379a00000000000000000000000000000000000000000000000000000000081526004016114f690613e03565b60405180910390fd5b600073ffffffffffffffffffffffffffffffffffffffff168173ffffffffffffffffffffffffffffffffffffffff16141561156f576040517f08c379a000000000000000000000000000000000000000000000000000000000815260040161156690613ca3565b60405180910390fd5b61157881612061565b50565b600e60205280600052604060002060009150905080600001805461159e9061418b565b80601f01602080910402602001604051908101604052809291908181526020018280546115ca9061418b565b80156116175780601f106115ec57610100808354040283529160200191611617565b820191906000526020600020905b8154815290600101906020018083116115fa57829003601f168201915b50505050509080600101805461162c9061418b565b80601f01602080910402602001604051908101604052809291908181526020018280546116589061418b565b80156116a55780601f1061167a576101008083540402835291602001916116a5565b820191906000526020600020905b81548152906001019060200180831161168857829003601f168201915b5050505050908060020154908060030180546116c09061418b565b80601f01602080910402602001604051908101604052809291908181526020018280546116ec9061418b565b80156117395780601f1061170e57610100808354040283529160200191611739565b820191906000526020600020905b81548152906001019060200180831161171c57829003601f168201915b5050505050908060040160009054906101000a900460ff16905085565b3373ffffffffffffffffffffffffffffffffffffffff1661177683610aa8565b73ffffffffffffffffffffffffffffffffffffffff161461179657600080fd5b80600e600084815260200190815260200160002060030190805190602001906117c0929190612cdb565b507fe8dad524c0fade117cd3b23d3c627e85d9c07c3e0e0e7c226ea97902fadcd336336040516117f09190613b0c565b60405180910390a15050565b60007f780e9d63000000000000000000000000000000000000000000000000000000007bffffffffffffffffffffffffffffffffffffffffffffffffffffffff1916827bffffffffffffffffffffffffffffffffffffffffffffffffffffffff1916148061186f575061186e826122fa565b5b9050919050565b60008073ffffffffffffffffffffffffffffffffffffffff166002600084815260200190815260200160002060009054906101000a900473ffffffffffffffffffffffffffffffffffffffff1673ffffffffffffffffffffffffffffffffffffffff1614159050919050565b600033905090565b816004600083815260200190815260200160002060006101000a81548173ffffffffffffffffffffffffffffffffffffffff021916908373ffffffffffffffffffffffffffffffffffffffff160217905550808273ffffffffffffffffffffffffffffffffffffffff1661195d83610aa8565b73ffffffffffffffffffffffffffffffffffffffff167f8c5be1e5ebec7d5bd14f71427d1e84f3dd0314c0f7b2291e5b200ac8c7c3b92560405160405180910390a45050565b60006119ae82611876565b6119ed576040517f08c379a00000000000000000000000000000000000000000000000000000000081526004016119e490613d43565b60405180910390fd5b60006119f883610aa8565b90508073ffffffffffffffffffffffffffffffffffffffff168473ffffffffffffffffffffffffffffffffffffffff161480611a3a5750611a3981856113ef565b5b80611a7857508373ffffffffffffffffffffffffffffffffffffffff16611a6084610641565b73ffffffffffffffffffffffffffffffffffffffff16145b91505092915050565b8273ffffffffffffffffffffffffffffffffffffffff16611aa182610aa8565b73ffffffffffffffffffffffffffffffffffffffff1614611af7576040517f08c379a0000000000000000000000000000000000000000000000000000000008152600401611aee90613cc3565b60405180910390fd5b600073ffffffffffffffffffffffffffffffffffffffff168273ffffffffffffffffffffffffffffffffffffffff161415611b67576040517f08c379a0000000000000000000000000000000000000000000000000000000008152600401611b5e90613d03565b60405180910390fd5b611b728383836123dc565b611b7d6000826118ea565b6001600360008573ffffffffffffffffffffffffffffffffffffffff1673ffffffffffffffffffffffffffffffffffffffff1681526020019081526020016000206000828254611bcd9190614097565b925050819055506001600360008473ffffffffffffffffffffffffffffffffffffffff1673ffffffffffffffffffffffffffffffffffffffff1681526020019081526020016000206000828254611c249190613fb6565b92505081905550816002600083815260200190815260200160002060006101000a81548173ffffffffffffffffffffffffffffffffffffffff021916908373ffffffffffffffffffffffffffffffffffffffff160217905550808273ffffffffffffffffffffffffffffffffffffffff168473ffffffffffffffffffffffffffffffffffffffff167fddf252ad1be2c89b69c2b068fc378daa952ba7f163c4a11628f55a4df523b3ef60405160405180910390a4611ce38383836123ec565b505050565b600081600001549050919050565b6001816000016000828254019250508190555050565b60606000821415611d54576040518060400160405280600181526020017f30000000000000000000000000000000000000000000000000000000000000008152509050611eb4565b600082905060005b60008214611d86578080611d6f906141ee565b915050600a82611d7f919061400c565b9150611d5c565b60008167ffffffffffffffff811115611dc8577f4e487b7100000000000000000000000000000000000000000000000000000000600052604160045260246000fd5b6040519080825280601f01601f191660200182016040528015611dfa5781602001600182028036833780820191505090505b5090505b60008514611ead57600182611e139190614097565b9150600a85611e229190614237565b6030611e2e9190613fb6565b60f81b818381518110611e6a577f4e487b7100000000000000000000000000000000000000000000000000000000600052603260045260246000fd5b60200101907effffffffffffffffffffffffffffffffffffffffffffffffffffffffffffff1916908160001a905350600a85611ea6919061400c565b9450611dfe565b8093505050505b919050565b6060600082511415611edc5760405180602001604052806000815250905061203e565b6000604051806060016040528060408152602001614ad76040913990506000600360028551611f0b9190613fb6565b611f15919061400c565b6004611f21919061403d565b67ffffffffffffffff811115611f60577f4e487b7100000000000000000000000000000000000000000000000000000000600052604160045260246000fd5b6040519080825280601f01601f191660200182016040528015611f925781602001600182028036833780820191505090505b509050600182016020820185865187015b80821015611ffe576003820191508151603f8160121c168501518453600184019350603f81600c1c168501518453600184019350603f8160061c168501518453600184019350603f8116850151845360018401935050611fa3565b505060038651066001811461201a576002811461202d57612035565b603d6001830353603d6002830353612035565b603d60018303535b50505080925050505b919050565b61205d8282604051806020016040528060008152506123f1565b5050565b6000600b60009054906101000a900473ffffffffffffffffffffffffffffffffffffffff16905081600b60006101000a81548173ffffffffffffffffffffffffffffffffffffffff021916908373ffffffffffffffffffffffffffffffffffffffff1602179055508173ffffffffffffffffffffffffffffffffffffffff168173ffffffffffffffffffffffffffffffffffffffff167f8be0079c531659141344cd1fd0a4f28419497f9722a3daafe3b4186f6b6457e060405160405180910390a35050565b8173ffffffffffffffffffffffffffffffffffffffff168373ffffffffffffffffffffffffffffffffffffffff161415612196576040517f08c379a000000000000000000000000000000000000000000000000000000000815260040161218d90613d23565b60405180910390fd5b80600560008573ffffffffffffffffffffffffffffffffffffffff1673ffffffffffffffffffffffffffffffffffffffff16815260200190815260200160002060008473ffffffffffffffffffffffffffffffffffffffff1673ffffffffffffffffffffffffffffffffffffffff16815260200190815260200160002060006101000a81548160ff0219169083151502179055508173ffffffffffffffffffffffffffffffffffffffff168373ffffffffffffffffffffffffffffffffffffffff167f17307eab39ab6107e8899845ad3d59bd9653f200f220920489ca2b5937696c31836040516122879190613bbe565b60405180910390a3505050565b61229f848484611a81565b6122ab8484848461244c565b6122ea576040517f08c379a00000000000000000000000000000000000000000000000000000000081526004016122e190613c83565b60405180910390fd5b50505050565b6000819050919050565b60007f80ac58cd000000000000000000000000000000000000000000000000000000007bffffffffffffffffffffffffffffffffffffffffffffffffffffffff1916827bffffffffffffffffffffffffffffffffffffffffffffffffffffffff191614806123c557507f5b5e139f000000000000000000000000000000000000000000000000000000007bffffffffffffffffffffffffffffffffffffffffffffffffffffffff1916827bffffffffffffffffffffffffffffffffffffffffffffffffffffffff1916145b806123d557506123d4826125e3565b5b9050919050565b6123e783838361264d565b505050565b505050565b6123fb8383612761565b612408600084848461244c565b612447576040517f08c379a000000000000000000000000000000000000000000000000000000000815260040161243e90613c83565b60405180910390fd5b505050565b600061246d8473ffffffffffffffffffffffffffffffffffffffff1661293b565b156125d6578373ffffffffffffffffffffffffffffffffffffffff1663150b7a026124966118e2565b8786866040518563ffffffff1660e01b81526004016124b89493929190613b27565b602060405180830381600087803b1580156124d257600080fd5b505af192505050801561250357506040513d601f19601f820116820180604052508101906125009190613189565b60015b612586573d8060008114612533576040519150601f19603f3d011682016040523d82523d6000602084013e612538565b606091505b5060008151141561257e576040517f08c379a000000000000000000000000000000000000000000000000000000000815260040161257590613c83565b60405180910390fd5b805181602001fd5b63150b7a0260e01b7bffffffffffffffffffffffffffffffffffffffffffffffffffffffff1916817bffffffffffffffffffffffffffffffffffffffffffffffffffffffff1916149150506125db565b600190505b949350505050565b60007f01ffc9a7000000000000000000000000000000000000000000000000000000007bffffffffffffffffffffffffffffffffffffffffffffffffffffffff1916827bffffffffffffffffffffffffffffffffffffffffffffffffffffffff1916149050919050565b61265883838361295e565b600073ffffffffffffffffffffffffffffffffffffffff168373ffffffffffffffffffffffffffffffffffffffff16141561269b5761269681612963565b6126da565b8173ffffffffffffffffffffffffffffffffffffffff168373ffffffffffffffffffffffffffffffffffffffff16146126d9576126d883826129ac565b5b5b600073ffffffffffffffffffffffffffffffffffffffff168273ffffffffffffffffffffffffffffffffffffffff16141561271d5761271881612b19565b61275c565b8273ffffffffffffffffffffffffffffffffffffffff168273ffffffffffffffffffffffffffffffffffffffff161461275b5761275a8282612c5c565b5b5b505050565b600073ffffffffffffffffffffffffffffffffffffffff168273ffffffffffffffffffffffffffffffffffffffff1614156127d1576040517f08c379a00000000000000000000000000000000000000000000000000000000081526004016127c890613dc3565b60405180910390fd5b6127da81611876565b1561281a576040517f08c379a000000000000000000000000000000000000000000000000000000000815260040161281190613ce3565b60405180910390fd5b612826600083836123dc565b6001600360008473ffffffffffffffffffffffffffffffffffffffff1673ffffffffffffffffffffffffffffffffffffffff16815260200190815260200160002060008282546128769190613fb6565b92505081905550816002600083815260200190815260200160002060006101000a81548173ffffffffffffffffffffffffffffffffffffffff021916908373ffffffffffffffffffffffffffffffffffffffff160217905550808273ffffffffffffffffffffffffffffffffffffffff16600073ffffffffffffffffffffffffffffffffffffffff167fddf252ad1be2c89b69c2b068fc378daa952ba7f163c4a11628f55a4df523b3ef60405160405180910390a4612937600083836123ec565b5050565b6000808273ffffffffffffffffffffffffffffffffffffffff163b119050919050565b505050565b600980549050600a600083815260200190815260200160002081905550600981908060018154018082558091505060019003906000526020600020016000909190919091505550565b600060016129b984610cc2565b6129c39190614097565b9050600060086000848152602001908152602001600020549050818114612aa8576000600760008673ffffffffffffffffffffffffffffffffffffffff1673ffffffffffffffffffffffffffffffffffffffff168152602001908152602001600020600084815260200190815260200160002054905080600760008773ffffffffffffffffffffffffffffffffffffffff1673ffffffffffffffffffffffffffffffffffffffff168152602001908152602001600020600084815260200190815260200160002081905550816008600083815260200190815260200160002081905550505b6008600084815260200190815260200160002060009055600760008573ffffffffffffffffffffffffffffffffffffffff1673ffffffffffffffffffffffffffffffffffffffff16815260200190815260200160002060008381526020019081526020016000206000905550505050565b60006001600980549050612b2d9190614097565b90506000600a6000848152602001908152602001600020549050600060098381548110612b83577f4e487b7100000000000000000000000000000000000000000000000000000000600052603260045260246000fd5b906000526020600020015490508060098381548110612bcb577f4e487b7100000000000000000000000000000000000000000000000000000000600052603260045260246000fd5b906000526020600020018190555081600a600083815260200190815260200160002081905550600a6000858152602001908152602001600020600090556009805480612c40577f4e487b7100000000000000000000000000000000000000000000000000000000600052603160045260246000fd5b6001900381819060005260206000200160009055905550505050565b6000612c6783610cc2565b905081600760008573ffffffffffffffffffffffffffffffffffffffff1673ffffffffffffffffffffffffffffffffffffffff168152602001908152602001600020600083815260200190815260200160002081905550806008600084815260200190815260200160002081905550505050565b828054612ce79061418b565b90600052602060002090601f016020900481019282612d095760008555612d50565b82601f10612d2257805160ff1916838001178555612d50565b82800160010185558215612d50579182015b82811115612d4f578251825591602001919060010190612d34565b5b509050612d5d9190612d85565b5090565b5080546000825560030290600052602060002090810190612d829190612da2565b50565b5b80821115612d9e576000816000905550600101612d86565b5090565b5b80821115612dec576000808201600090556001820160006101000a81549073ffffffffffffffffffffffffffffffffffffffff0219169055600282016000905550600301612da3565b5090565b6000612e03612dfe84613ec3565b613e9e565b905082815260208101848484011115612e1b57600080fd5b612e26848285614149565b509392505050565b6000612e41612e3c84613ef4565b613e9e565b905082815260208101848484011115612e5957600080fd5b612e64848285614149565b509392505050565b600081359050612e7b81614a63565b92915050565b600081359050612e9081614a7a565b92915050565b600081359050612ea581614a91565b92915050565b600081359050612eba81614aa8565b92915050565b600081519050612ecf81614aa8565b92915050565b600082601f830112612ee657600080fd5b8135612ef6848260208601612df0565b91505092915050565b600082601f830112612f1057600080fd5b8135612f20848260208601612e2e565b91505092915050565b600081359050612f3881614abf565b92915050565b600060208284031215612f5057600080fd5b6000612f5e84828501612e6c565b91505092915050565b60008060408385031215612f7a57600080fd5b6000612f8885828601612e6c565b9250506020612f9985828601612e6c565b9150509250929050565b600080600060608486031215612fb857600080fd5b6000612fc686828701612e6c565b9350506020612fd786828701612e6c565b9250506040612fe886828701612f29565b9150509250925092565b6000806000806080858703121561300857600080fd5b600061301687828801612e6c565b945050602061302787828801612e6c565b935050604061303887828801612f29565b925050606085013567ffffffffffffffff81111561305557600080fd5b61306187828801612ed5565b91505092959194509250565b6000806000806080858703121561308357600080fd5b600061309187828801612e6c565b94505060206130a287828801612e6c565b93505060406130b387828801612f29565b925050606085013567ffffffffffffffff8111156130d057600080fd5b6130dc87828801612eff565b91505092959194509250565b600080604083850312156130fb57600080fd5b600061310985828601612e6c565b925050602061311a85828601612e81565b9150509250929050565b6000806040838503121561313757600080fd5b600061314585828601612e6c565b925050602061315685828601612f29565b9150509250929050565b60006020828403121561317257600080fd5b600061318084828501612eab565b91505092915050565b60006020828403121561319b57600080fd5b60006131a984828501612ec0565b91505092915050565b6000602082840312156131c457600080fd5b600082013567ffffffffffffffff8111156131de57600080fd5b6131ea84828501612eff565b91505092915050565b60006020828403121561320557600080fd5b600061321384828501612f29565b91505092915050565b6000806040838503121561322f57600080fd5b600061323d85828601612f29565b925050602061324e85828601612e81565b9150509250929050565b6000806040838503121561326b57600080fd5b600061327985828601612f29565b925050602083013567ffffffffffffffff81111561329657600080fd5b6132a285828601612eff565b9150509250929050565b600080604083850312156132bf57600080fd5b60006132cd85828601612f29565b92505060206132de85828601612f29565b9150509250929050565b6000806000606084860312156132fd57600080fd5b600061330b86828701612f29565b935050602061331c86828701612f29565b925050604061332d86828701612e96565b9150509250925092565b60006133438383613925565b60608301905092915050565b613358816140cb565b82525050565b613367816140cb565b82525050565b600061337882613f4a565b6133828185613f78565b935061338d83613f25565b8060005b838110156133be5781516133a58882613337565b97506133b083613f6b565b925050600181019050613391565b5085935050505092915050565b6133d4816140dd565b82525050565b6133e3816140e9565b82525050565b60006133f482613f55565b6133fe8185613f89565b935061340e818560208601614158565b61341781614324565b840191505092915050565b600061342d82613f60565b6134378185613f9a565b9350613447818560208601614158565b61345081614324565b840191505092915050565b600061346682613f60565b6134708185613fab565b9350613480818560208601614158565b80840191505092915050565b600081546134998161418b565b6134a38186613fab565b945060018216600081146134be57600181146134cf57613502565b60ff19831686528186019350613502565b6134d885613f35565b60005b838110156134fa578154818901526001820191506020810190506134db565b838801955050505b50505092915050565b6000613518600c83613fab565b915061352382614335565b600c82019050919050565b600061353b602b83613f9a565b91506135468261435e565b604082019050919050565b600061355e603283613f9a565b9150613569826143ad565b604082019050919050565b6000613581602683613f9a565b915061358c826143fc565b604082019050919050565b60006135a4600283613fab565b91506135af8261444b565b600282019050919050565b60006135c7602583613f9a565b91506135d282614474565b604082019050919050565b60006135ea601c83613f9a565b91506135f5826144c3565b602082019050919050565b600061360d602783613fab565b9150613618826144ec565b602782019050919050565b6000613630600883613fab565b915061363b8261453b565b600882019050919050565b6000613653603883613fab565b915061365e82614564565b603882019050919050565b6000613676600683613fab565b9150613681826145b3565b600682019050919050565b6000613699602483613f9a565b91506136a4826145dc565b604082019050919050565b60006136bc601983613f9a565b91506136c78261462b565b602082019050919050565b60006136df602c83613f9a565b91506136ea82614654565b604082019050919050565b6000613702600d83613fab565b915061370d826146a3565b600d82019050919050565b6000613725603883613f9a565b9150613730826146cc565b604082019050919050565b6000613748602a83613f9a565b91506137538261471b565b604082019050919050565b600061376b602983613f9a565b91506137768261476a565b604082019050919050565b600061378e602083613f9a565b9150613799826147b9565b602082019050919050565b60006137b1602c83613f9a565b91506137bc826147e2565b604082019050919050565b60006137d4600983613fab565b91506137df82614831565b600982019050919050565b60006137f7602083613f9a565b91506138028261485a565b602082019050919050565b600061381a602f83613fab565b915061382582614883565b602f82019050919050565b600061383d600183613fab565b9150613848826148d2565b600182019050919050565b6000613860602183613f9a565b915061386b826148fb565b604082019050919050565b6000613883600583613fab565b915061388e8261494a565b600582019050919050565b60006138a6601d83613fab565b91506138b182614973565b601d82019050919050565b60006138c9603183613f9a565b91506138d48261499c565b604082019050919050565b60006138ec602c83613f9a565b91506138f7826149eb565b604082019050919050565b600061390f600e83613fab565b915061391a82614a3a565b600e82019050919050565b60608201600082015161393b6000850182613967565b50602082015161394e602085018261334f565b50604082015161396160408501826133da565b50505050565b6139708161413f565b82525050565b61397f8161413f565b82525050565b6000613991828461345b565b915081905092915050565b60006139a8828561348c565b91506139b4828461345b565b91506139bf826136f5565b91508190509392505050565b60006139d682613669565b91506139e2828461345b565b915081905092915050565b60006139f882613830565b9150613a03826137c7565b9150613a0f828961345b565b9150613a1a82613597565b9150613a2582613600565b9150613a31828861345b565b9150613a3c82613597565b9150613a4782613623565b9150613a53828761345b565b9150613a5e82613597565b9150613a6982613902565b9150613a75828661345b565b9150613a8082613597565b9150613a8b8261350b565b9150613a97828561345b565b9150613aa282613597565b9150613aad82613646565b9150613ab882613597565b9150613ac38261380d565b9150613acf828461345b565b9150613ada82613876565b9150819050979650505050505050565b6000613af582613899565b9150613b01828461345b565b915081905092915050565b6000602082019050613b21600083018461335e565b92915050565b6000608082019050613b3c600083018761335e565b613b49602083018661335e565b613b566040830185613976565b8181036060830152613b6881846133e9565b905095945050505050565b6000604082019050613b88600083018561335e565b613b956020830184613976565b9392505050565b60006020820190508181036000830152613bb6818461336d565b905092915050565b6000602082019050613bd360008301846133cb565b92915050565b60006020820190508181036000830152613bf38184613422565b905092915050565b600060a0820190508181036000830152613c158188613422565b90508181036020830152613c298187613422565b9050613c386040830186613976565b8181036060830152613c4a8185613422565b9050613c5960808301846133cb565b9695505050505050565b60006020820190508181036000830152613c7c8161352e565b9050919050565b60006020820190508181036000830152613c9c81613551565b9050919050565b60006020820190508181036000830152613cbc81613574565b9050919050565b60006020820190508181036000830152613cdc816135ba565b9050919050565b60006020820190508181036000830152613cfc816135dd565b9050919050565b60006020820190508181036000830152613d1c8161368c565b9050919050565b60006020820190508181036000830152613d3c816136af565b9050919050565b60006020820190508181036000830152613d5c816136d2565b9050919050565b60006020820190508181036000830152613d7c81613718565b9050919050565b60006020820190508181036000830152613d9c8161373b565b9050919050565b60006020820190508181036000830152613dbc8161375e565b9050919050565b60006020820190508181036000830152613ddc81613781565b9050919050565b60006020820190508181036000830152613dfc816137a4565b9050919050565b60006020820190508181036000830152613e1c816137ea565b9050919050565b60006020820190508181036000830152613e3c81613853565b9050919050565b60006020820190508181036000830152613e5c816138bc565b9050919050565b60006020820190508181036000830152613e7c816138df565b9050919050565b6000602082019050613e986000830184613976565b92915050565b6000613ea8613eb9565b9050613eb482826141bd565b919050565b6000604051905090565b600067ffffffffffffffff821115613ede57613edd6142f5565b5b613ee782614324565b9050602081019050919050565b600067ffffffffffffffff821115613f0f57613f0e6142f5565b5b613f1882614324565b9050602081019050919050565b6000819050602082019050919050565b60008190508160005260206000209050919050565b600081519050919050565b600081519050919050565b600081519050919050565b6000602082019050919050565b600082825260208201905092915050565b600082825260208201905092915050565b600082825260208201905092915050565b600081905092915050565b6000613fc18261413f565b9150613fcc8361413f565b9250827fffffffffffffffffffffffffffffffffffffffffffffffffffffffffffffffff0382111561400157614000614268565b5b828201905092915050565b60006140178261413f565b91506140228361413f565b92508261403257614031614297565b5b828204905092915050565b60006140488261413f565b91506140538361413f565b9250817fffffffffffffffffffffffffffffffffffffffffffffffffffffffffffffffff048311821515161561408c5761408b614268565b5b828202905092915050565b60006140a28261413f565b91506140ad8361413f565b9250828210156140c0576140bf614268565b5b828203905092915050565b60006140d68261411f565b9050919050565b60008115159050919050565b6000819050919050565b60007fffffffff0000000000000000000000000000000000000000000000000000000082169050919050565b600073ffffffffffffffffffffffffffffffffffffffff82169050919050565b6000819050919050565b82818337600083830152505050565b60005b8381101561417657808201518184015260208101905061415b565b83811115614185576000848401525b50505050565b600060028204905060018216806141a357607f821691505b602082108114156141b7576141b66142c6565b5b50919050565b6141c682614324565b810181811067ffffffffffffffff821117156141e5576141e46142f5565b5b80604052505050565b60006141f98261413f565b91507fffffffffffffffffffffffffffffffffffffffffffffffffffffffffffffffff82141561422c5761422b614268565b5b600182019050919050565b60006142428261413f565b915061424d8361413f565b92508261425d5761425c614297565b5b828206905092915050565b7f4e487b7100000000000000000000000000000000000000000000000000000000600052601160045260246000fd5b7f4e487b7100000000000000000000000000000000000000000000000000000000600052601260045260246000fd5b7f4e487b7100000000000000000000000000000000000000000000000000000000600052602260045260246000fd5b7f4e487b7100000000000000000000000000000000000000000000000000000000600052604160045260246000fd5b6000601f19601f8301169050919050565b7f22666f7253616c65223a20220000000000000000000000000000000000000000600082015250565b7f455243373231456e756d657261626c653a206f776e657220696e646578206f7560008201527f74206f6620626f756e6473000000000000000000000000000000000000000000602082015250565b7f4552433732313a207472616e7366657220746f206e6f6e20455243373231526560008201527f63656976657220696d706c656d656e7465720000000000000000000000000000602082015250565b7f4f776e61626c653a206e6577206f776e657220697320746865207a65726f206160008201527f6464726573730000000000000000000000000000000000000000000000000000602082015250565b7f222c000000000000000000000000000000000000000000000000000000000000600082015250565b7f4552433732313a207472616e736665722066726f6d20696e636f72726563742060008201527f6f776e6572000000000000000000000000000000000000000000000000000000602082015250565b7f4552433732313a20746f6b656e20616c7265616479206d696e74656400000000600082015250565b7f22696d616765555249223a2022646174613a696d6167652f7376672b786d6c3b60008201527f6261736536342c00000000000000000000000000000000000000000000000000602082015250565b7f22656c6f223a2022000000000000000000000000000000000000000000000000600082015250565b7f226465736372697074696f6e223a2022547261696e20796f757220414920616e60008201527f6420626174746c6520616761696e7374206f7468657273210000000000000000602082015250565b7f30784e6f6e690000000000000000000000000000000000000000000000000000600082015250565b7f4552433732313a207472616e7366657220746f20746865207a65726f2061646460008201527f7265737300000000000000000000000000000000000000000000000000000000602082015250565b7f4552433732313a20617070726f766520746f2063616c6c657200000000000000600082015250565b7f4552433732313a206f70657261746f7220717565727920666f72206e6f6e657860008201527f697374656e7420746f6b656e0000000000000000000000000000000000000000602082015250565b7f3c2f746578743e3c2f7376673e00000000000000000000000000000000000000600082015250565b7f4552433732313a20617070726f76652063616c6c6572206973206e6f74206f7760008201527f6e6572206e6f7220617070726f76656420666f7220616c6c0000000000000000602082015250565b7f4552433732313a2062616c616e636520717565727920666f7220746865207a6560008201527f726f206164647265737300000000000000000000000000000000000000000000602082015250565b7f4552433732313a206f776e657220717565727920666f72206e6f6e657869737460008201527f656e7420746f6b656e0000000000000000000000000000000000000000000000602082015250565b7f4552433732313a206d696e7420746f20746865207a65726f2061646472657373600082015250565b7f4552433732313a20617070726f76656420717565727920666f72206e6f6e657860008201527f697374656e7420746f6b656e0000000000000000000000000000000000000000602082015250565b7f226e616d65223a20220000000000000000000000000000000000000000000000600082015250565b7f4f776e61626c653a2063616c6c6572206973206e6f7420746865206f776e6572600082015250565b7f2261747472696275746573223a205b7b202274726169745f74797065223a202260008201527f656c6f222c202276616c7565223a200000000000000000000000000000000000602082015250565b7f7b00000000000000000000000000000000000000000000000000000000000000600082015250565b7f4552433732313a20617070726f76616c20746f2063757272656e74206f776e6560008201527f7200000000000000000000000000000000000000000000000000000000000000602082015250565b7f207d205d7d000000000000000000000000000000000000000000000000000000600082015250565b7f646174613a6170706c69636174696f6e2f6a736f6e3b6261736536342c000000600082015250565b7f4552433732313a207472616e736665722063616c6c6572206973206e6f74206f60008201527f776e6572206e6f7220617070726f766564000000000000000000000000000000602082015250565b7f455243373231456e756d657261626c653a20676c6f62616c20696e646578206f60008201527f7574206f6620626f756e64730000000000000000000000000000000000000000602082015250565b7f22636f6e74656e744944223a2022000000000000000000000000000000000000600082015250565b614a6c816140cb565b8114614a7757600080fd5b50565b614a83816140dd565b8114614a8e57600080fd5b50565b614a9a816140e9565b8114614aa557600080fd5b50565b614ab1816140f3565b8114614abc57600080fd5b50565b614ac88161413f565b8114614ad357600080fd5b5056fe4142434445464748494a4b4c4d4e4f505152535455565758595a6162636465666768696a6b6c6d6e6f707172737475767778797a303132333435363738392b2fa2646970667358221220a3c83e74c5f7b569d94f7bff82c252bde81c68505a0fcc64acffaf75d4aeccf064736f6c634300080400333c73766720786d6c6e733d27687474703a2f2f7777772e77332e6f72672f323030302f73766727207072657365727665417370656374526174696f3d27784d696e594d696e206d656574272076696577426f783d273020302033353020333530273e3c7374796c653e2e62617365207b2066696c6c3a20626c61636b3b20666f6e742d66616d696c793a2073657269663b20666f6e742d73697a653a20323470783b207d3c2f7374796c653e3c726563742077696474683d273130302527206865696768743d2731303025272066696c6c3d272346314639463527202f3e3c7465787420783d273530252720793d273530252720636c6173733d27626173652720646f6d696e616e742d626173656c696e653d276d6964646c652720746578742d616e63686f723d276d6964646c65273e",
  "linkReferences": {},
  "deployedLinkReferences": {}
}