{
    "_format": "hh-sol-artifact-1",
    "contractName": "Noni",
    "sourceName": "contracts/Noni.sol",
    "abi": [
        {
            "inputs": [],
            "stateMutability": "nonpayable",
            "type": "constructor"
        },
        {
            "anonymous": false,
            "inputs": [
                {
                    "indexed": true,
                    "internalType": "address",
                    "name": "owner",
                    "type": "address"
                },
                {
                    "indexed": true,
                    "internalType": "address",
                    "name": "approved",
                    "type": "address"
                },
                {
                    "indexed": true,
                    "internalType": "uint256",
                    "name": "tokenId",
                    "type": "uint256"
                }
            ],
            "name": "Approval",
            "type": "event"
        },
        {
            "anonymous": false,
            "inputs": [
                {
                    "indexed": true,
                    "internalType": "address",
                    "name": "owner",
                    "type": "address"
                },
                {
                    "indexed": true,
                    "internalType": "address",
                    "name": "operator",
                    "type": "address"
                },
                {
                    "indexed": false,
                    "internalType": "bool",
                    "name": "approved",
                    "type": "bool"
                }
            ],
            "name": "ApprovalForAll",
            "type": "event"
        },
        {
            "anonymous": false,
            "inputs": [
                {
                    "indexed": false,
                    "internalType": "address",
                    "name": "owner",
                    "type": "address"
                },
                {
                    "indexed": false,
                    "internalType": "uint256",
                    "name": "tokenId",
                    "type": "uint256"
                }
            ],
            "name": "Minted",
            "type": "event"
        },
        {
            "anonymous": false,
            "inputs": [
                {
                    "indexed": false,
                    "internalType": "address",
                    "name": "owner",
                    "type": "address"
                }
            ],
            "name": "NewCID",
            "type": "event"
        },
        {
            "anonymous": false,
            "inputs": [
                {
                    "indexed": true,
                    "internalType": "address",
                    "name": "previousOwner",
                    "type": "address"
                },
                {
                    "indexed": true,
                    "internalType": "address",
                    "name": "newOwner",
                    "type": "address"
                }
            ],
            "name": "OwnershipTransferred",
            "type": "event"
        },
        {
            "anonymous": false,
            "inputs": [
                {
                    "indexed": true,
                    "internalType": "address",
                    "name": "from",
                    "type": "address"
                },
                {
                    "indexed": true,
                    "internalType": "address",
                    "name": "to",
                    "type": "address"
                },
                {
                    "indexed": true,
                    "internalType": "uint256",
                    "name": "tokenId",
                    "type": "uint256"
                }
            ],
            "name": "Transfer",
            "type": "event"
        },
        {
            "inputs": [
                {
                    "internalType": "address",
                    "name": "to",
                    "type": "address"
                },
                {
                    "internalType": "uint256",
                    "name": "tokenId",
                    "type": "uint256"
                }
            ],
            "name": "approve",
            "outputs": [],
            "stateMutability": "nonpayable",
            "type": "function"
        },
        {
            "inputs": [
                {
                    "internalType": "address",
                    "name": "owner",
                    "type": "address"
                }
            ],
            "name": "balanceOf",
            "outputs": [
                {
                    "internalType": "uint256",
                    "name": "",
                    "type": "uint256"
                }
            ],
            "stateMutability": "view",
            "type": "function"
        },
        {
            "inputs": [
                {
                    "internalType": "uint256",
                    "name": "tokenId",
                    "type": "uint256"
                }
            ],
            "name": "getApproved",
            "outputs": [
                {
                    "internalType": "address",
                    "name": "",
                    "type": "address"
                }
            ],
            "stateMutability": "view",
            "type": "function"
        },
        {
            "inputs": [],
            "name": "getNumberOfNonis",
            "outputs": [
                {
                    "internalType": "uint256",
                    "name": "",
                    "type": "uint256"
                }
            ],
            "stateMutability": "view",
            "type": "function"
        },
        {
            "inputs": [
                {
                    "internalType": "address",
                    "name": "owner",
                    "type": "address"
                },
                {
                    "internalType": "address",
                    "name": "operator",
                    "type": "address"
                }
            ],
            "name": "isApprovedForAll",
            "outputs": [
                {
                    "internalType": "bool",
                    "name": "",
                    "type": "bool"
                }
            ],
            "stateMutability": "view",
            "type": "function"
        },
        {
            "inputs": [],
            "name": "name",
            "outputs": [
                {
                    "internalType": "string",
                    "name": "",
                    "type": "string"
                }
            ],
            "stateMutability": "view",
            "type": "function"
        },
        {
            "inputs": [
                {
                    "internalType": "uint256",
                    "name": "",
                    "type": "uint256"
                }
            ],
            "name": "noniInfos",
            "outputs": [
                {
                    "internalType": "string",
                    "name": "name",
                    "type": "string"
                },
                {
                    "internalType": "string",
                    "name": "imageURI",
                    "type": "string"
                },
                {
                    "internalType": "uint256",
                    "name": "elo",
                    "type": "uint256"
                },
                {
                    "internalType": "string",
                    "name": "contentID",
                    "type": "string"
                }
            ],
            "stateMutability": "view",
            "type": "function"
        },
        {
            "inputs": [],
            "name": "owner",
            "outputs": [
                {
                    "internalType": "address",
                    "name": "",
                    "type": "address"
                }
            ],
            "stateMutability": "view",
            "type": "function"
        },
        {
            "inputs": [
                {
                    "internalType": "uint256",
                    "name": "tokenId",
                    "type": "uint256"
                }
            ],
            "name": "ownerOf",
            "outputs": [
                {
                    "internalType": "address",
                    "name": "",
                    "type": "address"
                }
            ],
            "stateMutability": "view",
            "type": "function"
        },
        {
            "inputs": [],
            "name": "renounceOwnership",
            "outputs": [],
            "stateMutability": "nonpayable",
            "type": "function"
        },
        {
            "inputs": [
                {
                    "internalType": "string",
                    "name": "cid",
                    "type": "string"
                }
            ],
            "name": "safeMint",
            "outputs": [],
            "stateMutability": "nonpayable",
            "type": "function"
        },
        {
            "inputs": [
                {
                    "internalType": "address",
                    "name": "from",
                    "type": "address"
                },
                {
                    "internalType": "address",
                    "name": "to",
                    "type": "address"
                },
                {
                    "internalType": "uint256",
                    "name": "tokenId",
                    "type": "uint256"
                }
            ],
            "name": "safeTransferFrom",
            "outputs": [],
            "stateMutability": "nonpayable",
            "type": "function"
        },
        {
            "inputs": [
                {
                    "internalType": "address",
                    "name": "from",
                    "type": "address"
                },
                {
                    "internalType": "address",
                    "name": "to",
                    "type": "address"
                },
                {
                    "internalType": "uint256",
                    "name": "tokenId",
                    "type": "uint256"
                },
                {
                    "internalType": "bytes",
                    "name": "_data",
                    "type": "bytes"
                }
            ],
            "name": "safeTransferFrom",
            "outputs": [],
            "stateMutability": "nonpayable",
            "type": "function"
        },
        {
            "inputs": [
                {
                    "internalType": "address",
                    "name": "operator",
                    "type": "address"
                },
                {
                    "internalType": "bool",
                    "name": "approved",
                    "type": "bool"
                }
            ],
            "name": "setApprovalForAll",
            "outputs": [],
            "stateMutability": "nonpayable",
            "type": "function"
        },
        {
            "inputs": [
                {
                    "internalType": "bytes4",
                    "name": "interfaceId",
                    "type": "bytes4"
                }
            ],
            "name": "supportsInterface",
            "outputs": [
                {
                    "internalType": "bool",
                    "name": "",
                    "type": "bool"
                }
            ],
            "stateMutability": "view",
            "type": "function"
        },
        {
            "inputs": [],
            "name": "symbol",
            "outputs": [
                {
                    "internalType": "string",
                    "name": "",
                    "type": "string"
                }
            ],
            "stateMutability": "view",
            "type": "function"
        },
        {
            "inputs": [
                {
                    "internalType": "uint256",
                    "name": "index",
                    "type": "uint256"
                }
            ],
            "name": "tokenByIndex",
            "outputs": [
                {
                    "internalType": "uint256",
                    "name": "",
                    "type": "uint256"
                }
            ],
            "stateMutability": "view",
            "type": "function"
        },
        {
            "inputs": [
                {
                    "internalType": "address",
                    "name": "owner",
                    "type": "address"
                },
                {
                    "internalType": "uint256",
                    "name": "index",
                    "type": "uint256"
                }
            ],
            "name": "tokenOfOwnerByIndex",
            "outputs": [
                {
                    "internalType": "uint256",
                    "name": "",
                    "type": "uint256"
                }
            ],
            "stateMutability": "view",
            "type": "function"
        },
        {
            "inputs": [
                {
                    "internalType": "uint256",
                    "name": "tokenId",
                    "type": "uint256"
                }
            ],
            "name": "tokenURI",
            "outputs": [
                {
                    "internalType": "string",
                    "name": "",
                    "type": "string"
                }
            ],
            "stateMutability": "view",
            "type": "function"
        },
        {
            "inputs": [],
            "name": "totalSupply",
            "outputs": [
                {
                    "internalType": "uint256",
                    "name": "",
                    "type": "uint256"
                }
            ],
            "stateMutability": "view",
            "type": "function"
        },
        {
            "inputs": [
                {
                    "internalType": "address",
                    "name": "from",
                    "type": "address"
                },
                {
                    "internalType": "address",
                    "name": "to",
                    "type": "address"
                },
                {
                    "internalType": "uint256",
                    "name": "tokenId",
                    "type": "uint256"
                }
            ],
            "name": "transferFrom",
            "outputs": [],
            "stateMutability": "nonpayable",
            "type": "function"
        },
        {
            "inputs": [
                {
                    "internalType": "address",
                    "name": "newOwner",
                    "type": "address"
                }
            ],
            "name": "transferOwnership",
            "outputs": [],
            "stateMutability": "nonpayable",
            "type": "function"
        },
        {
            "inputs": [
                {
                    "internalType": "uint256",
                    "name": "tokenId",
                    "type": "uint256"
                },
                {
                    "internalType": "string",
                    "name": "newContentID",
                    "type": "string"
                }
            ],
            "name": "updateCID",
            "outputs": [],
            "stateMutability": "nonpayable",
            "type": "function"
        },
        {
            "inputs": [
                {
                    "internalType": "uint256",
                    "name": "tokenId",
                    "type": "uint256"
                },
                {
                    "internalType": "uint256",
                    "name": "newElo",
                    "type": "uint256"
                }
            ],
            "name": "updateElo",
            "outputs": [],
            "stateMutability": "nonpayable",
            "type": "function"
        }
    ],
    "bytecode": "0x60806040526040518061016001604052806101318152602001620047116101319139600d908051906020019062000038929190620001db565b503480156200004657600080fd5b506040518060400160405280600481526020017f4e6f6e69000000000000000000000000000000000000000000000000000000008152506040518060400160405280600481526020017f4e4f4e49000000000000000000000000000000000000000000000000000000008152508160009080519060200190620000cb929190620001db565b508060019080519060200190620000e4929190620001db565b50505062000107620000fb6200010d60201b60201c565b6200011560201b60201c565b620002f0565b600033905090565b6000600b60009054906101000a900473ffffffffffffffffffffffffffffffffffffffff16905081600b60006101000a81548173ffffffffffffffffffffffffffffffffffffffff021916908373ffffffffffffffffffffffffffffffffffffffff1602179055508173ffffffffffffffffffffffffffffffffffffffff168173ffffffffffffffffffffffffffffffffffffffff167f8be0079c531659141344cd1fd0a4f28419497f9722a3daafe3b4186f6b6457e060405160405180910390a35050565b828054620001e9906200028b565b90600052602060002090601f0160209004810192826200020d576000855562000259565b82601f106200022857805160ff191683800117855562000259565b8280016001018555821562000259579182015b82811115620002585782518255916020019190600101906200023b565b5b5090506200026891906200026c565b5090565b5b80821115620002875760008160009055506001016200026d565b5090565b60006002820490506001821680620002a457607f821691505b60208210811415620002bb57620002ba620002c1565b5b50919050565b7f4e487b7100000000000000000000000000000000000000000000000000000000600052602260045260246000fd5b61441180620003006000396000f3fe608060405234801561001057600080fd5b50600436106101585760003560e01c806370a08231116100c3578063c87b56dd1161007c578063c87b56dd146103c5578063e9307356146103f5578063e985e9c514610411578063f2fde38b14610441578063fe29e60f1461045d578063feaeaf621461049057610158565b806370a0823114610317578063715018a6146103475780638da5cb5b1461035157806395d89b411461036f578063a22cb4651461038d578063b88d4fde146103a957610158565b80632f745c59116101155780632f745c591461023157806342842e0e146102615780634f6ccce71461027d57806357017b56146102ad5780636352211e146102cb578063695850fb146102fb57610158565b806301ffc9a71461015d57806306fdde031461018d578063081812fc146101ab578063095ea7b3146101db57806318160ddd146101f757806323b872dd14610215575b600080fd5b61017760048036038101906101729190612c8e565b6104ac565b6040516101849190613514565b60405180910390f35b6101956104be565b6040516101a2919061352f565b60405180910390f35b6101c560048036038101906101c09190612d21565b610550565b6040516101d29190613484565b60405180910390f35b6101f560048036038101906101f09190612c52565b6105d5565b005b6101ff6106ed565b60405161020c91906137cb565b60405180910390f35b61022f600480360381019061022a9190612b4c565b6106fa565b005b61024b60048036038101906102469190612c52565b61075a565b60405161025891906137cb565b60405180910390f35b61027b60048036038101906102769190612b4c565b6107ff565b005b61029760048036038101906102929190612d21565b61081f565b6040516102a491906137cb565b60405180910390f35b6102b56108b6565b6040516102c291906137cb565b60405180910390f35b6102e560048036038101906102e09190612d21565b6108c7565b6040516102f29190613484565b60405180910390f35b61031560048036038101906103109190612ce0565b610979565b005b610331600480360381019061032c9190612ae7565b610af0565b60405161033e91906137cb565b60405180910390f35b61034f610ba8565b005b610359610c30565b6040516103669190613484565b60405180910390f35b610377610c5a565b604051610384919061352f565b60405180910390f35b6103a760048036038101906103a29190612c16565b610cec565b005b6103c360048036038101906103be9190612b9b565b610d02565b005b6103df60048036038101906103da9190612d21565b610d64565b6040516103ec919061352f565b60405180910390f35b61040f600480360381019061040a9190612d9e565b610fdd565b005b61042b60048036038101906104269190612b10565b61103c565b6040516104389190613514565b60405180910390f35b61045b60048036038101906104569190612ae7565b6110d0565b005b61047760048036038101906104729190612d21565b6111c8565b6040516104879493929190613551565b60405180910390f35b6104aa60048036038101906104a59190612d4a565b611390565b005b60006104b782611436565b9050919050565b6060600080546104cd90613a90565b80601f01602080910402602001604051908101604052809291908181526020018280546104f990613a90565b80156105465780601f1061051b57610100808354040283529160200191610546565b820191906000526020600020905b81548152906001019060200180831161052957829003601f168201915b5050505050905090565b600061055b826114b0565b61059a576040517f08c379a00000000000000000000000000000000000000000000000000000000081526004016105919061372b565b60405180910390fd5b6004600083815260200190815260200160002060009054906101000a900473ffffffffffffffffffffffffffffffffffffffff169050919050565b60006105e0826108c7565b90508073ffffffffffffffffffffffffffffffffffffffff168373ffffffffffffffffffffffffffffffffffffffff161415610651576040517f08c379a00000000000000000000000000000000000000000000000000000000081526004016106489061376b565b60405180910390fd5b8073ffffffffffffffffffffffffffffffffffffffff1661067061151c565b73ffffffffffffffffffffffffffffffffffffffff16148061069f575061069e8161069961151c565b61103c565b5b6106de576040517f08c379a00000000000000000000000000000000000000000000000000000000081526004016106d5906136ab565b60405180910390fd5b6106e88383611524565b505050565b6000600980549050905090565b61070b61070561151c565b826115dd565b61074a576040517f08c379a00000000000000000000000000000000000000000000000000000000081526004016107419061378b565b60405180910390fd5b6107558383836116bb565b505050565b600061076583610af0565b82106107a6576040517f08c379a000000000000000000000000000000000000000000000000000000000815260040161079d906135ab565b60405180910390fd5b600760008473ffffffffffffffffffffffffffffffffffffffff1673ffffffffffffffffffffffffffffffffffffffff168152602001908152602001600020600083815260200190815260200160002054905092915050565b61081a83838360405180602001604052806000815250610d02565b505050565b60006108296106ed565b821061086a576040517f08c379a0000000000000000000000000000000000000000000000000000000008152600401610861906137ab565b60405180910390fd5b600982815481106108a4577f4e487b7100000000000000000000000000000000000000000000000000000000600052603260045260246000fd5b90600052602060002001549050919050565b60006108c2600c611922565b905090565b6000806002600084815260200190815260200160002060009054906101000a900473ffffffffffffffffffffffffffffffffffffffff169050600073ffffffffffffffffffffffffffffffffffffffff168173ffffffffffffffffffffffffffffffffffffffff161415610970576040517f08c379a0000000000000000000000000000000000000000000000000000000008152600401610967906136eb565b60405180910390fd5b80915050919050565b6000610985600c611922565b9050610991600c611930565b6000600d61099e83611946565b6040516020016109af929190613337565b604051602081830303815290604052905060405180608001604052806109d484611946565b6040516020016109e49190613366565b6040516020818303038152906040528152602001610a2083604051602001610a0c9190613320565b604051602081830303815290604052611af3565b8152602001610190815260200184815250600e60008481526020019081526020016000206000820151816000019080519060200190610a6092919061290b565b506020820151816001019080519060200190610a7d92919061290b565b50604082015181600201556060820151816003019080519060200190610aa492919061290b565b50905050610ab23383611c7d565b7f30385c845b448a36257a6a1716e6ad2e1bc2cbe333cde1e69fe849ad6511adfe3383604051610ae39291906134eb565b60405180910390a1505050565b60008073ffffffffffffffffffffffffffffffffffffffff168273ffffffffffffffffffffffffffffffffffffffff161415610b61576040517f08c379a0000000000000000000000000000000000000000000000000000000008152600401610b58906136cb565b60405180910390fd5b600360008373ffffffffffffffffffffffffffffffffffffffff1673ffffffffffffffffffffffffffffffffffffffff168152602001908152602001600020549050919050565b610bb061151c565b73ffffffffffffffffffffffffffffffffffffffff16610bce610c30565b73ffffffffffffffffffffffffffffffffffffffff1614610c24576040517f08c379a0000000000000000000000000000000000000000000000000000000008152600401610c1b9061374b565b60405180910390fd5b610c2e6000611c9b565b565b6000600b60009054906101000a900473ffffffffffffffffffffffffffffffffffffffff16905090565b606060018054610c6990613a90565b80601f0160208091040260200160405190810160405280929190818152602001828054610c9590613a90565b8015610ce25780601f10610cb757610100808354040283529160200191610ce2565b820191906000526020600020905b815481529060010190602001808311610cc557829003601f168201915b5050505050905090565b610cfe610cf761151c565b8383611d61565b5050565b610d13610d0d61151c565b836115dd565b610d52576040517f08c379a0000000000000000000000000000000000000000000000000000000008152600401610d499061378b565b60405180910390fd5b610d5e84848484611ece565b50505050565b60606000600e6000848152602001908152602001600020604051806080016040529081600082018054610d9690613a90565b80601f0160208091040260200160405190810160405280929190818152602001828054610dc290613a90565b8015610e0f5780601f10610de457610100808354040283529160200191610e0f565b820191906000526020600020905b815481529060010190602001808311610df257829003601f168201915b50505050508152602001600182018054610e2890613a90565b80601f0160208091040260200160405190810160405280929190818152602001828054610e5490613a90565b8015610ea15780601f10610e7657610100808354040283529160200191610ea1565b820191906000526020600020905b815481529060010190602001808311610e8457829003601f168201915b5050505050815260200160028201548152602001600382018054610ec490613a90565b80601f0160208091040260200160405190810160405280929190818152602001828054610ef090613a90565b8015610f3d5780601f10610f1257610100808354040283529160200191610f3d565b820191906000526020600020905b815481529060010190602001808311610f2057829003601f168201915b505050505081525050905060008160000151905060008260200151905060008360400151905060008460600151905060008484610f7985611946565b84610f8387611946565b604051602001610f97959493929190613388565b6040516020818303038152906040529050610fb181611af3565b604051602001610fc19190613462565b6040516020818303038152906040529650505050505050919050565b3373ffffffffffffffffffffffffffffffffffffffff16610ffd836108c7565b73ffffffffffffffffffffffffffffffffffffffff161461101d57600080fd5b80600e6000848152602001908152602001600020600201819055505050565b6000600560008473ffffffffffffffffffffffffffffffffffffffff1673ffffffffffffffffffffffffffffffffffffffff16815260200190815260200160002060008373ffffffffffffffffffffffffffffffffffffffff1673ffffffffffffffffffffffffffffffffffffffff16815260200190815260200160002060009054906101000a900460ff16905092915050565b6110d861151c565b73ffffffffffffffffffffffffffffffffffffffff166110f6610c30565b73ffffffffffffffffffffffffffffffffffffffff161461114c576040517f08c379a00000000000000000000000000000000000000000000000000000000081526004016111439061374b565b60405180910390fd5b600073ffffffffffffffffffffffffffffffffffffffff168173ffffffffffffffffffffffffffffffffffffffff1614156111bc576040517f08c379a00000000000000000000000000000000000000000000000000000000081526004016111b3906135eb565b60405180910390fd5b6111c581611c9b565b50565b600e6020528060005260406000206000915090508060000180546111eb90613a90565b80601f016020809104026020016040519081016040528092919081815260200182805461121790613a90565b80156112645780601f1061123957610100808354040283529160200191611264565b820191906000526020600020905b81548152906001019060200180831161124757829003601f168201915b50505050509080600101805461127990613a90565b80601f01602080910402602001604051908101604052809291908181526020018280546112a590613a90565b80156112f25780601f106112c7576101008083540402835291602001916112f2565b820191906000526020600020905b8154815290600101906020018083116112d557829003601f168201915b50505050509080600201549080600301805461130d90613a90565b80601f016020809104026020016040519081016040528092919081815260200182805461133990613a90565b80156113865780601f1061135b57610100808354040283529160200191611386565b820191906000526020600020905b81548152906001019060200180831161136957829003601f168201915b5050505050905084565b3373ffffffffffffffffffffffffffffffffffffffff166113b0836108c7565b73ffffffffffffffffffffffffffffffffffffffff16146113d057600080fd5b80600e600084815260200190815260200160002060030190805190602001906113fa92919061290b565b507fe8dad524c0fade117cd3b23d3c627e85d9c07c3e0e0e7c226ea97902fadcd3363360405161142a9190613484565b60405180910390a15050565b60007f780e9d63000000000000000000000000000000000000000000000000000000007bffffffffffffffffffffffffffffffffffffffffffffffffffffffff1916827bffffffffffffffffffffffffffffffffffffffffffffffffffffffff191614806114a957506114a882611f2a565b5b9050919050565b60008073ffffffffffffffffffffffffffffffffffffffff166002600084815260200190815260200160002060009054906101000a900473ffffffffffffffffffffffffffffffffffffffff1673ffffffffffffffffffffffffffffffffffffffff1614159050919050565b600033905090565b816004600083815260200190815260200160002060006101000a81548173ffffffffffffffffffffffffffffffffffffffff021916908373ffffffffffffffffffffffffffffffffffffffff160217905550808273ffffffffffffffffffffffffffffffffffffffff16611597836108c7565b73ffffffffffffffffffffffffffffffffffffffff167f8c5be1e5ebec7d5bd14f71427d1e84f3dd0314c0f7b2291e5b200ac8c7c3b92560405160405180910390a45050565b60006115e8826114b0565b611627576040517f08c379a000000000000000000000000000000000000000000000000000000000815260040161161e9061368b565b60405180910390fd5b6000611632836108c7565b90508073ffffffffffffffffffffffffffffffffffffffff168473ffffffffffffffffffffffffffffffffffffffff1614806116745750611673818561103c565b5b806116b257508373ffffffffffffffffffffffffffffffffffffffff1661169a84610550565b73ffffffffffffffffffffffffffffffffffffffff16145b91505092915050565b8273ffffffffffffffffffffffffffffffffffffffff166116db826108c7565b73ffffffffffffffffffffffffffffffffffffffff1614611731576040517f08c379a00000000000000000000000000000000000000000000000000000000081526004016117289061360b565b60405180910390fd5b600073ffffffffffffffffffffffffffffffffffffffff168273ffffffffffffffffffffffffffffffffffffffff1614156117a1576040517f08c379a00000000000000000000000000000000000000000000000000000000081526004016117989061364b565b60405180910390fd5b6117ac83838361200c565b6117b7600082611524565b6001600360008573ffffffffffffffffffffffffffffffffffffffff1673ffffffffffffffffffffffffffffffffffffffff168152602001908152602001600020600082825461180791906139a6565b925050819055506001600360008473ffffffffffffffffffffffffffffffffffffffff1673ffffffffffffffffffffffffffffffffffffffff168152602001908152602001600020600082825461185e91906138c5565b92505081905550816002600083815260200190815260200160002060006101000a81548173ffffffffffffffffffffffffffffffffffffffff021916908373ffffffffffffffffffffffffffffffffffffffff160217905550808273ffffffffffffffffffffffffffffffffffffffff168473ffffffffffffffffffffffffffffffffffffffff167fddf252ad1be2c89b69c2b068fc378daa952ba7f163c4a11628f55a4df523b3ef60405160405180910390a461191d83838361201c565b505050565b600081600001549050919050565b6001816000016000828254019250508190555050565b6060600082141561198e576040518060400160405280600181526020017f30000000000000000000000000000000000000000000000000000000000000008152509050611aee565b600082905060005b600082146119c05780806119a990613af3565b915050600a826119b9919061391b565b9150611996565b60008167ffffffffffffffff811115611a02577f4e487b7100000000000000000000000000000000000000000000000000000000600052604160045260246000fd5b6040519080825280601f01601f191660200182016040528015611a345781602001600182028036833780820191505090505b5090505b60008514611ae757600182611a4d91906139a6565b9150600a85611a5c9190613b3c565b6030611a6891906138c5565b60f81b818381518110611aa4577f4e487b7100000000000000000000000000000000000000000000000000000000600052603260045260246000fd5b60200101907effffffffffffffffffffffffffffffffffffffffffffffffffffffffffffff1916908160001a905350600a85611ae0919061391b565b9450611a38565b8093505050505b919050565b6060600082511415611b1657604051806020016040528060008152509050611c78565b600060405180606001604052806040815260200161439c6040913990506000600360028551611b4591906138c5565b611b4f919061391b565b6004611b5b919061394c565b67ffffffffffffffff811115611b9a577f4e487b7100000000000000000000000000000000000000000000000000000000600052604160045260246000fd5b6040519080825280601f01601f191660200182016040528015611bcc5781602001600182028036833780820191505090505b509050600182016020820185865187015b80821015611c38576003820191508151603f8160121c168501518453600184019350603f81600c1c168501518453600184019350603f8160061c168501518453600184019350603f8116850151845360018401935050611bdd565b5050600386510660018114611c545760028114611c6757611c6f565b603d6001830353603d6002830353611c6f565b603d60018303535b50505080925050505b919050565b611c97828260405180602001604052806000815250612021565b5050565b6000600b60009054906101000a900473ffffffffffffffffffffffffffffffffffffffff16905081600b60006101000a81548173ffffffffffffffffffffffffffffffffffffffff021916908373ffffffffffffffffffffffffffffffffffffffff1602179055508173ffffffffffffffffffffffffffffffffffffffff168173ffffffffffffffffffffffffffffffffffffffff167f8be0079c531659141344cd1fd0a4f28419497f9722a3daafe3b4186f6b6457e060405160405180910390a35050565b8173ffffffffffffffffffffffffffffffffffffffff168373ffffffffffffffffffffffffffffffffffffffff161415611dd0576040517f08c379a0000000000000000000000000000000000000000000000000000000008152600401611dc79061366b565b60405180910390fd5b80600560008573ffffffffffffffffffffffffffffffffffffffff1673ffffffffffffffffffffffffffffffffffffffff16815260200190815260200160002060008473ffffffffffffffffffffffffffffffffffffffff1673ffffffffffffffffffffffffffffffffffffffff16815260200190815260200160002060006101000a81548160ff0219169083151502179055508173ffffffffffffffffffffffffffffffffffffffff168373ffffffffffffffffffffffffffffffffffffffff167f17307eab39ab6107e8899845ad3d59bd9653f200f220920489ca2b5937696c3183604051611ec19190613514565b60405180910390a3505050565b611ed98484846116bb565b611ee58484848461207c565b611f24576040517f08c379a0000000000000000000000000000000000000000000000000000000008152600401611f1b906135cb565b60405180910390fd5b50505050565b60007f80ac58cd000000000000000000000000000000000000000000000000000000007bffffffffffffffffffffffffffffffffffffffffffffffffffffffff1916827bffffffffffffffffffffffffffffffffffffffffffffffffffffffff19161480611ff557507f5b5e139f000000000000000000000000000000000000000000000000000000007bffffffffffffffffffffffffffffffffffffffffffffffffffffffff1916827bffffffffffffffffffffffffffffffffffffffffffffffffffffffff1916145b80612005575061200482612213565b5b9050919050565b61201783838361227d565b505050565b505050565b61202b8383612391565b612038600084848461207c565b612077576040517f08c379a000000000000000000000000000000000000000000000000000000000815260040161206e906135cb565b60405180910390fd5b505050565b600061209d8473ffffffffffffffffffffffffffffffffffffffff1661256b565b15612206578373ffffffffffffffffffffffffffffffffffffffff1663150b7a026120c661151c565b8786866040518563ffffffff1660e01b81526004016120e8949392919061349f565b602060405180830381600087803b15801561210257600080fd5b505af192505050801561213357506040513d601f19601f820116820180604052508101906121309190612cb7565b60015b6121b6573d8060008114612163576040519150601f19603f3d011682016040523d82523d6000602084013e612168565b606091505b506000815114156121ae576040517f08c379a00000000000000000000000000000000000000000000000000000000081526004016121a5906135cb565b60405180910390fd5b805181602001fd5b63150b7a0260e01b7bffffffffffffffffffffffffffffffffffffffffffffffffffffffff1916817bffffffffffffffffffffffffffffffffffffffffffffffffffffffff19161491505061220b565b600190505b949350505050565b60007f01ffc9a7000000000000000000000000000000000000000000000000000000007bffffffffffffffffffffffffffffffffffffffffffffffffffffffff1916827bffffffffffffffffffffffffffffffffffffffffffffffffffffffff1916149050919050565b61228883838361258e565b600073ffffffffffffffffffffffffffffffffffffffff168373ffffffffffffffffffffffffffffffffffffffff1614156122cb576122c681612593565b61230a565b8173ffffffffffffffffffffffffffffffffffffffff168373ffffffffffffffffffffffffffffffffffffffff16146123095761230883826125dc565b5b5b600073ffffffffffffffffffffffffffffffffffffffff168273ffffffffffffffffffffffffffffffffffffffff16141561234d5761234881612749565b61238c565b8273ffffffffffffffffffffffffffffffffffffffff168273ffffffffffffffffffffffffffffffffffffffff161461238b5761238a828261288c565b5b5b505050565b600073ffffffffffffffffffffffffffffffffffffffff168273ffffffffffffffffffffffffffffffffffffffff161415612401576040517f08c379a00000000000000000000000000000000000000000000000000000000081526004016123f89061370b565b60405180910390fd5b61240a816114b0565b1561244a576040517f08c379a00000000000000000000000000000000000000000000000000000000081526004016124419061362b565b60405180910390fd5b6124566000838361200c565b6001600360008473ffffffffffffffffffffffffffffffffffffffff1673ffffffffffffffffffffffffffffffffffffffff16815260200190815260200160002060008282546124a691906138c5565b92505081905550816002600083815260200190815260200160002060006101000a81548173ffffffffffffffffffffffffffffffffffffffff021916908373ffffffffffffffffffffffffffffffffffffffff160217905550808273ffffffffffffffffffffffffffffffffffffffff16600073ffffffffffffffffffffffffffffffffffffffff167fddf252ad1be2c89b69c2b068fc378daa952ba7f163c4a11628f55a4df523b3ef60405160405180910390a46125676000838361201c565b5050565b6000808273ffffffffffffffffffffffffffffffffffffffff163b119050919050565b505050565b600980549050600a600083815260200190815260200160002081905550600981908060018154018082558091505060019003906000526020600020016000909190919091505550565b600060016125e984610af0565b6125f391906139a6565b90506000600860008481526020019081526020016000205490508181146126d8576000600760008673ffffffffffffffffffffffffffffffffffffffff1673ffffffffffffffffffffffffffffffffffffffff168152602001908152602001600020600084815260200190815260200160002054905080600760008773ffffffffffffffffffffffffffffffffffffffff1673ffffffffffffffffffffffffffffffffffffffff168152602001908152602001600020600084815260200190815260200160002081905550816008600083815260200190815260200160002081905550505b6008600084815260200190815260200160002060009055600760008573ffffffffffffffffffffffffffffffffffffffff1673ffffffffffffffffffffffffffffffffffffffff16815260200190815260200160002060008381526020019081526020016000206000905550505050565b6000600160098054905061275d91906139a6565b90506000600a60008481526020019081526020016000205490506000600983815481106127b3577f4e487b7100000000000000000000000000000000000000000000000000000000600052603260045260246000fd5b9060005260206000200154905080600983815481106127fb577f4e487b7100000000000000000000000000000000000000000000000000000000600052603260045260246000fd5b906000526020600020018190555081600a600083815260200190815260200160002081905550600a6000858152602001908152602001600020600090556009805480612870577f4e487b7100000000000000000000000000000000000000000000000000000000600052603160045260246000fd5b6001900381819060005260206000200160009055905550505050565b600061289783610af0565b905081600760008573ffffffffffffffffffffffffffffffffffffffff1673ffffffffffffffffffffffffffffffffffffffff168152602001908152602001600020600083815260200190815260200160002081905550806008600084815260200190815260200160002081905550505050565b82805461291790613a90565b90600052602060002090601f0160209004810192826129395760008555612980565b82601f1061295257805160ff1916838001178555612980565b82800160010185558215612980579182015b8281111561297f578251825591602001919060010190612964565b5b50905061298d9190612991565b5090565b5b808211156129aa576000816000905550600101612992565b5090565b60006129c16129bc8461380b565b6137e6565b9050828152602081018484840111156129d957600080fd5b6129e4848285613a4e565b509392505050565b60006129ff6129fa8461383c565b6137e6565b905082815260208101848484011115612a1757600080fd5b612a22848285613a4e565b509392505050565b600081359050612a398161433f565b92915050565b600081359050612a4e81614356565b92915050565b600081359050612a638161436d565b92915050565b600081519050612a788161436d565b92915050565b600082601f830112612a8f57600080fd5b8135612a9f8482602086016129ae565b91505092915050565b600082601f830112612ab957600080fd5b8135612ac98482602086016129ec565b91505092915050565b600081359050612ae181614384565b92915050565b600060208284031215612af957600080fd5b6000612b0784828501612a2a565b91505092915050565b60008060408385031215612b2357600080fd5b6000612b3185828601612a2a565b9250506020612b4285828601612a2a565b9150509250929050565b600080600060608486031215612b6157600080fd5b6000612b6f86828701612a2a565b9350506020612b8086828701612a2a565b9250506040612b9186828701612ad2565b9150509250925092565b60008060008060808587031215612bb157600080fd5b6000612bbf87828801612a2a565b9450506020612bd087828801612a2a565b9350506040612be187828801612ad2565b925050606085013567ffffffffffffffff811115612bfe57600080fd5b612c0a87828801612a7e565b91505092959194509250565b60008060408385031215612c2957600080fd5b6000612c3785828601612a2a565b9250506020612c4885828601612a3f565b9150509250929050565b60008060408385031215612c6557600080fd5b6000612c7385828601612a2a565b9250506020612c8485828601612ad2565b9150509250929050565b600060208284031215612ca057600080fd5b6000612cae84828501612a54565b91505092915050565b600060208284031215612cc957600080fd5b6000612cd784828501612a69565b91505092915050565b600060208284031215612cf257600080fd5b600082013567ffffffffffffffff811115612d0c57600080fd5b612d1884828501612aa8565b91505092915050565b600060208284031215612d3357600080fd5b6000612d4184828501612ad2565b91505092915050565b60008060408385031215612d5d57600080fd5b6000612d6b85828601612ad2565b925050602083013567ffffffffffffffff811115612d8857600080fd5b612d9485828601612aa8565b9150509250929050565b60008060408385031215612db157600080fd5b6000612dbf85828601612ad2565b9250506020612dd085828601612ad2565b9150509250929050565b612de3816139da565b82525050565b612df2816139ec565b82525050565b6000612e0382613882565b612e0d8185613898565b9350612e1d818560208601613a5d565b612e2681613c29565b840191505092915050565b6000612e3c8261388d565b612e4681856138a9565b9350612e56818560208601613a5d565b612e5f81613c29565b840191505092915050565b6000612e758261388d565b612e7f81856138ba565b9350612e8f818560208601613a5d565b80840191505092915050565b60008154612ea881613a90565b612eb281866138ba565b94506001821660008114612ecd5760018114612ede57612f11565b60ff19831686528186019350612f11565b612ee78561386d565b60005b83811015612f0957815481890152600182019150602081019050612eea565b838801955050505b50505092915050565b6000612f27602b836138a9565b9150612f3282613c3a565b604082019050919050565b6000612f4a6032836138a9565b9150612f5582613c89565b604082019050919050565b6000612f6d6026836138a9565b9150612f7882613cd8565b604082019050919050565b6000612f906002836138ba565b9150612f9b82613d27565b600282019050919050565b6000612fb36025836138a9565b9150612fbe82613d50565b604082019050919050565b6000612fd6601c836138a9565b9150612fe182613d9f565b602082019050919050565b6000612ff96027836138ba565b915061300482613dc8565b602782019050919050565b600061301c6008836138ba565b915061302782613e17565b600882019050919050565b600061303f6038836138ba565b915061304a82613e40565b603882019050919050565b60006130626006836138ba565b915061306d82613e8f565b600682019050919050565b60006130856024836138a9565b915061309082613eb8565b604082019050919050565b60006130a86019836138a9565b91506130b382613f07565b602082019050919050565b60006130cb602c836138a9565b91506130d682613f30565b604082019050919050565b60006130ee600d836138ba565b91506130f982613f7f565b600d82019050919050565b60006131116038836138a9565b915061311c82613fa8565b604082019050919050565b6000613134602a836138a9565b915061313f82613ff7565b604082019050919050565b60006131576029836138a9565b915061316282614046565b604082019050919050565b600061317a6020836138a9565b915061318582614095565b602082019050919050565b600061319d602c836138a9565b91506131a8826140be565b604082019050919050565b60006131c06009836138ba565b91506131cb8261410d565b600982019050919050565b60006131e36020836138a9565b91506131ee82614136565b602082019050919050565b6000613206602f836138ba565b91506132118261415f565b602f82019050919050565b60006132296001836138ba565b9150613234826141ae565b600182019050919050565b600061324c6021836138a9565b9150613257826141d7565b604082019050919050565b600061326f6005836138ba565b915061327a82614226565b600582019050919050565b6000613292601d836138ba565b915061329d8261424f565b601d82019050919050565b60006132b56031836138a9565b91506132c082614278565b604082019050919050565b60006132d8602c836138a9565b91506132e3826142c7565b604082019050919050565b60006132fb600e836138ba565b915061330682614316565b600e82019050919050565b61331a81613a44565b82525050565b600061332c8284612e6a565b915081905092915050565b60006133438285612e9b565b915061334f8284612e6a565b915061335a826130e1565b91508190509392505050565b600061337182613055565b915061337d8284612e6a565b915081905092915050565b60006133938261321c565b915061339e826131b3565b91506133aa8288612e6a565b91506133b582612f83565b91506133c082612fec565b91506133cc8287612e6a565b91506133d782612f83565b91506133e28261300f565b91506133ee8286612e6a565b91506133f982612f83565b9150613404826132ee565b91506134108285612e6a565b915061341b82612f83565b915061342682613032565b915061343182612f83565b915061343c826131f9565b91506134488284612e6a565b915061345382613262565b91508190509695505050505050565b600061346d82613285565b91506134798284612e6a565b915081905092915050565b60006020820190506134996000830184612dda565b92915050565b60006080820190506134b46000830187612dda565b6134c16020830186612dda565b6134ce6040830185613311565b81810360608301526134e08184612df8565b905095945050505050565b60006040820190506135006000830185612dda565b61350d6020830184613311565b9392505050565b60006020820190506135296000830184612de9565b92915050565b600060208201905081810360008301526135498184612e31565b905092915050565b6000608082019050818103600083015261356b8187612e31565b9050818103602083015261357f8186612e31565b905061358e6040830185613311565b81810360608301526135a08184612e31565b905095945050505050565b600060208201905081810360008301526135c481612f1a565b9050919050565b600060208201905081810360008301526135e481612f3d565b9050919050565b6000602082019050818103600083015261360481612f60565b9050919050565b6000602082019050818103600083015261362481612fa6565b9050919050565b6000602082019050818103600083015261364481612fc9565b9050919050565b6000602082019050818103600083015261366481613078565b9050919050565b600060208201905081810360008301526136848161309b565b9050919050565b600060208201905081810360008301526136a4816130be565b9050919050565b600060208201905081810360008301526136c481613104565b9050919050565b600060208201905081810360008301526136e481613127565b9050919050565b600060208201905081810360008301526137048161314a565b9050919050565b600060208201905081810360008301526137248161316d565b9050919050565b6000602082019050818103600083015261374481613190565b9050919050565b60006020820190508181036000830152613764816131d6565b9050919050565b600060208201905081810360008301526137848161323f565b9050919050565b600060208201905081810360008301526137a4816132a8565b9050919050565b600060208201905081810360008301526137c4816132cb565b9050919050565b60006020820190506137e06000830184613311565b92915050565b60006137f0613801565b90506137fc8282613ac2565b919050565b6000604051905090565b600067ffffffffffffffff82111561382657613825613bfa565b5b61382f82613c29565b9050602081019050919050565b600067ffffffffffffffff82111561385757613856613bfa565b5b61386082613c29565b9050602081019050919050565b60008190508160005260206000209050919050565b600081519050919050565b600081519050919050565b600082825260208201905092915050565b600082825260208201905092915050565b600081905092915050565b60006138d082613a44565b91506138db83613a44565b9250827fffffffffffffffffffffffffffffffffffffffffffffffffffffffffffffffff038211156139105761390f613b6d565b5b828201905092915050565b600061392682613a44565b915061393183613a44565b92508261394157613940613b9c565b5b828204905092915050565b600061395782613a44565b915061396283613a44565b9250817fffffffffffffffffffffffffffffffffffffffffffffffffffffffffffffffff048311821515161561399b5761399a613b6d565b5b828202905092915050565b60006139b182613a44565b91506139bc83613a44565b9250828210156139cf576139ce613b6d565b5b828203905092915050565b60006139e582613a24565b9050919050565b60008115159050919050565b60007fffffffff0000000000000000000000000000000000000000000000000000000082169050919050565b600073ffffffffffffffffffffffffffffffffffffffff82169050919050565b6000819050919050565b82818337600083830152505050565b60005b83811015613a7b578082015181840152602081019050613a60565b83811115613a8a576000848401525b50505050565b60006002820490506001821680613aa857607f821691505b60208210811415613abc57613abb613bcb565b5b50919050565b613acb82613c29565b810181811067ffffffffffffffff82111715613aea57613ae9613bfa565b5b80604052505050565b6000613afe82613a44565b91507fffffffffffffffffffffffffffffffffffffffffffffffffffffffffffffffff821415613b3157613b30613b6d565b5b600182019050919050565b6000613b4782613a44565b9150613b5283613a44565b925082613b6257613b61613b9c565b5b828206905092915050565b7f4e487b7100000000000000000000000000000000000000000000000000000000600052601160045260246000fd5b7f4e487b7100000000000000000000000000000000000000000000000000000000600052601260045260246000fd5b7f4e487b7100000000000000000000000000000000000000000000000000000000600052602260045260246000fd5b7f4e487b7100000000000000000000000000000000000000000000000000000000600052604160045260246000fd5b6000601f19601f8301169050919050565b7f455243373231456e756d657261626c653a206f776e657220696e646578206f7560008201527f74206f6620626f756e6473000000000000000000000000000000000000000000602082015250565b7f4552433732313a207472616e7366657220746f206e6f6e20455243373231526560008201527f63656976657220696d706c656d656e7465720000000000000000000000000000602082015250565b7f4f776e61626c653a206e6577206f776e657220697320746865207a65726f206160008201527f6464726573730000000000000000000000000000000000000000000000000000602082015250565b7f222c000000000000000000000000000000000000000000000000000000000000600082015250565b7f4552433732313a207472616e736665722066726f6d20696e636f72726563742060008201527f6f776e6572000000000000000000000000000000000000000000000000000000602082015250565b7f4552433732313a20746f6b656e20616c7265616479206d696e74656400000000600082015250565b7f22696d616765555249223a2022646174613a696d6167652f7376672b786d6c3b60008201527f6261736536342c00000000000000000000000000000000000000000000000000602082015250565b7f22656c6f223a2022000000000000000000000000000000000000000000000000600082015250565b7f226465736372697074696f6e223a2022547261696e20796f757220414920616e60008201527f6420626174746c6520616761696e7374206f7468657273210000000000000000602082015250565b7f30784e6f6e690000000000000000000000000000000000000000000000000000600082015250565b7f4552433732313a207472616e7366657220746f20746865207a65726f2061646460008201527f7265737300000000000000000000000000000000000000000000000000000000602082015250565b7f4552433732313a20617070726f766520746f2063616c6c657200000000000000600082015250565b7f4552433732313a206f70657261746f7220717565727920666f72206e6f6e657860008201527f697374656e7420746f6b656e0000000000000000000000000000000000000000602082015250565b7f3c2f746578743e3c2f7376673e00000000000000000000000000000000000000600082015250565b7f4552433732313a20617070726f76652063616c6c6572206973206e6f74206f7760008201527f6e6572206e6f7220617070726f76656420666f7220616c6c0000000000000000602082015250565b7f4552433732313a2062616c616e636520717565727920666f7220746865207a6560008201527f726f206164647265737300000000000000000000000000000000000000000000602082015250565b7f4552433732313a206f776e657220717565727920666f72206e6f6e657869737460008201527f656e7420746f6b656e0000000000000000000000000000000000000000000000602082015250565b7f4552433732313a206d696e7420746f20746865207a65726f2061646472657373600082015250565b7f4552433732313a20617070726f76656420717565727920666f72206e6f6e657860008201527f697374656e7420746f6b656e0000000000000000000000000000000000000000602082015250565b7f226e616d65223a20220000000000000000000000000000000000000000000000600082015250565b7f4f776e61626c653a2063616c6c6572206973206e6f7420746865206f776e6572600082015250565b7f2261747472696275746573223a205b7b202274726169745f74797065223a202260008201527f656c6f222c202276616c7565223a200000000000000000000000000000000000602082015250565b7f7b00000000000000000000000000000000000000000000000000000000000000600082015250565b7f4552433732313a20617070726f76616c20746f2063757272656e74206f776e6560008201527f7200000000000000000000000000000000000000000000000000000000000000602082015250565b7f207d205d7d000000000000000000000000000000000000000000000000000000600082015250565b7f646174613a6170706c69636174696f6e2f6a736f6e3b6261736536342c000000600082015250565b7f4552433732313a207472616e736665722063616c6c6572206973206e6f74206f60008201527f776e6572206e6f7220617070726f766564000000000000000000000000000000602082015250565b7f455243373231456e756d657261626c653a20676c6f62616c20696e646578206f60008201527f7574206f6620626f756e64730000000000000000000000000000000000000000602082015250565b7f22636f6e74656e744944223a2022000000000000000000000000000000000000600082015250565b614348816139da565b811461435357600080fd5b50565b61435f816139ec565b811461436a57600080fd5b50565b614376816139f8565b811461438157600080fd5b50565b61438d81613a44565b811461439857600080fd5b5056fe4142434445464748494a4b4c4d4e4f505152535455565758595a6162636465666768696a6b6c6d6e6f707172737475767778797a303132333435363738392b2fa264697066735822122045a602daa8b7651b33a482b35164741904c0f1ac17827e6ee4770dd6639a0b9e64736f6c634300080400333c73766720786d6c6e733d27687474703a2f2f7777772e77332e6f72672f323030302f73766727207072657365727665417370656374526174696f3d27784d696e594d696e206d656574272076696577426f783d273020302033353020333530273e3c7374796c653e2e62617365207b2066696c6c3a20626c61636b3b20666f6e742d66616d696c793a2073657269663b20666f6e742d73697a653a20323470783b207d3c2f7374796c653e3c726563742077696474683d273130302527206865696768743d2731303025272066696c6c3d272346314639463527202f3e3c7465787420783d273530252720793d273530252720636c6173733d27626173652720646f6d696e616e742d626173656c696e653d276d6964646c652720746578742d616e63686f723d276d6964646c65273e",
    "linkReferences": {},
    "deployedLinkReferences": {}
}